S00E0000752D626F6F742E73726563C0
S31580800000B80000EA14F09FE514F09FE514F09FE5B0
S3158080001014F09FE514F09FE514F09FE514F09FE5BA
S3158080002060008080C0008080200180808001808008
S31580800030E001808040028080A0028080EFBEADDEBD
S31580800040DEC0AD0B00F020E300F020E300F020E37B
S3158080005000F020E300F020E300F020E300F020E3CE
S3158080006028D01FE500E08DE500E04FE104E08DE5D6
S3158080007013D0A0E30DF069E10FE0A0E10EF0B0E1CE
S3158080008048D04DE2FF1F8DE850201FE50C0092E896
S3158080009048008DE234508DE20E10A0E10F0085E895
S315808000A00D00A0E1150700FA00F020E300F020E3C0
S315808000B000F020E300F020E300F020E300F020E36E
S315808000C004D04DE200008DE590001FE500E080E5DC
S315808000D000E04FE104E080E500E090E500009DE5EA
S315808000E004D08DE248D04DE2FF1F8DE8B4201FE515
S315808000F00C0092E848008DE234508DE20E10A0E12B
S315808001000F0085E80D00A0E1060700FA00F020E3E5
S3158080011000F020E300F020E300F020E300F020E30D
S31580800120E8D01FE500E08DE500E04FE104E08DE555
S3158080013013D0A0E30DF069E10FE0A0E10EF0B0E10D
S3158080014048D04DE2FF1F8DE810211FE50C0092E814
S3158080015048008DE234508DE20E10A0E10F0085E8D4
S315808001600D00A0E1F90600FA00F020E300F020E31C
S3158080017000F020E300F020E300F020E300F020E3AD
S3158080018048D11FE500E08DE500E04FE104E08DE594
S3158080019013D0A0E30DF069E10FE0A0E10EF0B0E1AD
S315808001A048D04DE2FF1F8DE870211FE50C0092E854
S315808001B048008DE234508DE20E10A0E10F0085E874
S315808001C00D00A0E1EB0600FA00F020E300F020E3CA
S315808001D000F020E300F020E300F020E300F020E34D
S315808001E0A8D11FE500E08DE500E04FE104E08DE5D4
S315808001F013D0A0E30DF069E10FE0A0E10EF0B0E14D
S3158080020048D04DE2FF1F8DE8D0211FE50C0092E893
S3158080021048008DE234508DE20E10A0E10F0085E813
S315808002200D00A0E1DD0600FA00F020E300F020E377
S3158080023000F020E300F020E300F020E300F020E3EC
S3158080024008D21FE500E08DE500E04FE104E08DE512
S3158080025013D0A0E30DF069E10FE0A0E10EF0B0E1EC
S3158080026048D04DE2FF1F8DE830221FE50C0092E8D2
S3158080027048008DE234508DE20E10A0E10F0085E8B3
S315808002800D00A0E1D90600FA00F020E300F020E31B
S3158080029000F020E300F020E300F020E300F020E38C
S315808002A068D21FE500E08DE500E04FE104E08DE552
S315808002B013D0A0E30DF069E10FE0A0E10EF0B0E18C
S315808002C048D04DE2FF1F8DE890221FE50C0092E812
S315808002D048008DE234508DE20E10A0E10F0085E853
S315808002E00D00A0E1B70600FA840700EA00000FE15E
S315808002F01F1000E21A0031E31F00C0131300801321
S31580800300C00080E300F029E1100F11EE020AC0E3FD
S31580800310100F01EE8C009FE5100F0CEE3B0400EB76
S31580800320150F07EE4FF07FF56FF07FF51EFF2FE1FB
S31580800330EDFFFFEA0000A0E3170F08EE150F07EE2A
S31580800340D50F07EE4FF07FF56FF07FF5100F11EE2A
S31580800350020AC0E30700C0E3020080E3020B80E369
S31580800360010A80E3100F01EE0E50A0E1101F10EEFF
S31580800370213AA0E10F3003E20F4001E20322A0E19F
S31580800380022084E120009FE50700C0E300D0A0E141
S31580800390300F11EE400080E33E002DE9150400FB0E
S315808003A03E00BDE805F0A0E10000808000FF30407F
S315808003B070470148704700BF03000080004870473F
S315808003C00300008000487047030000800048704723
S315808003D00300008000487047030000800048704713
S315808003E00300008000487047030000802DE9F041BB
S315808003F01A4B1B6883B319B10D681DB9C30725D401
S31580800400174824E04FF0000C6746164AD2F800E081
S31580800410154AD2F80080BE4501D1144817E0D3E949
S315808004200260B5427CEB000213D3D3E90624240311
S3158080043044EA12541203921940EB040095427CEBF5
S31580800440000006D21B692B449B1B0B600020BDE8F5
S31580800450F08101374344DEE70548F8E7200D808048
S31580800460020000801C0D8080180D80800E00008028
S315808004700300008010B5044600202146E268206192
S3158080048000F0B6FB206110BD01380A44914200D14C
S31580800490704711F8013B00F8013FF7E70448054BA8
S315808004A00364054B8361054BC361FFF7E3BF00BFE0
S315808004B0C80C8080B1038080B3038080BD03808038
S315808004C02DE9F04D06460C462B4DDFF8B0802C4F3B
S315808004D0454505D32B4B1E60BDE8F04D00F050BEE0
S315808004E0D9F83030D5F800A003F1FF4C0AEB0C0028
S315808004F05CB1254B984202D3343398421FD9234B23
S3158080050098421CD0043B984219D02A79172A11D157
S315808005101C4B5AF80C201B68F31A13448CB900F1D3
S3158080052043014AF80C3021F03F0120F03F0000F073
S3158080053055FE04E00023394615484BF0DFFD08352B
S31580800540C6E70022D4E904BE5B4572EB0E020DD36A
S31580800550D4E90612120342EA1152090311EB0B0108
S315808005604EEB020E99427EF1000ED8D20246394673
S3158080057008484BF0C3FDE2E7FCE286801CE4868077
S31580800580F2288580E0B38680E00C8080C40C8080F1
S31580800590FC0B80801E0C808030B5042585B002954A
S315808005A0002514460195089D009500F04DF90CB103
S315808005B02378236005B030BD042300F0F5B80000B1
S315808005C0F0B505461646013900F10F0200F11F0786
S315808005D012F8014F11F8010FBA4212D08442F7D037
S315808005E0002005F12004224634F8027B18B1318838
S315808005F0C91B4842484147B13288002AF3D0023627
S31580800600F1E7241A60426041EBE72BB129680A44FE
S31580800610093222F007021A6008B1014B1D60F0BDD5
S31580800620480D808008B500200349FFF7DFFE002251
S31580800630024B1A6008BD00BF4C0D8080480D8080BB
S3158080064010B5044650B14FF0FF31203000F053FA98
S31580800650246804EB4004293424F0070010BD182355
S315808006602DE9F34D264E93463361264B0F461B6804
S3158080067004461A6903F1180503EB020808B100F1F4
S31580800680180A45450BD332693B6834BB1E481F49DF
S315808006909A4288BF08463A6002B0BDE8F08D284607
S315808006A0FFF7CEFF6B6802463BEA030305EB000348
S315808006B001D01D46E5E7306910443061002CF8D0C2
S315808006C039688842F5D850462946CDE90023FFF718
S315808006D0DBFE009A019B9244EBE79A420ED8183A49
S315808006E004F11801002000F083FA18227061044911
S315808006F02046FFF7C9FE00203269CCE70348CAE767
S31580800700300D80804C0D8080020000800500008046
S315808007102DE9F745224D14462B680A881E69804646
S315808007200F461E4442B92CB11833B342236001D39D
S3158080073000232360002512E0DFF868A0DAF8000045
S3158080074088B10A4623464146FFF73AFF58B124B11D
S315808007502368B34224BF00232360DAF800502846FA
S3158080076003B0BDE8F0852D681835AE4215D94FF0B7
S31580800770000A01AB3A4641462846FFF721FF019B96
S31580800780B34228BFCDF804A020B1002CE7D0019BCE
S315808007902360E4E7019D002DEBD1002CC8D1C9E709
S315808007A04C0D8080480D80802DE9F34D0E4617468E
S315808007B01C460546B8B3B1B3AAB3296830464FEA1A
S315808007C05108414600F097F940452CD0314638464D
S315808007D001AAFFF79DFF08B9338823BBDDF8048023
S315808007E0B8F1000F24D008F120010A4632F802AB16
S315808007F0BAF1000FFAD1D5F800B0521A5A452A605C
S3158080080018D83046FFF740FE1022384608EB0201A2
S31580800810FFF73AFE44B1D8F8043034EA03030BD0AC
S31580800820C5F800B0C9E7054C204602B0BDE8F08D1A
S31580800830034CF9E7034CF7E75446F5E7020000805E
S315808008400E000080050000802DE9F04D0646DDE92A
S31580800850088A084617461D46DDF828B016B922480C
S31580800860BDE8F08D0029FAD0002BF8D000223146E1
S31580800870FFF74EFF0446002831D0BBF1000F03D02E
S3158080088043683BEA03032AD10FB163683B60BAF1C0
S31580800890000F03D0D4E90223CAE900234FF0FF3248
S315808008A03046124900F016F930B929464046BDE8EF
S315808008B0F04D0122FFF7D3BE2B6822689A422A60C8
S315808008C00FD8B8F1000FCAD004F1200131F8024B5D
S315808008D0002CFBD14046FFF7D7FD2046C0E7044871
S315808008E0BEE70448BCE700BF020000804A0C8080D7
S315808008F00E00008005000080F8B520B31249134DA4
S315808009000C682E68844228BF0024336928BF0C6017
S31580800910F21800F1200131F8024B002CFBD10768D8
S3158080092003440737394421F007015B1A521A336131
S31580800930FFF7AAFD2D6820462A6905F11801183A25
S3158080094000F056F96861F8BD480D80804C0D808036
S315808009502DE9FF4DDFF8A4A00291DAF800604FF010
S31580800960FF311D46D6F810800190039200F0C3F8BF
S31580800970441C6300DAF8001000930D9B06EB080791
S3158080098007F1200B591A0BEB440429442144B1F515
S31580800990003F31D8DDE91001039A7A60EA1846F87B
S315808009A008201022C7E90201B8180299FFF76CFD6A
S315808009B05846009A0199FFF767FD2A4620460C998A
S315808009C0FFF762FD60190D9A0E99FFF75DFD56F867
S315808009D00820DAF800500732224422F00702521BA0
S315808009E02A610020183A05F1180100F001F9686142
S315808009F0002004B0BDE8F08D0148FAE74C0D808078
S31580800A0009000080074B00211B68186900F12003CC
S31580800A10B3F5003F36BFC0F5FF30002000F5F0709B
S31580800A20704700BF4C0D808000487047030000806F
S31580800A301FB500240294079C0194069C0094FFF7BE
S31580800A4003FF04B010BD0023FFF7AEBE70B5164617
S31580800A501D4601B3FAB1F3B1E8B110F0100418D194
S31580800A6010F0FF0315D0012B15D000F00603042B60
S31580800A7011D0FF280FD80023084AC1E90023FFF749
S31580800A80C1FF0023064AC6E90001C5E90023204646
S31580800A9070BD044CFBE7044CF9E700BFE8FF01001A
S31580800AA0C8FF0100030000800200008010F0040F60
S31580800AB010B405D010F0B00F05D110BCFFF7C6BFBB
S31580800AC0024810BC70470248FBE700BF02000080E6
S31580800AD00300008070B505460024A24201D1002023
S31580800AE008E035F8146031F81430F01A02D10134F8
S31580800AF0002EF2D170BD03460020884202D033F8A2
S31580800B00102002B970470130F7E70000DFF8D4C0C3
S31580800B10F0B5DCF800300BB300264FF00047334643
S31580800B20314D15F8014B013327FA04F40E2B46EA32
S31580800B300406F6D10024DFF8B4E02546082345F381
S31580800B4000073740013B87EA5505F8D10134B4F573
S31580800B50807F4EF8045BF0D1CCF800308C070ED0C5
S31580800B606AB1224C11F8013B013A83EA0003DBB279
S31580800B7054F8233083EA102001D08B07F2D10E46B9
S31580800B8002F00303194C22F003025718B74211D1A1
S31580800B907BB1043A11440333144CCA1C194412F8AD
S31580800BA0013F4340DBB254F823308A4283EA1020E7
S31580800BB0F5D1F0BD56F8045B6840C5B254F825502F
S31580800BC085EA1025E8B254F8200080EA1520C5B25F
S31580800BD054F8255085EA1025E8B254F8200080EA3A
S31580800BE01520D3E760118080500D8080600D8080D5
S31580800BF008B5C043FFF78AFFC04308BD25733A20F6
S31580800C00556E6B6E6F776E2072656C6F636174697B
S31580800C106F6E207479706520256C6C780A002573D8
S31580800C203A2052656C6F636174696F6E206174203F
S31580800C302570206973206F7574206F662072616E4F
S31580800C4067652028256C78290A0056006100720025
S31580800C5054006F00460069006C006500000000004B
S31580800C604942492053595354640002004800000089
S31580800C700000000000000000A80C80800001252074
S31580800C80000000000000000000000000000000005E
S31580800C900000000000000000C80C8080000000007A
S31580800CA00000000000000000440061007300200006
S31580800CB055002D0042006F006F0074000000000018
S31580800CC0C00C8080C00C808052554E5453455256FD
S31580800CD06400020050000000000000000000000058
S31580800CE045E8838031E88380C5038080C503808022
S31580800CF091E88380ED03808093ED838005EE838009
S31580800D00C9ED8380C5038080E9E78380CD038080B9
S31580800D10D503808025EE83800000000000000000DF
S31580800D2000000000240D8080240D8080000000005B
S31580800D30000000000000000055624566695661012A
S31580800D40000000000000000000000000000000009D
S31580800D50000102040507080A0B0C1016171A0000FA
S31580800D60000000000000000000000000000000007D
S31580800D70000000000000000000000000000000006D
S31580800D80000000000000000000000000000000005D
S31580800D90000000000000000000000000000000004D
S309808011600100000084
S31580801164FFFFFFFFFFFFFFFFFFFFFFFFFFFFFFFF85
S31180801174FFFFFFFFFFFFFFFFFFFFFFFF75
S31580801180002307EE153F07EED53FBFF34F8FBFF3A2
S315808011906F8F704770477047704708B500F0AAE830
S315808011A0BDE80840FFF7F8BF704708B500F0F8E85B
S315808011B0BDE80840FFF7F8BF08B5FFF7EBFFFFF7FC
S315808011C0F4FF002308EE173F08EE163F08EE153F22
S315808011D0BFF34F8FBFF36F8F08BD704738B5044616
S315808011E00D4600F02FFE30EE103F012203F00703FC
S315808011F004339A40534223409D4207D8BFF34F8F92
S3158080120029462046BDE83840FFF7E7BF07EE3E3FD8
S315808012101344F1E7704770B504460D4600F012FE20
S3158080122030EE106F2946204600F00CFE38B1012240
S31580801230234606F007060436B2409D4207D8BFF3A0
S315808012404F8F29462046BDE87040FFF7E3BF07EE03
S31580801250363F1344F1E700005FF07FF5300F30EEC4
S31580801260A03BA0E10E3013E21C00000A00A0A0E3A0
S31580801270AA208AE03012A0E1071001E2020051E341
S31580801280130000BA10AF40EE6FF07FF5101F30EE7E
S31580801290072001E2042082E2FF4300E3A14114E0BB
S315808012A0145F6FE1FF7F07E3A17617E00790A0E1E7
S315808012B01465A0E106B08AE11962A0E106B08BE1EF
S315808012C05EBF07EE019059E2F8FFFFAA014054E223
S315808012D0F5FFFFAA02A08AE20A0053E1E3FFFFCA74
S315808012E000A0A0E310AF40EE4EF07FF56FF07FF563
S315808012F01EFF2FE1F04E2DE9D6FFFFEBF04EBDE8C5
S315808013001EFF2FE15FF07FF5300F30EEA03BA0E12E
S315808013100E3013E21C00000A00A0A0E3AA208AE017
S315808013203012A0E1071001E2020051E3130000BAF7
S3158080133010AF40EE6FF07FF5101F30EE072001E290
S31580801340042082E2FF4300E3A14114E0145F6FE151
S31580801350FF7F07E3A17617E00790A0E11465A0E1FF
S3158080136006B08AE11962A0E106B08BE156BF07EE2E
S31580801370019059E2F8FFFFAA014054E2F5FFFFAAE7
S3158080138002A08AE20A0053E1E3FFFFCA00A0A0E33D
S3158080139010AF40EE4EF07FF56FF07FF51EFF2FE1A8
S315808013A0F04E2DE9D6FFFFEBF04EBDE81EFF2FE114
S315808013B0704710B5044600F0DAFBE3070DD500F0E0
S315808013C0C8FDFFF7E8FEFFF7F0FE00F076FDFFF739
S315808013D0D7FEFFF7EDFF002010BD00F06EFDFFF712
S315808013E0CFFEFFF7DAFEFFF7CBFE00F05DFDF0E77C
S315808013F00320FFF7DEBF4EF053B801EE300F704703
S31580801400100F11EE0200C0E3100F01EE1EFF2FE1D8
S3158080141078009FE50700C0E300D0A0E13B4800FA52
S3158080142000D0A0E10090A0E13B4800FA0000A0E354
S315808014304A5100FA380099E50700C0E300D0A0E160
S31580801440049099E50CE08FE23C0099E500E08EE01F
S31580801450300099E51F0000EA1B0000EBAFFBFFEB35
S315808014602C009FE52C309FE50010A0E3002053E000
S31580801470BA0000FACA5000FAC95000FB0900A0E100
S31580801480301099E510E09FE51EFF2FE1F0EBFFFF1E
S3158080149000FF30401CE48680AC9187803D5B8180F4
S315808014A00DC0A0E1F05F80E80000A0E31EFF2FE181
S315808014B0F05F90E80CD0A0E10100A0E1000050E34D
S315808014C00000001A0100A0E31EFF2FE1300099E59D
S315808014D0100F0CEE1EFF2FE108304FE264109FE55F
S315808014E0031081E0014050E01500000A54109FE50A
S315808014F0031081E050209FE5032082E0000CB1E854
S31580801500000CA0E8020051E1FBFFFF3A3C109FE50A
S31580801510032081E038109FE5033081E00300B2E844
S31580801520FF1001E2170051E30300001A040080E0F7
S31580801530001090E5041081E0001080E5030052E100
S31580801540F5FFFF3A1EFF2FE128EBFFFF44CF060011
S3158080155044CF06004CB60700F0B591B06D4608AC16
S31580801560294622460026D9F8003003F1200CDF6B0D
S315808015700833C5E900769F6B6345C4E9007605F13B
S31580801580080504F10804F2D1042306F0ABF811B003
S31580801590F0BD704773B5D9F8003005465B6BD0F8DF
S315808015A0946017480C46019330F0B0FD48B1102105
S315808015B001AA4AF058FE00281CDB019911484AF09E
S315808015C09DFDFFF7E6FF104B104904F40074002C54
S315808015D018BF19460E484AF091FD1BF09FFEFFF713
S315808015E007FFD5F8A4303BB1D5F8A02014B92046A2
S315808015F00199B04702B070BDD9F800309A6BF5E793
S31580801600872B85808E2B8580702B85805138868030
S31580801610B32B85807047000010B50446094830F0AA
S3158080162075FDD4F8A43033B1204603F05BF920B140
S3158080163005484AF009F80548FBE72046BDE8104092
S31580801640FFF7E8BF3C728580CC2B8580E12B858037
S3158080165070B510F0C00604460D6912D1C30504D555
S315808016602846FFF7D9FF304670BD10F4C06F04D08E
S3158080167021462846FFF78EFFF5E72846FFF7CCFF01
S31580801680F6E74FF0FF36EEE710B50446D0F8A000B7
S3158080169060B108493FF0D0FC002807DDD4F8A0006F
S315808016A0FFF75AFF10B1044816F02BFDBDE81040B5
S315808016B0FFF79EBE082C8580102C8580D0F89430CC
S315808016C0D0F8A0001847000010B590F8254090F813
S315808016D0243043EA042390F8264043EA044390F872
S315808016E0274043EA0463184CA34207D0174CA34291
S315808016F004D0174816F005FD012010BD90F82940CA
S3158080170090F8283043EA042390F82A4043EA044339
S3158080171090F82B4043EA04630B6090F82D4090F854
S315808017202C3043EA042390F82E4043EA044390F811
S315808017302F4043EA046313600A68014605484AF0ED
S31580801740DDFC0020D9E700BF18286F01626F780022
S31580801750322C8580462C85800000000000000000A9
S3158080176010F0030384463DD141EA012141EA0141DB
S315808017700B46102A1FDB2DE9004188468E46403A6B
S31580801780A1BFACE80A41ACE80A41ACE80A41ACE8C2
S315808017900A41F4DC08BFBDE8008112F0200F1CBF2F
S315808017A0ACE80A41ACE80A4112F0100F18BFACE8E9
S315808017B00A41BDE8004112F0080F18BFACE80A0064
S315808017C012F0040F18BF4CF8041B12F0020F1CBFD6
S315808017D00CF8011B0CF8011B12F0010F18BF0CF8D6
S315808017E0011B7047043AF0DB022BB8BF0CF8011B53
S315808017F0D8BF0CF8011B0CF8011B1A44B4E700BF54
S31580801800884208BF70472DE91140043A4BDB10F0BF
S31580801810030C91F800F05AD111F0030C71D11C3A67
S315808018202DE9E00114DB91F800F0603A91F81CF024
S3158080183005DB91F83CF091F85CF091F87CF0B1E8AA
S31580801840F851203AA0E8F851F7DA12F1600FF6DA0B
S3158080185012F01C0CCCF1200C18BFE74421E0AFF3CA
S31580801860008051F8043B51F8044B51F8045B51F8E1
S31580801870046B51F8047B51F8048B51F804EBE744F0
S3158080188000BFAFF3008040F8043B40F8044B40F83B
S31580801890045B40F8046B40F8047B40F8048B40F886
S315808018A004EBBDE8E001D20718BF11F8013B24BFE5
S315808018B011F8014B11F801CB18BF00F8013B24BF0A
S315808018C000F8014B00F801CBBDE811407047CCF1A0
S315808018D0040CBCF1020FC8BF11F8013BA8BF11F8F8
S315808018E0014B11F801EBC8BF00F8013BA8BF00F897
S315808018F0014BB2EB0C0200F801EBD4DB11F0030C48
S315808019008DD021F00301BCF1020F51F804EB4ED04B
S3158080191000F39A801C3A39DB2DE9E00391F800F0D8
S31580801920603A91F81CF005DB91F83CF091F85CF018
S3158080193091F87CF0F0C94FEA1E23203AB1E8005333
S3158080194043EA04634FEA142444EA05644FEA152582
S3158080195045EA06654FEA162646EA07664FEA17275E
S3158080196047EA08674FEA182848EA09684FEA19293A
S3158080197049EA0C694FEA1C2C4CEA0E6CA0E8F813F5
S31580801980D6DA12F1600FD5DABDE8E00312F01C0CCE
S315808019900AD04FEA1E2351F804EBBCF1040C43EACB
S315808019A00E6340F8043BF4DCA1F103017BE71C3A2B
S315808019B039DB2DE9E00391F800F0603A91F81CF06C
S315808019C005DB91F83CF091F85CF091F87CF0F0C9F9
S315808019D04FEA1E43203AB1E8005343EA04434FEA74
S315808019E0144444EA05444FEA154545EA06454FEADC
S315808019F0164646EA07464FEA174747EA08474FEAB8
S31580801A00184848EA09484FEA194949EA0C494FEA91
S31580801A101C4C4CEA0E4CA0E8F813D6DA12F1600F13
S31580801A20D5DABDE8E00312F01C0C0AD04FEA1E43DB
S31580801A3051F804EBBCF1040C43EA0E4340F8043BB6
S31580801A40F4DCA1F102012EE71C3A39DB2DE9E003B3
S31580801A5091F800F0603A91F81CF005DB91F83CF043
S31580801A6091F85CF091F87CF0F0C94FEA1E63203AD9
S31580801A70B1E8005343EA04234FEA146444EA052418
S31580801A804FEA156545EA06254FEA166646EA072631
S31580801A904FEA176747EA08274FEA186848EA09280D
S31580801AA04FEA196949EA0C294FEA1C6C4CEA0E2CDC
S31580801AB0A0E8F813D6DA12F1600FD5DABDE8E00334
S31580801AC012F01C0C0AD04FEA1E6351F804EBBCF16D
S31580801AD0040C43EA0E2340F8043BF4DCA1F10101B7
S31580801AE0E1E600BF0020704708B5D9F800300E487F
S31580801AF0596B08F0F1F90D48D9F8901008F0ECF997
S31580801B000B48D9F8341008F0E7F90A48D9F8381024
S31580801B1008F0E2F9BDE808404FF40052D9F8D410B5
S31580801B2005484AF0EBBA00BF712C85807D2C858074
S31580801B30862C85808D2C8580972C8580D9F8382039
S31580801B400020C9F83420D9F83820103AC9F83820CE
S31580801B5070473BF0F5BF0000D9F83430024A08332D
S31580801B6000201360704700BF40008080704700204F
S31580801B707047000008B5014849F066FDB42C858021
S31580801B802DE9F0450446A3B080224C4902A8FFF790
S31580801B9037FEA26BE16B4A48256C4AF0AFFAD9F8DA
S31580801BA0202005F07046D2070AD5D9F83C10A06B64
S31580801BB0D9F83C20E36B821A591A42484AF09EFA39
S31580801BC0E36A226B616B40484AF098FA236A626ABC
S31580801BD0A16A3E484AF092FA23693D480093636938
S31580801BE0A269E1694AF08AFA23683A480093E168F3
S31580801BF06368A2684AF082FA002EACBF6E214E21BD
S31580801C0015F0804F0CBF7A225A2215F0005F0CBFE8
S31580801C106323432315F0805F0CBF76205620009087
S31580801C202D484AF06BFA236C2C4A2D4813F0800F8E
S31580801C300CBF0146114613F0400F08BF024622AD05
S31580801C4003F01F0005EB8000264D13F0200F264BF6
S31580801C5018BF2B46009350F8803C24484AF04EFAB1
S31580801C60276CE56B17F02007214815BF04260826C8
S31580801C7025F0010525F003056FF003044AF03EFA4E
S31580801C80DFF87080DFF870A07FB9002C0FDC55F804
S31580801C90242001E035F81420002C14BF404650469D
S31580801CA031464AF02BFA0134EEE7022CF2D1134802
S31580801CB023B0BDE8F0454AF021BA00BF40F9848060
S31580801CC0E02C8580DA2C8580022D8580262D858066
S31580801CD04A2D85807A2D8580AA2D85802B66858064
S31580801CE0EEEF8580C72C858051388680BA2D858099
S31580801CF0D92D8580D42C8580CC2C858026CC8580DA
S31580801D00044608B536F088FB06484AF0F7F9E36B57
S31580801D102046043BE363FFF733FFE06BFFF719FF51
S31580801D20FFF728FFE02D8580044608B536F074FBE2
S31580801D3006484AF0E3F9E36B2046043BE363FFF70A
S31580801D401FFFE06BFFF705FFFFF714FFF72D8580F8
S31580801D50044608B536F060FB06484AF0CFF9E36B57
S31580801D602046083BE363FFF70BFFE06BFFF7F1FE4E
S31580801D70FFF700FF0B2E8580044608B536F04CFBB6
S31580801D8006484AF0BBF9E36B2046083BE363FFF7DE
S31580801D90F7FEE06BFFF7DDFEFFF7ECFE1B2E8580FE
S31580801DA0044608B536F038FB06484AF0A7F9E36B57
S31580801DB02046083BE363FFF7E3FEE06BFFF7C9FE4F
S31580801DC0FFF7D8FE272E8580044608B536F024FB9B
S31580801DD006484AF093F9E36B2046083BE363FFF7B6
S31580801DE0CFFEE06BFFF7B5FEFFF7C4FE312E858010
S31580801DF0044608B536F010FB06484AF07FF9E36B57
S31580801E002046083BE363FFF7BBFEE06BFFF7A1FE4E
S31580801E10FFF7B0FE362E85807047000008B50648ED
S31580801E2016F06FF916F08AF9FFF7A1FEFFF7F4FF37
S31580801E3000F032F9002008BD342F85800144FFF7F9
S31580801E40CDB9000008B540EA01039B060A4605D055
S31580801E50014603484AF052F9002008BD0120FCE77C
S31580801E60432F85804FF48042C9F89420D9F8941006
S31580801E70D9F830200020521AC9F83020D9F830207D
S31580801E806FF30F02C9F83020D9F83020C9F8902036
S31580801E907047FFF7E7BFD9F8903041EA005141F4A7
S31580801EA0406143F82010704711EE103F43F4805311
S31580801EB001EE103FBFF36F8F704711EE103F11EE2A
S31580801EC0103F23F4805301EE103FBFF36F8F70472E
S31580801ED011EE100FC0F30030704710B511EE100F61
S31580801EE010F001042CD1FFF767F920461221FFF705
S31580801EF0D2FF0130B0F5805FF8D1002000F0ECF899
S31580801F00012000F0E9F8022000F0E6F8032000F0D6
S31580801F10E3F8002302EE503FD9F890306FF30D033B
S31580801F2043F0590302EE103F4FF0553303EE103FD6
S31580801F3011EE103F43F0010301EE103FBFF36F8F28
S31580801F4011EE103F43F0040301EE103FBFF36F8F15
S31580801F5010BD10B511EE103F5B0709D511EE104FFD
S31580801F60FFF71BF924F0050401EE104FBFF36F8F46
S31580801F7010BD11EE100FC0F380007047034BD3F86D
S31580801F800006BFF35F8F000F704700BF0000E144FB
S31580801F90034BD3F80006BFF35F8FC0F30F307047D3
S31580801FA00000E14438B5FFF7F3FF4BF644139842BF
S31580801FB023D04BF68C13984222D04BF61E01144CBC
S31580801FC0144B154A884218BF1C46FFF7D7FF022854
S31580801FD019D8FFF7D3FF52F8205000F067F803280E
S31580801FE013D800F063F80D4B53F820202B462146FA
S31580801FF00B484AF083F8002038BD074A094CE4E74D
S31580802000094A0A4CE1E70A4DE7E7094AEEE700BF4D
S315808020107F2F85808D2F858014628680BCFF84800B
S315808020209E2F8580782F858008628680862F858002
S315808020308D90858008B500F025F8002008BD4FF08A
S31580802040804108B54FF0004017F075F9C9F818003F
S31580802050002008BD4FF00041D9F800200020D163D0
S31580802060D9F80020D9F818301364704713B5482002
S3158080207001A91BF041FC044608B92AF049FE204696
S3158080208002B010BD024B034A1B681A60704700BFBE
S31580802090206286800CFB8480BFF35F8F0122024B97
S315808020A0C3F8002F704700BF0000E044044B1B68D4
S315808020B01B681B681868BFF35F8FC0F30220704768
S315808020C02062868008B5FFF703FF08B9FFF7ECFE2C
S315808020D0BDE80840FFF701BF38B5D9F8003003EB7B
S315808020E0C000056CC46B2D0D05EB1455240DA542DF
S315808020F000D838BD20460E21FFF7CDFE0134F6E7A5
S3158080210054109FE5000081E577F8FFEAF05F2DE9BE
S3158080211000C0A0E10100A0E14FF07FF55FF07FF580
S31580802120700060E1F09FBDE8F05F2DE9FF60A0E37D
S3158080213000C0A0E34FF07FF55FF07FF5700060E12F
S31580802140040000EA00F020E3FEC0A0E34FF07FF5B4
S315808021505FF07FF5700060E1F09FBDE824B4304089
S3158080216000207047D9F80030014A00209A63704772
S315808021700001008030B585B0FFF798FF022803D133
S315808021803C493D482FF072FF3C4BD3F83026BFF355
S315808021905F8FD3F83436BFF35F8F39480293ADF8BB
S315808021A00C202FF0B3FFD0B9364849F0A7FF9DF8B1
S315808021B00830D90713D49DF8092013439DF80A2047
S315808021C013439DF80B2013439DF80C2013439DF8F1
S315808021D00D20134303D02A4802A92FF0E9FF274B0D
S315808021E0D3F83826BFF35F8FD3F83C36BFF35F8F43
S315808021F025480293ADF80C202FF088FFB8B99DF85A
S315808022000830DA0713D49DF8092013439DF80A20F5
S3158080221013439DF80B2013439DF80C2013439DF8A0
S315808022200D20134303D0184802A92FF0C1FF174809
S315808022302FF06CFF60B916482FF068FF044610486F
S315808022402FF064FF05465CB9294610482FF00EFFB3
S31580802250002101AA1E201BF0CDFA002005B030BDDA
S31580802260072220460B4948F011FF0028ECD02146F2
S31580802270EBE700BFC72F8580D52F85800000E1449E
S31580802280DE2F8580E62F8580163085801F3085807D
S31580802290273085803430858010B514461A46029B57
S315808022A08A42134408D88B420CD90146084849F0A3
S315808022B025FF6FF0110010BDA242F6D3A342F4D958
S315808022C00020F8E7A242FBD2A342F9D3EDE700BF14
S315808022D03C3085802DE9F0452F4C0746E06F89B0EC
S315808022E00D4690461E46DDF840A078B928462B4993
S315808022F0022200910B1F002D18BF28469C3902F0C0
S3158080230019F980B1264815F0FCFE26E002F0F4F833
S315808023100328EBD1384649F01BFF014603A848F0D5
S3158080232073FE03A8E3E7D4F89810D4F89C2061B9AB
S315808023301C4B41461A1F0193009238460222A43BC9
S3158080234005F0D0FC68B11848DDE733461748CDF8EC
S3158080235000A0FFF7A1FF0028EAD0012009B0BDE8E0
S31580802360F085D4F8A010D4F8A42061B9D4F8A00060
S315808023700AF0D0F9084802F03FFA0028EED00C48DF
S3158080238049F0BCFEE9E733460A48CDF800A0FFF75E
S3158080239083FF0028E1D1E9E71CE48680B8E4868063
S315808023A06D308580C0E4868095308580923085804A
S315808023B0B9308580185E8580FFF7D9BB2DE9F04DD1
S315808023C00469CF07D4F8C0308EB043EA010306464D
S315808023D00D46C4F8C0300DD5AC4FC4220021384696
S315808023E0FFF7BEF9AA482FF017FF0123C7F8BC0074
S315808023F0C7F8C030280504D5306810B1002149F06F
S315808024002CFFA90740F191814FF0000B0DAA0CA9F2
S315808024103068CDE90CBBD6F814A002F043F89B4F08
S315808024208046C7F888B0C7F884B002F065F802287D
S3158080243000F09080032800F0A980012840F0BC80BD
S315808024404146944849F05AFED8F80020924BD7F8F6
S31580802450BCB09A4209D0914815F053FE6FF01501B1
S315808024608F4849F04BFE0127D7E1404601F0E4FDD5
S3158080247008B98C48F0E7404601F0E6FEBBF1000FD4
S315808024800DD0894815F03DFE404601F0EAFD18B929
S31580802490864849F033FEE1E7854815F032FE98F8A4
S315808024A01D10022903D0834849F028FED6E7B8F16B
S315808024B0000FD3D098F81E30042B10D00DD8012B66
S315808024C001D0022B78D108F14003C7F88430D8F840
S315808024D00C301BBAC7F8883007E00E2BF2E7764BB4
S315808024E0002140461A1F01F0D6FDDFF8D0A1402298
S315808024F04146504648F090FE01234AF8048C7B641E
S31580802500404601F0F9FF022860D0032800F08E80D3
S31580802510012840F0B98098F81E3087F8913098F875
S315808025201F3087F8903098F81C3087F89230D8F82A
S315808025300C301ABA08F140031344C7F88030D8F8B3
S3158080254010301BBAC7F88C3098F81D3087F89330D6
S31580802550002386E007F18803059307F184030493BB
S31580802560642301900293009041463846CDF80CB0A2
S315808025700CAB0DAA06F09CFC002824DB0D9BC7F8CB
S315808025804C803B650C9B7865BB64B9E741464C487B
S3158080259049F0B4FD07F18803009359464046D7F841
S315808025A0BC2007F1840302F005FE01460028A7D0EF
S315808025B010F15B0F7FF454AF5146424849F09EFD3F
S315808025C06FF05A014CE76FF0010149E73E4A796D19
S315808025D0F86C05F04DFE18B13C4815F092FD42E747
S315808025E03B4A796DF86C05F057FE08B13948F4E7B7
S315808025F0394A796DF86C05F013FE08B13748ECE7F7
S31580802600374A796DF86C05F01FFE08B13548E4E7E6
S31580802610F86C06F01FFA344AC7F88000796DF86C3A
S3158080262005F062FE002893D03048D6E70223002149
S31580802630404687F8913002F09BFD0523002187F87C
S315808026409000404687F8923002F080FD0021C7F8DE
S315808026508000404602F072FE0123C7F88C00C7F8DE
S31580802660940097F89320032A01D0182A46D1204ACD
S3158080267003210DABA2F1940002F0BCF8002845DA64
S31580802680023043D01B48A8E71B48A6E71CE4868017
S31580802690E4B18580DC30858027051956B5618580D3
S315808026A096318580CA6185800E318580E26185809C
S315808026B0293185802D318580A4E4868020E48680BA
S315808026C04C31858075318580ADE48680BA31858050
S315808026D0ACE48680D1318580AEE48680EF3185809A
S315808026E0AFE4868004328580A8E486801B3285802C
S315808026F0B0E486805D3285803A3285807A6C002A25
S3158080270000F08F80BB691BBAC7F8943097F89130F8
S315808027100E2B08D1D7F88420D7F89430C7F88C2030
S315808027201344C7F89430C7F87C806A0723D530680D
S31580802730002800F08780002149F08FFDA94F7168BD
S3158080274097F891C0B268BCF10E0F14D844F2140386
S3158080275023FA0CF3DB070ED597F892701C2F0AD8D4
S31580802760A14BFB40DF0706D500230093FFF7B2FD20
S315808027700746002851D115F0080800F09E80FFF7A3
S31580802780F6F9E36F80460893D4F88030D4F88820B1
S315808027900993D4F88430D4F88CA0079394F8913038
S315808027A094F890B00E2B50D1BBF1000F4DD0900095
S315808027B000F57F2000F6FF704FF400116FF3130051
S315808027C00B930A9247F058FF0746002800F0B480A2
S315808027D00A9A0B9BC4F894000DA904914FF40001CA
S315808027E00292079A0391584639460192009701F0E2
S315808027F0BFFC0D9900283ED007905846CF1B01F02C
S3158080280019FD079A014612F1260F20D1B8F1000FE3
S3158080281001D0FFF7ABF96FF0020738460EB0BDE8FE
S31580802820F08D3A6D4AB1714A796DF86C05F062FD2A
S3158080283000283FF46BAF6E48CFE6002B7FF466AFFF
S315808028406C48CAE66C4B186878E75746C4E7B7F594
S31580802850000F0CD3694849F051FC694849F04EFC19
S31580802860B8F1000F00F09980FFF780F995E0654810
S3158080287049F044FCF1E7CB1B3F312AF03F0021F041
S315808028803F01091AC4F88830FFF7D8FA0D99BBF151
S31580802890000F02D1079BBB4248D0099BBB4245D9DA
S315808028A0089B994242D9636C002B3BD094F82230A6
S315808028B0042B02D1544815F024FCEA0617D5D4F8A7
S315808028C09800D4F89C1004F1AC0304F1A802091A8C
S315808028D001F03EFF074600289FD1D4F8A8104B48C8
S315808028E02FF0F2FBD4F8AC1049482FF0EDFBAB0605
S315808028F02AD494F8920000F09DFA824698BB15F40B
S31580802900F86F6CD0B8F1000F01D0FFF72FF994F8EB
S31580802910920001F00FFC94F8922001463D4849F0E0
S31580802920EDFBA0E53C4815F0ECFB99E7D4F88C00EC
S31580802930091A47F08BFEC0E70127B8F1000F3FF4F4
S315808029406CAFFFF713F968E7D4F8A00005F0A6F816
S3158080295004F1A40104F1A00005F002F907460028DD
S315808029607FF45BAFC5E76F061FD42C0628D4E805B5
S315808029702DD4690533D5524631464FF4806000F0B8
S3158080298041FA0746B8F1000F01D0FFF7EFF8FA1C3D
S315808029903FF441AF7B1C7FF440AF204849F0AEFBCB
S315808029A0FFF77AFB4FF0FF3737E731464020D04735
S315808029B007460028D9D03946194849F09FFB2CE72D
S315808029C031468020D04707460028F4D1CFE731466C
S315808029D04FF48070D04707460028ECD1C9E700279E
S315808029E0ABE700BF1CE4868020400014B0E486807C
S315808029F087328580A832858028628680CC328580A1
S31580802A0015338580FC32858032338580B3338580EB
S31580802A10C0338580CB3385806C33858015348580C3
S31580802A20F9338580024B41F61F714361FFF7C6BC3F
S31580802A300CC98580024B41F210714361FFF7BEBCA1
S31580802A402D34858010B5202200210446FEF788FE2D
S31580802A5001232373014B236110BD00BF1CE4868054
S31580802A6070470000B0F5806F10B50DD10B695A6C38
S31580802A7042B1D3F894400548214649F03FFBD9F8C6
S31580802A800000A047012010BD0020FCE733348580FC
S31580802A90B0F5806F08B509D1002308691A460221EE
S31580802AA0D0F8940049F02EFF012008BD0020FCE775
S31580802AB0B0F5806F38B515D101230C690A48D4F8F2
S31580802AC0945084F89130294649F018FBD4F8A42094
S31580802AD0D4F888100AB1D4F8A0202846BDE83840BA
S31580802AE035F074BA002038BD6C3485802DE9F0418C
S31580802AF004460F4698460026151FBE4201DBBDE878
S31580802B00F0810EB104F8018B55F8041F204648F0F9
S31580802B107BFA286848F0D7FA01360444EDE700004E
S31580802B20B0F5806F70B50C4623D10E69736CA3B1F6
S31580802B3011482FF0EBFA48B1002149F08EFBA1694C
S31580802B40054661B10A23E269FFF7D0FFD6F8944043
S31580802B500A48214649F0D2FAA047012070BD08482C
S31580802B602FF0D4FA01460028F0D0284648F04CFA57
S31580802B70ECE70020F2E700BFA3348580AC34858003
S31580802B803C72858038B50C460D692FF05BFB30B979
S31580802B90D5F8881005482FF097FA002038BDD5F8EB
S31580802BA09430E169A0699847F7E700BFE63485806D
S31580802BB030B5B0F5806F0C4687B01FD10B695A6CE3
S31580802BC0CAB102ADD3F894200D49284649F076FAE9
S31580802BD0E3691B68CDE90035FFF7CBF9044608B178
S31580802BE0FFF7B7F900216B460222084609F0F0FA12
S31580802BF00CB1FFF772F9012007B030BD0020FBE7EA
S31580802C00D3378580B0F5806F2DE9F3410C4648D166
S31580802C100F697B6C002B3DD097F82230D7F80080E7
S31580802C20042B0DD04FF00008A369002B36DC1E489C
S31580802C302FF06CFA1D4B002814BF05461D461DE0FB
S31580802C4001AB6A460121404601F025FA019B002BA3
S31580802C50E8D0E9E7E369013553F8260048F033FA8E
S31580802C6001360544A369B342F4DC284615F028FD75
S31580802C702023E269A1690546FFF738FFD7F894409B
S31580802C800B48214649F03AFA2B464146D9F800004E
S31580802C90064AA047012002B0BDE8F081002635466D
S31580802CA0E0E70020F7E700BF3C7285805138868058
S31580802CB0EF3485802DE9F045044685B047480E4639
S31580802CC02FF024FA054660B307464FF0000A28465F
S31580802CD048F0F9F97B1B98420ED8BAF1000F20D0C4
S31580802CE0E20502D53E4849F009FA3146204605B0CC
S31580802CF0BDE8F045FEF7ACBCB84618F8012B3D2AF6
S31580802D000DD163B117F8013C662B08D1002140466E
S31580802D1049F0A3FA10F0010F18BF4FF0010A474619
S31580802D20D5E7E30502D52F4849F0E8F9B4F5806FF9
S31580802D3051D13469D4F8A430D4F8A0000393002804
S31580802D4036D004F0ABFE03A904F1A00004F008FF9E
S31580802D50054648BBD4F8A00004F046FD2946224AA1
S31580802D60D4F8A0003EF01EFE031E01DA023314D191
S31580802D701A482FF0CBF90546D0B1D4F8A06048F038
S31580802D80A2F901231844019300902B463046134ABA
S31580802D90164904F02DFB00280ADA3EF0BDFB144963
S31580802DA00246144849F0AAF9012005B0BDE8F085AD
S31580802DB02046FEF769FCD4F8A020D4F894100E48FB
S31580802DC049F09CF915F0BAF92046FEF777FC0B4856
S31580802DD015F097F9E8E70020E7E700BF3C72858029
S31580802DE0383585804F358580753585807435858085
S31580802DF00E2885807C3585808F358580CB3585800E
S31580802E007047704770B50D4604461646FFF7F8FF43
S31580802E10FFF7F7FF29462046B0472B6993F8913014
S31580802E20012B05D0B4F5007018BF4FF0FF3070BD10
S31580802E300020FCE7014B53F820007047ECFC84802F
S31580802E4007B52B2001A91AF057FD28B9019819F0EA
S31580802E5094FF03B05DF804FB0020FAE737B5FFF7EF
S31580802E60EFFF01A904462B201AF046FD50B95CB1CC
S31580802E70019B20461B68DD6B49F04AFB21462B6807
S31580802E800198984703B030BD6FF01200FAE70000D2
S31580802E9073B504460E46124800212FF05FF9054629
S31580802EA038B9104849F02AF96FF01504204602B0E7
S31580802EB070BD3146204604F019FD01A8019504F0C5
S31580802EC081FD08B90848EDE72046019904F054FD54
S31580802ED004460028EAD0054849F010F9E6E700BFA5
S31580802EE0E2358580F93585802836858044368580AB
S31580802EF003681A780AB10A2A00D1704701330360C1
S31580802F00F6E700008268014602B94268014849F0C6
S31580802F10F5B800BF673685802DE9F0411F460B786E
S31580802F2004462F2B0D469046ADF5087D1AD1037B3E
S31580802F30C3B100238DF81C30284648F0C4F8064675
S31580802F4007A848F0C0F80644B6F5007F11D92A460E
S31580802F50154807A949F0D2F86FF023000DF5087D52
S31580802F60BDE8F0814FF40072216907A848F054F8D3
S31580802F70E2E7294607A848F05BF807A90B4849F09D
S31580802F80BDF842460A4902A849F098F82046656805
S31580802F9001AB02AA07A9A8470028DFDB0FB9012069
S31580802FA0DCE7019B3B60FAE76F3685808A368580D1
S31580802FB0D337858073B5044610460D461E462FF05E
S31580802FC00FF968B1102101AA49F04DF900280ADB72
S31580802FD0334629462046019AFFF79EFF02B070BD90
S31580802FE06FF00100FAE76FF01500F7E710B5044639
S31580802FF0406815F0B3FAE06815F0B0FA206915F0EC
S31580803000ADFA606915F0AAFAA06915F0A7FAE069A9
S3158080301015F0A4FA206A15F0A1FA606A15F09EFA76
S31580803020A06A15F09BFA2046BDE8104015F096BA46
S315808030302DE9F84507680C4698463946054617486F
S315808030408A4611F8013B33B1202A02D1C65CB60686
S3158080305001D49A42F4D1AAEB0706701C15F030FB96
S31580803060206050B100210D488E42226807D100230E
S3158080307093550123C5F800A06360BDE8F885531891
S315808030807A5CB8F1000F06D010F802C01CF0010FF0
S315808030901CBF2032D2B21A700131E5E76C2A858056
S315808030A02DE9F3410C4617210368054600200193DC
S315808030B061601E4613F8011B20291AD0092918D071
S315808030C000B10196232907D100230199084611F87A
S315808030D0016B86B903B10190019B19780A290ED1BB
S315808030E00022013362600193019B2B6002B0BDE8B0
S315808030F0F0810120DDE70A2EECD00123E6E709B9CD
S315808031000222EEE7022A06D100230A22214601A85E
S31580803110FFF78EFFE8E701232022214601A8FFF7EB
S3158080312087FF0026084F57F8361007EBC608002918
S31580803130DAD0206847F09FFF18B9D8F804306360EA
S31580803140D2E70136EFE700BF9806858073B5022205
S315808031500D46694604460668FFF7A2FF0198012856
S3158080316009D0216832460548891B48F0C7FF6FF031
S31580803170150002B070BD009B2B60FAE79F36858074
S31580803180F7B50E460222694605460768FFF788FF2F
S31580803190019C012C09D029683A460A48C91B48F007
S315808031A0ADFF6FF0150003B0F0BD009D0A220021AF
S315808031B0284649F079F83060284615F0CFF92046C0
S315808031C0F1E700BFBE36858010B5044608482FF0EB
S315808031D007F848B12246102149F045F80028B4BF47
S315808031E06FF01500002010BD6FF00100FBE700BF77
S315808031F0E634858010B51429044686B006D81448EE
S3158080320048F07CFF6FF01B0006B010BD4BF0FEFDD2
S3158080321004AA01460F484BF07DFFA8B19DF8153072
S31580803220204603939DF814309DF8102002939DF8D4
S315808032301330094901939DF8123000939DF811301F
S3158080324048F03CFF0120DFE76FF00100DCE700BF3C
S31580803250D5368580A0398680F53685802DE9F04DF6
S3158080326000250C46ADF6D80D844B1D22294607468F
S315808032701DA811931295139514951595FEF770FADE
S315808032804422294625A8FEF76BFA2046FFF73AFEA8
S3158080329001232363636B0BB3A36BAB4219DB784843
S315808032A02EF09EFF0546A0B1A06950B10DF59B61B9
S315808032B04FF4806210F0C8FA72480DF59B612EF04B
S315808032C0D5FE284647F0FFFE00220146284616F0A6
S315808032D030F900200DF6D80DBDE8F08D216929B929
S315808032E06168694848F00AFF0120F3E73846674AF3
S315808032F0FFF760FE002802DA61686548F2E7634876
S315808033002EF004FF636908900993CBB147F0DBFE0A
S315808033100546606947F0D7FE05440135284615F095
S31580803320CFF9099018B95B4848F0E8FEDCE7636915
S3158080333029460093584A089B48F0ADFE099B08931E
S31580803340E169002968D1E3690793002B6CD1E36A30
S31580803350D90717D551482EF0D9FE054650482EF00C
S31580803360D5FE06464F482EF0D1FE80464E482EF03A
S31580803370CDFE334601902A464C49CDF8008025A85B
S3158080338048F09CFEE36A9A070CD549491DA847F008
S315808033903BFE15211FA8FFF72DFF0028BCBF002309
S315808033A08DF87430E36AA5699B0702D1002D00F001
S315808033B0AA80404E00214FF4806236A8FEF7D0F96D
S315808033C0002D14BF2846304647F07DFE054625A849
S315808033D047F079FE05441DA847F075FE0135054402
S315808033E0B5F5806FA1696FD9002914BF084630462C
S315808033F047F069FE044625A847F065FE05461DA868
S3158080340047F061FE4FF480620346009221462A4649
S31580803410294848F073FE2CE0E06847F02CFE0028AF
S3158080342091D1089B079392E73846244A07990DF5F0
S315808034309B63FFF7BFFD002804DA6168204848F067
S315808034405DFE16E0DDF8D854284648F081FE0146B8
S315808034500EA847F0D9FD19482EF058FE1C21034648
S315808034600790184A009516A848F015FE1B287FF607
S315808034706EAF099815F072F836E700BF0CC9858063
S315808034801B3785803C72858024378580423785804E
S31580803490503785807B3785807F388580D737858014
S315808034A0DE378580E7378580F1378580F937858077
S315808034B00938858051388680123885809637858010
S315808034C0A5378580D037858021B14FF4806236A834
S315808034D047F0A2FD25A936A847F0AAFD1DA936A8E2
S315808034E047F0A6FD4FF480620DF59B6136A810F0FB
S315808034F0ABF90DF59B619C482EF0B8FD9B480DF588
S315808035009B6148F0FBFD9A482EF000FE216A14905C
S3158080351000292FD0E06847F0AEFD58BB089B1493F6
S31580803520089B1293079B002B00F0D081032416AB57
S315808035301393149B1BB98F482EF0E8FD149008983E
S3158080354000F0CEFF149B0546002B00F0C181139BB3
S31580803550002B00F0CA810424284600F0CDFF224645
S31580803560014611AB002800F0C3810021386806F03F
S3158080357047FB7EE7149B002BD2D0D4F820B0BBF1DA
S31580803580000F40F08580636A002BC8D07A482EF081
S31580803590BDFD054600284FD178482EF0B7FD0546FB
S315808035A077482EF0B3FD8046002D41D0DFF8D4A138
S315808035B0754AB8F1000F43D0606A0A9247F083FD5E
S315808035C00A9A002840D0616A014411F8016C6F48DC
S315808035D06F492F2E18BF08460A90606A0D9247F071
S315808035E072FD06460A9847F06EFD0644284647F0E7
S315808035F06AFD0B90504647F066FD0B9983460136EF
S3158080360040460E4447F05FFD0D9A0C9010460B9213
S3158080361047F059FD0C995E440E440644304615F0B9
S315808036204FF80B9A834690B95A4848F067FD20E751
S31580803630DFF858A15546BBE7544A90469246BBE789
S31580803640DFF84881C246B7E7534B0A93C5E70A9BA2
S3158080365004920195CDF80C80CDF808A00093314670
S31580803660636A4E4A48F017FD5D4600235946404AB4
S315808036703846FFF79FFC0646284614F06FFF002EDB
S315808036800DDA00231493236A23B161684448D6E611
S315808036900025EAE7616A11B1424848F02FFDA56AA4
S315808036A095B133482EF032FD002148F0D6FD834611
S315808036B03DF0AEF8064638B93B482EF027FD002807
S315808036C078D13A4848F01AFDFFF7C8FB0028FFF604
S315808036D027AFFFF7B5FB064600283FF421AF0021D0
S315808036E023482EF03BFD83463DF092F800287FF4F8
S315808036F017AF606A002800F0B28047F0E4FC054688
S31580803700002800F0A980636A204A034413F8011CCC
S315808037101F4B2F290CBF92469A46504647F0D3FCC2
S31580803720013505442946012015F0D6F980460028C2
S315808037303FF4F6AE636A154ACDF800A0002B08BF29
S31580803740134629461A4A48F0A6FCD6F800A0C0211E
S31580803750F288336801FB02339A45C0F08480404604
S3158080376014F0FCFEDCE600BF3C72858038388580AC
S3158080377044388580983985804F38858057388580CC
S315808037808C078680163785806C2286805138868025
S31580803790427C85805B3885801837858077388580C0
S315808037A084388580AC388580DB388580ED38858027
S315808037B07F388580314648F050FD0A902B78202BC3
S315808037C031D028464C4947F04BFD804668B3A0EB04
S315808037D0050A0AF1010014F073FF5246294606460F
S315808037E047F01AFC002306F80A30304647F06BFC17
S315808037F058B1002331463846404AFFF7DBFB002824
S3158080380015DA31463E4848F079FCB8F1000F02D08F
S31580803810304614F0A3FE2846374947F021FD0546F9
S315808038200028CBD150E70135C8E72E46DDE74FF437
S315808038300051584604F05AF80A983CF0E9FF10B1D6
S3158080384031463048DFE758460A9904F095F80028D3
S31580803850DBD031462C48D6E7DFF8B0A05DE702257D
S31580803860DFF8ACA05EE70AF1600318460B9347F059
S315808038702AFC291801200A9115F02EF90446002881
S315808038803FF46DAF0B9B234A0A990093434648F0D9
S3158080389002FC21463846204A0DF59B63FFF78AFB5A
S315808038A0002809DA2146164848F028FC204614F07C
S315808038B055FE0AF1C00A4AE75846DDF8D814FFF764
S315808038C0E7FA0028F2D021461448EDE7022430E654
S315808038D000F012FE022803D011482EF017FC1490B7
S315808038E0149B002B3FF438AE31E60E4B139332E6B1
S315808038F0386806F0A9FDBCE522368680DB3885806F
S315808039001D398580383985805639858018378580F8
S31580803910427C85807F388580E23585807C3985804C
S31580803920A13985801637858013B501AB1446FFF79C
S31580803930F3FA0028A1BF00220120019B1A5502B00C
S3158080394010BD00002DE9F34D0D46D1F800B0064636
S3158080395001A9284617469846DDF828A0FFF7F6FB8A
S31580803960041E09DA5A4629680F48891A48F0C6FB28
S31580803970204602B0BDE8F08D019D3A462946304604
S31580803980FFF7D2FF041E04DA2946084848F0B6FBC2
S31580803990EEE743463A4639463046CDF828A002B00F
S315808039A0BDE8F04D00F004B8B0398580CD3985808A
S315808039B02DE9F04D8EB01D46169B9246102B0490B5
S315808039C00591039140F341811021BD4848F096FBD3
S315808039D06FF01E0738460EB0BDE8F08D012703983C
S315808039E06F6147F070FB3A4604460CA905A8059E90
S315808039F0FFF756FB0D9B0E2B08D0142B19D0042B6A
S31580803A001AD1294605A8FFF7A1FB0BE0169B221D3C
S31580803A10013322F00302009304982B46524405A971
S31580803A20FFF790FF00280746D4DB05A8FFF760FAEA
S31580803A300BE105F10C01E5E732460599A148891B22
S31580803A4048F05CFBF1E705F1100105A8FFF798FBCC
S31580803A5007464BE14820059E14F032FE044610B995
S31580803A606FF00B07B6E748220021FDF779FE211D0E
S31580803A7005A8FFF76BFB00280BDA05993246891B70
S31580803A80914848F03BFB2046FFF7B0FA6FF0150768
S31580803A90A0E7EA6904F1400305F11801EB6121642E
S31580803AA06264136001220AA905A8059EFFF7F8FAC9
S31580803AB00B9B152B00F2C88001A252F823F000BF21
S31580803AC0A53A8080493C8080493C8080193B8080B3
S31580803AD0493C8080493C8080493C8080613B8080B5
S31580803AE0613B80809F3B8080ED3B80802D3C8080C9
S31580803AF0493C8080493C8080493C8080033C8080F2
S31580803B00113C80801F3C8080493C80803D3C808009
S31580803B10493C8080433C808001220CA905A8059E73
S31580803B20FFF7BEFA0D9B062B0DD00C2B11D16B683F
S31580803B302BB9606847F011FB6860002890D005A893
S31580803B40FFF7D6F9AEE704F1080105A8FFF7FEFA7C
S31580803B50F5E705993246891B5A4848F0CFFAEEE751
S31580803B6004F1100105A8FFF7F1FA071EFFF632AFC0
S31580803B70206947F0F2FAE06000283FF471AF53493C
S31580803B80206947F06DFB064600288BD047F0E5FA22
S31580803B90606100283FF464AF0023337082E704F1CC
S31580803BA0180105A8FFF7D2FAD4F81CB00746BBF1F6
S31580803BB0000F17D14649A06947F052FB90B1C61DC8
S31580803BC02021304647F072FAA0EB060808F1010002
S31580803BD014F076FD31464246E06147F01DFAE16990
S31580803BE001F808B0002FBFF65DAFF3E6E369002BDE
S31580803BF07FF458AF04F11C0105A8FFF7A7FA0746A2
S31580803C00F0E7236A002B7FF44DAF04F12001F3E7C0
S31580803C10636A002B7FF446AF04F12401ECE7A36A44
S31580803C20002B7FF43FAF04F12801E5E7012304F1FF
S31580803C303801636305A8FFF7A3FAE0E704F12C0156
S31580803C40F8E70123E3632DE70596012208A905A8F5
S31580803C50059CFFF725FA099B162B73D801A252F88B
S31580803C6023F000BF4B3C8080453D80804F3D8080E7
S31580803C70DD398080453D8080473A8080553A808096
S31580803C80453D8080453D8080453D8080453D808026
S31580803C90453D8080D53C80802F3D80800F3D8080D3
S31580803CA0453D8080453D8080453D8080D53C808077
S31580803CB0453D8080453D8080453D8080F33C808049
S31580803CC0E3398580023A8580293A858091DA8580B4
S31580803CD0443A858007A905A8FFF738FA079C0746E6
S31580803CE024B1686808B114F039FC6C60002FACDAB6
S31580803CF070E607A905A8FFF729FA079C0746002CD6
S31580803D00F4D0A86808B114F029FCAC60EEE703987B
S31580803D1047F0D9F9169BC21C013322F00302009327
S31580803D2004982B46524405A9FFF70CFE90E605F1D0
S31580803D30140105A8FFF724FA071E86DA05A8FFF77F
S31580803D40D7F847E6059922460248091B78E6012777
S31580803D5040E600BF4C3A8580F0B50546ADF5037DDB
S31580803D6010480C46164647F0AEF90746204647F07F
S31580803D70AAF93844B0F5007F224608D909490A480D
S31580803D8048F0BCF96FF023000DF5037DF0BD07493F
S31580803D9001A848F093F93246284601A9FFF7C4FD69
S31580803DA0F2E700BF6C3A85807A3A85809A3A858038
S31580803DB070B504462546006814F0D0FB606814F020
S31580803DC0CDFBA06814F0CAFB55F8180F0668A84288
S31580803DD004D12046BDE8704014F0C0BB4038FFF760
S31580803DE005F930463668F2E773B5054620200E46DB
S31580803DF014F066FC0446F0B120220021FDF7B0FC69
S31580803E0004F11803A361E3610123324631460093AE
S31580803E1028462346FFF7CCFD6B7E064633B1A368E2
S31580803E206BB1094848F06AF9A3686360002E03DAAB
S31580803E302046FFF7BDFF0024204602B070BD0348B0
S31580803E4048F05CF9F2E700BFAA3A8580C33A85805C
S31580803E502DE9F04D00240D460B69434A8AB009331B
S31580803E60069083FB0220D917404B039400930294DB
S31580803E700194C1EBA00123466A69286814F09AF8F8
S31580803E80064600286DD0AB4639482EF03FF9A246CB
S31580803E9001225BF8187F05905F4527D1059B2BB162
S31580803EA0002C4ED11946334848F028F9BAF1000FD4
S31580803EB048D109A9304613F09BFF0446304614F05A
S31580803EC0A6F8012C4BD109990698FFF7C7F90028E7
S31580803ED047D0AC69A34544D054F8103C23B90698A2
S31580803EE0A4F14001FFF7BAF92468F3E7A7F1400807
S31580803EF0531C21494046079348F0E0F842464146A4
S31580803F00304614F015F8012805D030460AB0BDE851
S31580803F10F04D14F07CB8696831B157F83C0C47F0A5
S31580803F20AAF8002808BFC246059B2BB1194657F8C8
S31580803F303C0C47F0A0F800B1A04644463F68079AFB
S31580803F40AAE7A2465146304613F02DFF0128B0D00D
S31580803F500230DAD16968094848F0D0F8A9E7023496
S31580803F60B7D00AB0BDE8F08D67666666052F80801B
S31580803F70EA3A8580FD3A8580B8EC85801D3B8580D0
S31580803F802DE9F04104461E468846174600211C22AC
S31580803F90079DFDF7E5FB9DF81830C4F800802373F4
S31580803FA09DF82030676023769DF82430A6606376FE
S31580803FB08DB1284647F087F8B0F5007F16D228461F
S31580803FC047F0CBF82061A0B13DB90023002022695B
S31580803FD0D054BDE8F0810848F2E72F21284647F083
S31580803FE091F80028F1D0401B431CEFE76FF01B004F
S31580803FF0EFE76FF00B00ECE751388680006914F0AC
S31580804000ADBA000070B505461646FFF7EDFE04464C
S3158080401020B9084848F072F8012070BD0EB101239E
S31580804020436121462846FFF713FF2046FFF7C0FEEF
S315808040300020F2E7323B858010B590B00446014679
S315808040404022684647F0E8F8002040226946019081
S31580804050FCF7CEFD63681BBAC31A5842584110B02C
S3158080406010BD10B50446C26800F140014FF480331C
S3158080407012BA002045F040FFA3691BBAC31A584282
S31580804080584110BD00F13C03002053F8042F02B93B
S3158080409070470130F9E7F8B5054616461F46FFF7A3
S315808040A0F1FF884219D9002205F1400454F8213065
S315808040B03C351BBA3B6017468F4205D1013004EBF5
S315808040C0800010443060F8BD55F8043F01371BBA34
S315808040D0033323F003031A44EEE700203860F1E7C8
S315808040E0012938B505460ED9084C2368002B06DD94
S315808040F00222284604F1080147F0A3F808B920680F
S3158080410038BD0C34F1E76FF01500F9E774058580CA
S315808041100368002B01DA002070478B42FCD00C307C
S31580804120F6E710B50C461146FFF7F2FF00B18468BA
S31580804130204610BD024602490248FFF7F2BF00BF03
S31580804140FD3B858034158580024602490248FFF70B
S31580804150E8BF00BF083C858090138580024602496F
S315808041600248FFF7DEBF00BF1D3C8580181685801C
S315808041702DE9F34D0E9FDDE90AA805463960D8B250
S3158080418016460C46FFF7EAFFDDF834B0024605BBDB
S315808041902249234B2348B44208BF194647F0AEFFD5
S315808041A02146214847F0AAFF012D17D0042D27D01C
S315808041B0EDB9B44208D00C9A93452CD34FF4803312
S315808041C04146504600F068F900200C9B23443B60B2
S315808041D013E00146154847F091FFE1E7424659468C
S315808041E050460CAB44F0A4FA10F1260FEDD1294647
S315808041F00F4847F083FF6FF0250002B0BDE8F08D51
S3158080420001AB524640460C99CDF804B044F0BCFCD4
S31580804210019B0C93E8E76FF01B00D6E72F3C8580E7
S315808042202B3C8580373C85801A7C8580403C858088
S31580804230543C8580024602490248FFF772BF00BF20
S31580804240773C8580D41485802DE9FF41044600F132
S31580804250200320223749384847F050FF3549374870
S3158080426047F04CFF207FFFF765FF0646607FFFF7AC
S315808042706BFF0546A07FFFF771FF0746E07FFFF75C
S31580804280D9FF3B463246294600902D4847F036FF77
S3158080429028492C4847F032FFE06800BA00F03CFBA2
S315808042A02269244912BA284847F028FF6269214941
S315808042B012BA264847F022FFA37F03F0FD02042A24
S315808042C029D12046FFF7DEFE1A490646204847F068
S315808042D015FF0025174FDFF87C80B54202D104B0E8
S315808042E0BDE8F08103AB2946204602AAFFF7D3FEBC
S315808042F02A463946404647F001FF039800F00CFB7A
S31580804300A37F062B05D125B13946029A124847F0FC
S31580804310F5FE0135E1E7202BE1D12169E2680F487E
S3158080432009BA12BAA2F50052403904B0BDE8F0410C
S3158080433047F0E4BE725A85808B3C8580A13C85801F
S31580804340B23C8580C13C8580D23C8580E83C858036
S31580804350FE3C85800B3D85801B3D8580333D8580F9
S3158080436038B5044615462368002B02DA4FF0FF30B5
S3158080437006E0606828B1294646F042FE08B9206882
S3158080438038BD0C34EFE70000024602490248FFF749
S31580804390E7BF00BF84438580341585800246024905
S315808043A00248FFF7DDBF00BFAF60858090138580B0
S315808043B0024602490248FFF7D3BF00BF8542858007
S315808043C018168580024602490248FFF7C9BF00BF9A
S315808043D07F3C8580D4148580024602490248FFF757
S315808043E0BFBF00BFCE3D8580E8158580084632F008
S315808043F0020108B503D147F030FF024B18600020D8
S3158080440008BD00BF2862868008B506482DF07EFEEE
S3158080441020B11022002147F07BFF08BD4FF000407D
S31580804420FBE700BF9D45858038B511482DF06EFE2F
S3158080443020B11022002147F06BFF38BDD9F82C407F
S31580804440D9F81850D9F81C206119914288BFD9F8BB
S315808044501C50084888BF2D1B2DF058FE30B1102285
S31580804460002147F055FF2C44201AE6E72046FAE7DC
S31580804470A74585809D45858008B506482DF046FEF2
S3158080448018B9BDE80840FFF7CFBF1022002147F05A
S315808044903FFF08BDB2458580814201D046F0BCBED3
S315808044A07047000073B50D4E0B461546044631683D
S315808044B080B101AA03F05AFE58B931682B4620464E
S315808044C001AA03F06FFE014618B9204647F0C5FE63
S315808044D001900199084602B070BD00BF286286802F
S315808044E0002307B5694601AACDE90033FFF7DAFFD5
S315808044F003B05DF804FB000010B50A4B02680446E1
S315808045009A420AD03CF084F948B1204600F076FB86
S31580804510002814BF0320002010BD0120FCE7022064
S31580804520FAE700BF27051956806C003818BF01202E
S31580804530704700002DE9F0451D4600238DB0149EFE
S315808045402B600C4617468046336038B1734946F0F7
S3158080455092FDB8B90023089307939BE08B6C8BB947
S315808045604B6C002BF6D091F82230042BF2D109685F
S315808045706B4847F0C3FD0121206808AB07AAFFF787
S315808045808AFD87E00023A26C0B9309920A93B8F187
S31580804590000F09D1E26C634920460B9204F071FCCE
S315808045A0811C39D10020B6E0236D8BB3D4F84CA022
S315808045B05146404609AB0BAA03F0D8FD58B95146FF
S315808045C040460AAB0BAA03F0EDFD014618B940467A
S315808045D047F043FE0B900B98FFF78EFF022861D041
S315808045E0032878D0012840F082800B994E4847F086
S315808045F085FDDDF82C804D4BD8F80020D4F8BC4062
S315808046009A420FD04A4813F07CFD6FF0010082E019
S31580804610484BD3F800A0CBE70028DCDA10F1410FB5
S31580804620C0D078E04046FFF707FD08B94248EAE700
S315808046304046FFF709FE5CB1404813F062FD404674
S31580804640FFF70FFD08B93E48DDE73E4813F059FD78
S3158080465098F81C30F8B2052B0BD198F81D3098420B
S3158080466003D0022B05D1162803D198F81E30032B50
S3158080467006D0FFF769FD0146334847F03FFDC4E722
S31580804680B8F1000FC1D008F140030793D8F80C30F9
S315808046901BBA0893079A002A84D0089B2A60134401
S315808046A033607FE708AB059307AB04937823029347
S315808046B00323FFB20390019320460B99009709ABA1
S315808046C00AAA04F0F5FB0028A8DB0B9B2066A3656D
S315808046D00A9BE365DEE708AB0021E06F07AA00F05E
S315808046E043FE831C3FF45EAF0028D3D096E7B8F1B3
S315808046F0000F0BD03A21404646F0D8FC30B10021DD
S31580804700013047F0AAFD0B9B089025E70F4813F0F0
S31580804710F8FC6FF015000DB0BDE8F0851637858002
S315808047202F468580C53F8580C0458580270519565B
S31580804730B561858028628680CA6185800E31858054
S31580804740E261858029318580F8458580134685801C
S315808047502DE9F041044623480D4616461F462DF026
S31580804760D5FC40B1002147F078FD0246DCB90023B4
S3158080477033603B6020E0FFF77FFE8046FFF744FE94
S31580804780002CF4D008EB00024FF480512846AAB161
S3158080479045F060FF3060A0B9134813F0B2FC4FF04B
S315808047A0FF30BDE8F081431CEED163193460294621
S315808047B020463B6045F04AFF0020F2E745F05CFFEB
S315808047C0E8E72A183A603168084847F097FC3068ED
S315808047D04FF480332A462146FFF75EFE044813F065
S315808047E090FCE9E777468580834685809F468580ED
S315808047F02931858004F054BD2DE9F04D836C0546C2
S315808048008EB01BB900200EB0BDE8F08DC76C3846DF
S31580804810FFF772FE022856D13846A96C04F0B2FAA8
S315808048204FF000080690DFF8A8A04FF0000B4346B3
S315808048303846284A0699CDF800B03CF064FD0D9044
S315808048400028DFD0A0220CAB05930BAB0493029299
S31580804850022316220393019200933946284605F156
S3158080486048030DAA04F024FB0028CCDB38460D993A
S3158080487003F0C4FC0028C6DB01460DF12B023846C6
S3158080488003F0F6FC0028BEDB134E9DF82B200B9898
S31580804890A6EB0A060C99F610104C5E4504F10804C6
S315808048A002D108F10108C0E754F8083C934207D149
S315808048B054F8043C099208910790984707A807C83E
S315808048C00BF1010BE9E7064847F018FC01209AE7CF
S315808048D084D88680CB46858084D8868084D8868096
S315808048E0D546858037B50546D0F8A430044655F838
S315808048F0A00F019303F0D2F8284601A903F030F97E
S3158080490038B9019B2BB101222046D4F8A01003F040
S315808049106DFB03B030BD000010B5044601460548E6
S3158080492047F0ECFB2046BDE810400021024A45F066
S315808049306BB900BF0947858026CC85802DE9F341F8
S315808049400446544816461F462DF066FC804620460F
S31580804950FFF7D2FD012807D0022835D04E4813F0C4
S31580804960D0FB4FF0FF3007E022684C4B9A4206D04E
S315808049704B4813F0C6FB012002B0BDE8F08120468B
S31580804980FFF75AFB08B94748F3E7B8F1000F05D01F
S315808049902046FFF766FB08B94348EAE7A37F062BE4
S315808049A001D04248E5E7216C04F140030ABA09B98F
S315808049B03F48DEE753F8041B0029FBD10899002085
S315808049C00B60099B1A60D7E74FF0FF31204604F0D1
S315808049D0A9F908B13748CCE74EBB67B13B7853B16C
S315808049E03946204604F0CEF9011E14DA394632481B
S315808049F047F084FBBFE70021204604F0C3F9011EFF
S31580804A0009DA002FF2D12D4920463CF015FB011E94
S31580804A1019DA2B48ADE7002320462A4A04F0FEF9AE
S31580804A20051E19DA002FEED039462748E0E733781D
S31580804A30002BE8D03146204603F0E0FB051E0BDADA
S31580804A4031462248D4E700232046214A3CF044FA66
S31580804A5006460028DDD0EDE706222946204604F06A
S31580804A6041F908B91B4884E7B8F1000F06D029467A
S31580804A70204604F0ADF808B917487AE76A46294691
S31580804A80204601AB03F086FC08B1144871E7DDE966
S31580804A90003293E7E4B185802248858027051956C0
S31580804AA01547858027478580374785804547858018
S31580804AB0554785800CAE8580634785807D47858018
S31580804AC0A2478580A373858085478580BD478580FD
S31580804AD0583B8580DB478580EE478580FD4785808E
S31580804AE030B585B00546019148B311B9002005B02F
S31580804AF030BD0C180C221349A4F10C0046F0C6FA7E
S31580804B000028F3D0042220460DEB0201FCF778FEC4
S31580804B1000231A46019999420DD10392042203A952
S31580804B20A018FCF76DFE0C22064904F10800FCF7FC
S31580804B3067FE1420DBE7E85C01330244EBE74FF045
S31580804B40FF30D4E7544885800346084A406C9042BB
S31580804B5007D109B9186870470022102104482DF0C2
S31580804B604DBB10B99B6C002BF6D07047008000102F
S31580804B70423785802DE9F7450C461746984682460A
S31580804B8038B332B3F1B10025D61813490C22A6F179
S31580804B900C00019546F07AFAC0B90422143E31465B
S31580804BA00DEB0200FCF72CFE6FF013052246514672
S31580804BB02C443046FCF724FE08EB04013846FFF788
S31580804BC08FFF0444204603B0BDE8F085CDF804808D
S31580804BD0ECE74FF0FF34F5E7544885804FF0FF309F
S31580804BE0704700000146082208B5034846F029FB35
S31580804BF0B0FA80F0400908BD614885800146082268
S31580804C0008B5034846F01DFBB0FA80F0400908BD20
S31580804C106A488580F8B50E461546044600B12AB99D
S31580804C204A4847F06BFA00273846F8BDFFF7E6FF1B
S31580804C30074608B94648F4E794F8292094F828303E
S31580804C4043EA022394F82A2043EA024394F82B20ED
S31580804C5043EA0263022B40F283800EB93D48E0E747
S31580804C603046FFF7BFFF08B93B48DAE704F12C03EB
S31580804C702B63A36A3949AB6504F580532B60A268A0
S31580804C806A6002F6FF720A401A44EA64E068A860A5
S31580804C906861E36803F6FF730B401344A26A032AB4
S31580804CA081BFD4F82C2602F6FF720A409B181B1B04
S31580804CB0EB6506F11C036B63D6F81C386B6506F5CD
S31580804CC00263AB6333696B647369AB64D6F83838D7
S31580804CD02B65D6F84C182964F268B36932445BB187
S31580804CE0EA60B3692B610344AB60F068B3690344BF
S31580804CF0013B404203401A442A62D6F834386B62BC
S31580804D00D6F80CC0D6F8404863446444CCF10000A1
S31580804D10013C013B034004401C441444EC63D6F8B8
S31580804D204C3843B12046FFF7DBFE2B6C1844AB68CA
S31580804D3028640344AB60F268296C531E0B4452424C
S31580804D4013409B1B23442B666EE700BF7348858088
S31580804D509A488580B7488580F148858000F0FFFF36
S31580804D6004F13003AB6304F140032B63627B237BC6
S31580804D7043EA0223A27B43EA0243E27B43EA02635D
S31580804D806B64627D237D43EA0223A27D43EA0243EC
S31580804D90E27D43EA0263AB6494F8292094F8283054
S31580804DA043EA022394F82A2043EA024394F82B208C
S31580804DB043EA0263AB6594F8752694F8743643EAC1
S31580804DC0022394F8762643EA024394F8772643EAC8
S31580804DD002632B6594F8253094F8241041EA0321E8
S31580804DE094F8263041EA034194F8273041EA0361FA
S31580804DF021442960627A237A43EA0223A27A43EAAB
S31580804E000243E27A43EA02636B6094F8242094F842
S31580804E102530607A42EA032294F8263042EA0342B9
S31580804E2094F8273042EA0362237A43EA0023A07A01
S31580804E3043EA0043E07A43EA00631344013B5242EB
S31580804E4013400B44EB64617C227C42EA0122A17C84
S31580804E5042EA0142E17C42EA0162AA6094F8252016
S31580804E6094F82410607C41EA022194F8262041EA55
S31580804E70024194F8272041EA0261227C42EA00229C
S31580804E80A07C42EA0042E07C42EA00620A44013A1F
S31580804E9049420A401A44AA61617E237E43EA0123FD
S31580804EA0A17E43EA0143E17E43EA0163EB6194F8A4
S31580804EB0253094F8241041EA032194F8263041EA7B
S31580804EC0034194F8273041EA0361237E607E43EA7A
S31580804ED00023A07E43EA0043E07E43EA00630B44DE
S31580804EE0013B49420B40134494F8291094F82820BA
S31580804EF042EA012294F82A1042EA014294F82B1061
S31580804F0052EA016271D0AB6294F8611694F8602699
S31580804F1042EA012294F8621642EA014294F86316C4
S31580804F2042EA0162EA6294F8252094F8241094F883
S31580804F30610641EA022194F8262041EA024194F8EA
S31580804F40272041EA026194F8602642EA002294F89A
S31580804F50620642EA004294F8630642EA00620A44A4
S31580804F60013A49420A40134494F8291094F828203B
S31580804F7042EA012294F82A1042EA014294F82B10E0
S31580804F8042EA0162012A30D92B6294F8711694F82C
S31580804F90702642EA012294F8721642EA014294F817
S31580804FA0731642EA01626A6294F8252094F8241086
S31580804FB094F8710641EA022194F8262041EA02415A
S31580804FC094F8272041EA026194F8702642EA00220A
S31580804FD094F8720642EA004294F8730642EA0062C6
S31580804FE00A44013A49420A4013441B1BEB651BE67F
S31580804FF0F8B504460D461646FFF700FE20B95048A0
S3158080500047F07CF80020F8BD94F8292094F8283061
S3158080501043EA022394F82A2043EA024394F82B2019
S3158080502043EA0263012B01D84648E9E7022B05D083
S31580805030D5F83438002B78D14348E1E794F8712647
S3158080504094F8703643EA022394F8722643EA024340
S3158080505094F8732653EA0263EED094F8253094F858
S3158080506009C094F82470227A47EA032742EA0C2200
S3158080507094F8263094F80AC047EA034742EA0C42FD
S3158080508094F8273094F80BC047EA036742EA0C62AB
S315808050903A447942013A3B190A4094F811C01A443D
S315808050A0237C43EA0C2394F812C043EA0C4394F899
S315808050B013C043EA0C633B44013B0B4094F819C010
S315808050C01344227E42EA0C2294F81AC042EA0C42A9
S315808050D094F81BC042EA0C623A44013A0A4094F83A
S315808050E061C61A4494F8603643EA0C2394F862C603
S315808050F043EA0C4394F863C643EA0C633B44013B22
S315808051000B401344336094F8292094F8283043EA7E
S31580805110022394F82A2043EA024394F82B2043EA18
S315808051200263022B7FF66FAF82E7EA68AB6951191B
S3158080513023B11344013B524213401944316062E7E4
S31580805140154985803C4985806B49858000B59BB0B3
S3158080515001AAFFF75FFD30B1179B022B06D81898FE
S315808051601BB05DF804FB6FF01500F9E70020F7E7C8
S3158080517000B59BB001AAFFF74DFD88B101980B4A17
S315808051800368934203D1C07F1BB05DF804FB084A55
S31580805190934208D004211BB05DF804EBFEF7A0BFD4
S315808051A06FF01500F0E70520EEE700BF270519565A
S315808051B004224D182DE9F04D04460D469AB064229E
S315808051C0002101A81F46FCF7CBFA2946204601AA72
S315808051D0FFF720FD002800F09B8029462046FFF7B8
S315808051E0C7FF014601A8FFF7AFFC4B4C054610224E
S315808051F020460F99019E45F06EFF0023204623743A
S3158080520045F061FF18B12146444846F077FFDDF8C6
S3158080521008B029460BF2FF32920A414846F06EFF6B
S3158080522040482CF073FF054678B345F04CFF044622
S31580805230DDF834A09AF8003053B151463A4846F0AA
S315808052405DFF504645F03FFF002C18BF0134044473
S31580805250DDF8388098F8003053B14146334846F0BF
S315808052604DFF404645F02FFF002C18BF0134044483
S31580805270601C13F025FA044648B92D4812F041FF88
S315808052806FF00B001AB0BDE8F08D0446D0E700239E
S31580805290037015B1294645F0B7FE9AF800304BB1B8
S315808052A023781BB12046234945F0C2FE51462046CD
S315808052B045F0BEFE98F800304BB123781BB120466E
S315808052C01C4945F0B5FE4146204645F0B1FE214653
S315808052D014482CF0CBFE204613F040F93FB132685B
S315808052E0154B9A4206BF06F140033B603E60229B87
S315808052F00BB90020C6E7104B32689A4205BFF36827
S31580805300229A229B1BBA0CBF1360C3F800B0F0E7C9
S315808053106FF01500B6E700BFE0E48680814985801E
S315808053209B4985803C728580C1498580DA498580A4
S31580805330F9498580223686802705195630B59BB0F7
S3158080534001AA04460D46FFF765FC48B129462046EA
S31580805350FFF70EFF014601A8FFF7F6FB1BB030BDB5
S315808053606FF01500FAE700002DE9F04D04460D46F2
S315808053709CB00021164603A864220193FCF7F0F9BD
S315808053802946204603AAFFF745FC98B1059A002A4C
S315808053907AD0199B159C022B6AD9B4F1885F0ED17D
S315808053A0002210213A482CF029FF044638B9394822
S315808053B046F0A4FE6FF015001CB0BDE8F08D079D09
S315808053C020462A4606993460FCF71AFA2C44089DB2
S315808053D020462A461699FCF713FADDF84C80B8F1F8
S315808053E0000F39D005EB040A424612995046FCF7E5
S315808053F007FA29482CF08AFE83465846274945F085
S315808054002FFF044620B3202145F050FE0023074617
S315808054100370204645F057FE0A2305463B70411CA3
S31580805420434652462046FFF7A5FB0028C2D0059BFF
S315808054302544034405934FF0200380443B702846DF
S3158080544045F041FE2946421C204645F0E5FED4E7DC
S31580805450594611482CF00AFE059C316804F2FF32C9
S315808054600F48920A46F04AFE019B00201C60A3E703
S31580805470169914B1B4F1885F01D13160ECE720468A
S315808054803460FCF7BDF9E7E76FF0010094E700BF71
S31580805490963785802C4A85803C728580594A85805E
S315808054A0664A858070B59AB00E461446002101AA58
S315808054B0FFF7B0FBC0B1179B022B06D90C4846F08C
S315808054C01DFE6FF05E001AB070BD089D25B92560FF
S315808054D04FF0FF303560F6E707990648316046F031
S315808054E00DFE00202560EEE76FF01500EBE700BF2C
S315808054F08E4A8580D54A85802DE9F04D9AB00C46B6
S315808055001746B1F1FF3F08BF002101AA054698469C
S31580805510DDF888A0FFF77EFB064630B321466A46D3
S315808055202846FFF765FD009C204600F0D9F90546A0
S3158080553040B153464246394620461AB0BDE8F04DC2
S3158080554000F0D6B90A9B04EB030BA34505D82A46FF
S315808055503946114846F0D2FD07E020463BF058F99F
S3158080556040B129460D4846F0C9FD002630461AB01E
S31580805570BDE8F08D6368BD421BBA0AD1BAF1000FCF
S3158080558001D0CAF80030B8F1000FEFD0C8F80040DB
S31580805590ECE71C440135D8E7164B8580EE4A85803A
S315808055A030B590F8292090F82830044643EA0223C3
S315808055B090F82A2085B043EA024390F82B2043EA6C
S315808055C00263022B05D9B34805B0BDE8304046F06A
S315808055D095BD90F82D3090F82C50427A45EA032577
S315808055E090F82E30AC4945EA034590F82F3045EA4D
S315808055F00365037A43EA0223827A43EA0243C27AC4
S31580805600A64843EA026246F079FD627B237BA24903
S3158080561043EA0223A27BA24843EA0243E27B43EA2F
S31580805620026246F06BFD627C237C9B4943EA0223BF
S31580805630A27C9C4843EA0243E27C43EA026246F0CB
S315808056405DFD627D237D944943EA0223A27D96484F
S3158080565043EA0243E27D43EA026246F04FFD627E80
S31580805660237E8D4943EA0223A27E904843EA024301
S31580805670E27E43EA026246F041FD627F237F86496D
S3158080568043EA0223A27F8A4843EA0243E27F43EACF
S31580805690026246F033FD94F8212094F820307E49CA
S315808056A043EA022394F82220824843EA024394F80C
S315808056B0232043EA026246F021FD94F8252094F85F
S315808056C02430754943EA022394F826207A4843EAAF
S315808056D0024394F8272043EA026246F00FFD94F84D
S315808056E02D3094F82C2094F82F1042EA032294F8D7
S315808056F02E30724842EA034205F00F030393C5F3C6
S31580805700061303F5FA630293C5F3C62301936B0EE2
S3158080571042EA016200936049C5F3864346F0EEFC17
S315808057205D4904F13002664846F0E8FC5A4904F146
S315808057304002644846F0E2FC94F8292094F82830A8
S31580805740554943EA022394F82A205F4843EA024374
S3158080575094F82B2043EA026246F0D0FC94F8292004
S3158080576094F8283043EA022394F82A2043EA0243B5
S3158080577094F82B2053EA026300F0898094F861269E
S3158080578094F86036444943EA022394F862264F4867
S3158080579043EA024394F8632643EA026246F0AEFC0B
S315808057A094F8653694F8642694F8691642EA03225A
S315808057B094F8663694F8670642EA034294F8683627
S315808057C042EA006243EA012394F86A16404843EA33
S315808057D0014394F86B1643EA01632F4946F08EFCA9
S315808057E094F86D2694F86C362B4943EA022394F814
S315808057F06E26384843EA024394F86F2643EA02626B
S3158080580046F07CFC94F8292094F8283043EA0223D9
S3158080581094F82A2043EA024394F82B2043EA0263D1
S31580805820022B34D194F8712694F870361A4943EA5B
S31580805830022394F87226284843EA024394F8732612
S3158080584043EA026246F05AFC94F8753694F87426D8
S3158080585094F8791642EA032294F8763694F8770695
S3158080586042EA034294F8783642EA006243EA0123A8
S3158080587094F87A16194843EA014394F87B1643EAEA
S315808058800163054905B0BDE8304046F037BC05B0B8
S3158080589030BD00BF3D4B8580725A85807E4B85802A
S315808058A09A4B8580B64B8580D24B8580EE4B8580A2
S315808058B00A4C8580264C8580424C85805E4C8580CE
