S00E0000752D626F6F742E73726563C0
S31580800000B80000EA14F09FE514F09FE514F09FE5B0
S3158080001014F09FE514F09FE514F09FE514F09FE5BA
S3158080002060008080C0008080200180808001808008
S31580800030E001808040028080A0028080EFBEADDEBD
S31580800040DEC0AD0B00F020E300F020E300F020E37B
S3158080005000F020E300F020E300F020E300F020E3CE
S3158080006028D01FE500E08DE500E04FE104E08DE5D6
S3158080007013D0A0E30DF069E10FE0A0E10EF0B0E1CE
S3158080008048D04DE2FF1F8DE850201FE50C0092E896
S3158080009048008DE234508DE20E10A0E10F0085E895
S315808000A00D00A0E1110700FA00F020E300F020E3C4
S315808000B000F020E300F020E300F020E300F020E36E
S315808000C004D04DE200008DE590001FE500E080E5DC
S315808000D000E04FE104E080E500E090E500009DE5EA
S315808000E004D08DE248D04DE2FF1F8DE8B4201FE515
S315808000F00C0092E848008DE234508DE20E10A0E12B
S315808001000F0085E80D00A0E1020700FA00F020E3E9
S3158080011000F020E300F020E300F020E300F020E30D
S31580800120E8D01FE500E08DE500E04FE104E08DE555
S3158080013013D0A0E30DF069E10FE0A0E10EF0B0E10D
S3158080014048D04DE2FF1F8DE810211FE50C0092E814
S3158080015048008DE234508DE20E10A0E10F0085E8D4
S315808001600D00A0E1F50600FA00F020E300F020E320
S3158080017000F020E300F020E300F020E300F020E3AD
S3158080018048D11FE500E08DE500E04FE104E08DE594
S3158080019013D0A0E30DF069E10FE0A0E10EF0B0E1AD
S315808001A048D04DE2FF1F8DE870211FE50C0092E854
S315808001B048008DE234508DE20E10A0E10F0085E874
S315808001C00D00A0E1E70600FA00F020E300F020E3CE
S315808001D000F020E300F020E300F020E300F020E34D
S315808001E0A8D11FE500E08DE500E04FE104E08DE5D4
S315808001F013D0A0E30DF069E10FE0A0E10EF0B0E14D
S3158080020048D04DE2FF1F8DE8D0211FE50C0092E893
S3158080021048008DE234508DE20E10A0E10F0085E813
S315808002200D00A0E1D90600FA00F020E300F020E37B
S3158080023000F020E300F020E300F020E300F020E3EC
S3158080024008D21FE500E08DE500E04FE104E08DE512
S3158080025013D0A0E30DF069E10FE0A0E10EF0B0E1EC
S3158080026048D04DE2FF1F8DE830221FE50C0092E8D2
S3158080027048008DE234508DE20E10A0E10F0085E8B3
S315808002800D00A0E1D50600FA00F020E300F020E31F
S3158080029000F020E300F020E300F020E300F020E38C
S315808002A068D21FE500E08DE500E04FE104E08DE552
S315808002B013D0A0E30DF069E10FE0A0E10EF0B0E18C
S315808002C048D04DE2FF1F8DE890221FE50C0092E812
S315808002D048008DE234508DE20E10A0E10F0085E853
S315808002E00D00A0E1B30600FA810700EA00000FE165
S315808002F01F1000E21A0031E31F00C0131300801321
S31580800300C00080E300F029E1100F11EE020AC0E3FD
S31580800310100F01EE8C009FE5100F0CEE330400EB7E
S31580800320150F07EE4FF07FF56FF07FF51EFF2FE1FB
S31580800330EDFFFFEA0000A0E3170F08EE150F07EE2A
S31580800340D50F07EE4FF07FF56FF07FF5100F11EE2A
S31580800350020AC0E30700C0E3020080E3020B80E369
S31580800360010A80E3100F01EE0E50A0E1101F10EEFF
S31580800370213AA0E10F3003E20F4001E20322A0E19F
S31580800380022084E120009FE50700C0E300D0A0E141
S31580800390300F11EE400080E33E002DE90D0400FB16
S315808003A03E00BDE805F0A0E10000808000FF30407F
S315808003B070470148704700BF03000080004870473F
S315808003C00300008000487047030000800048704723
S315808003D00300008000487047030000800048704713
S315808003E00300008000487047030000802DE9F041BB
S315808003F01B4A136883B389B30D6835B910F0010F32
S31580800400184818BF0020BDE8F0814FF0000C674681
S31580800410D2F804E0D2F80880BE4501D11248F2E7CE
S31580800420D3E90260B5427CEB000212D3D3E906247D
S31580800430240344EA12541203921940EB0400954235
S315808004407CEB000005D21B6900202B449B1B0B6034
S31580800450D9E701374344DFE70448D4E70148D2E748
S31580800460C00C8080020000800E0000800300008027
S3158080047010B5044600202146E268206100F0B2FB78
S31580800480206110BD01380A44914200D1704711F82D
S31580800490013B00F8013FF7E70448054B10300364C1
S315808004A0044B8361044BC361FFF7E2BFC00C80803D
S315808004B0B1038080B3038080BD0380802DE9F04DB9
S315808004C006460C462B4DDFF8B0802C4F454505D32C
S315808004D02B4B1E60BDE8F04D00F042BED9F830301F
S315808004E0D5F800A003F1FF4C0AEB0C005CB1254BDC
S315808004F0984202D3343398421FD9234B98421CD0DA
S31580800500043B984219D02A79172A11D11C4B5AF864
S315808005100C201B68F31A13448CB900F143014AF806
S315808005200C3021F03F0120F03F0000F047FE04E0D0
S315808005300023394615484BF0B7F80835C6E70022C0
S31580800540D4E904BE5B4572EB0E020DD3D4E9061264
S31580800550120342EA1152090311EB0B014EEB020E94
S3158080056099427EF1000ED8D20246394608484BF031
S315808005709BF8E2E7D4BC8680C4BD8680B02985801E
S31580800580C08E8680E80C80805C0C8080F00B8080BA
S31580800590120C808030B5042585B0029500251446DE
S315808005A00195089D009500F049F90CB12378236068
S315808005B005B030BD042300F0F1B80000F0B50446E4
S315808005C0154600F11F0600F10F0201200139B24263
S315808005D000D078B904F120010A4631F8026B18B14F
S315808005E02888871B784278417EB12A88002AF3D072
S315808005F00235F1E712F8010F11F8017FA0EB070CA5
S31580800600DCF1000040EB0C00E1E72BB121680A4465
S31580800610093222F007021A6008B1014B1C60F0BDD6
S31580800620280D808010B5044C0020211DFFF7DEFE4A
S315808006300023236010BD00BF280D808010B504463E
S3158080064050B14FF0FF31203000F04FFA246804EB30
S315808006504004293424F0070010BD18232DE9F34D7A
S31580800660264D9346AB616B680F461A69044603F143
S31580800670180603EB020808B100F1180A46450BD329
S31580800680AA693B6834BB1E481E499A4288BF084681
S315808006903A6002B0BDE8F08D3046FFF7CFFF7368D1
S315808006A002463BEA030306EB000301D01E46E5E7DC
S315808006B0A8691044A861002CF8D039688842F5D89A
S315808006C050463146CDE90023FFF7DCFE009A019B38
S315808006D09244EBE79A420ED8183A04F1180100202A
S315808006E000F080FA1822E86107492046FFF7CAFEA3
S315808006F00020AA69CCE70348CAE700BF280D80801E
S315808007000200008005000080300D80802DE9F7454D
S31580800710214C154663680A881E6980460F461E44AA
S3158080072062B925B90024204603B0BDE8F085183328
S31580800730B3422B60F6D300242C60F4E7206868B13E
S315808007400A462B464146FFF739FF38B125B12B68DB
S31580800750B34224BF00232B602468E4E7646818349E
S31580800760A64215D94FF0000A01AB3A46414620464B
S31580800770FFF724FF019BB34228BFCDF804A020B1A8
S31580800780002DD0D0019B2B60CDE7019C002CEBD136
S31580800790002DD0D1C6E700BF280D80802DE9F34D8E
S315808007A00E4617461C460546B8B3B1B3AAB3296828
S315808007B030464FEA5108414600F097F940452CD0A3
S315808007C03146384601AAFFF7A1FF08B9338823BB93
S315808007D0DDF80480B8F1000F24D008F120010A46A4
S315808007E032F802ABBAF1000FFAD1D5F800B0521ABE
S315808007F05A452A6018D83046FFF744FE102238467C
S3158080080008EB0201FFF73EFE44B1D8F8043034EAA3
S3158080081003030BD0C5F800B0C9E7054C204602B06B
S31580800820BDE8F08D034CF9E7034CF7E75446F5E7CE
S31580800830020000800E000080050000802DE9F04DCA
S315808008400646DDE9088A084617461D46DDF828B043
S3158080085016B92248BDE8F08D0029FAD0002BF8D051
S3158080086000223146FFF752FF0446002831D0BBF183
S31580800870000F03D043683BEA03032AD10FB1636834
S315808008803B60BAF1000F03D0D4E90223CAE9002382
S315808008904FF0FF323046124900F016F930B92946BA
S315808008A04046BDE8F04D0122FFF7D7BE2B6822680F
S315808008B09A422A600FD8B8F1000FCAD004F120017D
S315808008C031F8024B002CFBD14046FFF7DBFD2046FA
S315808008D0C0E70448BEE70448BCE700BF020000804A
S315808008E03E0C80800E00008005000080F8B518B32D
S315808008F0124C21686668814228BF0021336928BFEF
S315808009002160F21800F1200131F8025B002DFBD1C5
S31580800910076803440737394421F007015B1A521A66
S315808009203361FFF7AFFD64682846226904F11801B8
S31580800930183A00F057F96061F8BD00BF280D8080B5
S315808009402DE9FF4DDFF8A8A08B46DAF804604FF0DA
S31580800950FF311D46D6F810800392019000F0C5F8CD
S3158080096006EB080707F12003441C6200DAF80410BE
S3158080097003EB440402930D9B0092591A2944214427
S31580800980B1F5003F32D8DDE91001039A7A60EA1822
S3158080099046F808201022C7E90201B8185946FFF7A1
S315808009A071FD029B009A18460199FFF76BFD2A46D6
S315808009B020460C99FFF766FD60190D9A0E99FFF710
S315808009C061FD56F80820DAF804500732224422F076
S315808009D00702521B2A610020183A05F1180100F09F
S315808009E001F96861002004B0BDE8F08D0148FAE71E
S315808009F0280D808009000080074B00215B6818697C
S31580800A0000F12003B3F5003F36BFC0F5FF300020EC
S31580800A1000F5F070704700BF280D808000487047D1
S31580800A20030000801FB500240294079C0194069CD5
S31580800A300094FFF703FF04B010BD0023FFF7AEBE1E
S31580800A4070B516461D4601B3FAB1F3B1E8B1C30657
S31580800A5019D410F0FF0316D0012B16D000F00603B0
S31580800A60042B12D030F0FF040FD10023084AC1E94D
S31580800A700023FFF7C1FF0023064AC6E90001C5E9C6
S31580800A800023204670BD044CFBE7044CF9E700BF89
S31580800A90E8FF0100C8FF010003000080020000809B
S31580800AA010F0040F10B405D010F0B00F05D110BC33
S31580800AB0FFF7C6BF024810BC70470248FBE700BFFD
S31580800AC0020000800300008070B505460024A242A3
S31580800AD001D1002008E035F8146031F81430F01A1E
S31580800AE002D10134002EF2D170BD034600208842A7
S31580800AF002D033F8102002B970470130F7E7000042
S31580800B00F0B5364B1C6814B300274FF0004C3C463A
S31580800B101E1D16F8015B01342CFA05F50E2C47EA6A
S31580800B200507F6D10026DFF8B8C03446082504F0DC
S31580800B30010E6408BEF1000F00D07C40013DF6D1E5
S31580800B400136B6F5807F4CF8044BEED11D608D075B
S31580800B500ED06AB111F8014B013A84EA0004E4B2FE
S31580800B6003EB8404646984EA102001D08C07F1D178
S31580800B700E4602F0030422F003025718B74211D1C1
S31580800B80043A11446CB1E21CCD1C114415F8012F36
S31580800B904240D2B203EB820252698D4282EA1020B1
S31580800BA0F4D1F0BD56F8045B6840C5B203EB850589
S31580800BB06D6985EA1025E8B203EB8000406980EA9A
S31580800BC01520C5B203EB85056D6985EA1025E8B2E7
S31580800BD003EB8000406980EA1520CFE7480D80804E
S31580800BE05C0D808008B5C043FFF78AFFC04308BD8F
S31580800BF025733A20556E6B6E6F776E2072656C6F3B
S31580800C00636174696F6E207479706520256C6C78E9
S31580800C100A0025733A2052656C6F636174696F6EC2
S31580800C20206174202570206973206F7574206F66AB
S31580800C302072616E67652028256C78290A005600A7
S31580800C406100720054006F00460069006C00650088
S31580800C500000000000000000580C8080580C8080C6
S31580800C604942492053595354640002004800000089
S31580800C700000000000000000A80C80800001252074
S31580800C80000000000000000000000000000000005E
S31580800C900000000000000000D00C80800000000072
S31580800CA00000000000000000440061007300200006
S31580800CB055002D0042006F006F0074000000000018
S31580800CC0000000000000000000000000000000001E
S31580800CD052554E54534552566400020050000000CF
S31580800CE0000000000000000065DC838051DC83808A
S31580800CF0C5038080C5038080B1DC8380ED038080DE
S31580800D00B3E1838025E28380E9E18380C5038080A7
S31580800D1009DC8380CD038080D503808045E2838013
S31580800D20200D8080200D8080000000000000000063
S31580800D30000000000000000055624566695661012A
S31580800D400000000000000000010000000001020495
S31580800D500507080A0B0C1016171A00000000000001
S31580800D60000000000000000000000000000000007D
S31580800D70000000000000000000000000000000006D
S31580800D80000000000000000000000000000000005D
S31580800D90000000000000000000000000000000004D
S3098080115CFFFFFFFF8D
S31580801160002307EE153F07EED53FBFF34F8FBFF3C2
S315808011706F8F704770477047704708B500F0AAE850
S31580801180BDE80840FFF7F8BF704708B500F0F8E87B
S31580801190BDE80840FFF7F8BF08B5FFF7EBFFFFF71C
S315808011A0F4FF002308EE173F08EE163F08EE153F42
S315808011B0BFF34F8FBFF36F8F08BD704738B5044636
S315808011C00D4600F037FE30EE103F012203F0070314
S315808011D004339A40534223409D4207D8BFF34F8FB2
S315808011E029462046BDE83840FFF7E7BF07EE3E3FF9
S315808011F01344F1E7704770B504460D4600F01AFE39
S3158080120030EE106F2946204600F014FE38B1012258
S31580801210234606F007060436B2409D4207D8BFF3C0
S315808012204F8F29462046BDE87040FFF7E3BF07EE23
S31580801230363F1344F1E700005FF07FF5300F30EEE4
S31580801240A03BA0E10E3013E21C00000A00A0A0E3C0
S31580801250AA208AE03012A0E1071001E2020051E361
S31580801260130000BA10AF40EE6FF07FF5101F30EE9E
S31580801270072001E2042082E2FF4300E3A14114E0DB
S31580801280145F6FE1FF7F07E3A17617E00790A0E107
S315808012901465A0E106B08AE11962A0E106B08BE10F
S315808012A05EBF07EE019059E2F8FFFFAA014054E243
S315808012B0F5FFFFAA02A08AE20A0053E1E3FFFFCA94
S315808012C000A0A0E310AF40EE4EF07FF56FF07FF583
S315808012D01EFF2FE1F04E2DE9D6FFFFEBF04EBDE8E5
S315808012E01EFF2FE15FF07FF5300F30EEA03BA0E14F
S315808012F00E3013E21C00000A00A0A0E3AA208AE038
S315808013003012A0E1071001E2020051E3130000BA17
S3158080131010AF40EE6FF07FF5101F30EE072001E2B0
S31580801320042082E2FF4300E3A14114E0145F6FE171
S31580801330FF7F07E3A17617E00790A0E11465A0E11F
S3158080134006B08AE11962A0E106B08BE156BF07EE4E
S31580801350019059E2F8FFFFAA014054E2F5FFFFAA07
S3158080136002A08AE20A0053E1E3FFFFCA00A0A0E35D
S3158080137010AF40EE4EF07FF56FF07FF51EFF2FE1C8
S31580801380F04E2DE9D6FFFFEBF04EBDE81EFF2FE134
S31580801390704710B5044600F0E0FBE3070DD500F0FA
S315808013A0D2FDFFF7E8FEFFF7F0FE00F07EFDFFF747
S315808013B0D7FEFFF7EDFF002010BD00F076FDFFF72A
S315808013C0CFFEFFF7DAFEFFF7CBFE00F065FDF0E794
S315808013D00320FFF7DEBF4EF047B901EE300F70472E
S315808013E0100F11EE0200C0E3100F01EE1EFF2FE1F9
S315808013F078009FE50700C0E300D0A0E1664900FA47
S3158080140000D0A0E10090A0E1664900FA0000A0E348
S315808014106C5200FA380099E50700C0E300D0A0E15D
S31580801420049099E50CE08FE23C0099E500E08EE03F
S31580801430300099E51F0000EA1B0000EBB7FBFFEB4D
S315808014402C009FE52C309FE50010A0E3002053E020
S31580801450BA0000FAEC5100FAEB5100FB0900A0E1DA
S31580801460301099E510E09FE51EFF2FE110ECFFFF1D
S3158080147000FF3040C4BD8680786D8780755F8180AF
S315808014800DC0A0E1F05F80E80000A0E31EFF2FE1A1
S31580801490F05F90E80CD0A0E10100A0E1000050E36D
S315808014A00000001A0100A0E31EFF2FE1300099E5BD
S315808014B0100F0CEE1EFF2FE108304FE264109FE57F
S315808014C0031081E0014050E01500000A54109FE52A
S315808014D0031081E050209FE5032082E0000CB1E874
S315808014E0000CA0E8020051E1FBFFFF3A3C109FE52B
S315808014F0032081E038109FE5033081E00300B2E865
S31580801500FF1001E2170051E30300001A040080E017
S31580801510001090E5041081E0001080E5030052E120
S31580801520F5FFFF3A1EFF2FE148EBFFFF0CA906006F
S315808015300CA90600A4970700F0B591B06D4608AC5B
S31580801540294622460026D9F8003003F1200CDF6B2D
S315808015500833C5E900769F6B6345C4E9007605F15B
S31580801560080504F10804F2D1042306F0A1F911B02C
S31580801570F0BD704773B5D9F8003005465B6BD0F8FF
S31580801580946017480C4601932CF08AFF48B110214D
S3158080159001AA4AF01EF900281CDB019911484AF0FD
S315808015A083F8FFF7E6FF104B104904F40074002C93
S315808015B008BF19460E484AF077F81CF0D1FFFFF72E
S315808015C007FFD5F8A4303BB1D5F8A02014B92046C2
S315808015D00199B04702B070BDD9F800309A6BF5E7B3
S315808015E0163B85801D3B858017F18580FF3A8580F7
S315808015F0423B85807047000010B5044609482CF030
S315808016004FFFD4F8A43033B1204603F0FDF920B1E2
S31580801610054849F0F5FA0548FBE72046BDE81040C5
S31580801620FFF7E8BF7B7F85805B3B8580703B8580CD
S31580801630F8B510F0C00704460D6914D110F4807691
S3158080164005D02846FFF7D8FF3E463046F8BD10F4D1
S31580801650C06F04D021462846FFF78CFFF5E72846E1
S31580801660FFF7CAFFF6E74FF0FF36EEE710B5044680
S31580801670D0F8A00060B108493EF010FF002807DD51
S31580801680D4F8A000FFF758FF10B1044816F06FFF1A
S31580801690BDE81040FFF79CBE973B85809F3B858049
S315808016A0D0F89430D0F8A0001847000010B590F894
S315808016B0254090F8243043EA042390F8264043EA74
S315808016C0044390F8274043EA0463184CA34207D02A
S315808016D0174CA34204D0174816F049FF012010BD4D
S315808016E090F8294090F8283043EA042390F82A40DD
S315808016F043EA044390F82B4043EA04630B6090F8F6
S315808017002D4090F82C3043EA042390F82E4043EA0B
S31580801710044390F82F4043EA046313600A680146C5
S31580801720054849F0C1FF0020D9E700BF18286F011E
S31580801730626F7800DA4B8580EE4B858000000000F2
S3158080174010F0030384463DD141EA012141EA0141FB
S315808017500B46102A1FDB2DE9004188468E46403A8B
S31580801760A1BFACE80A41ACE80A41ACE80A41ACE8E2
S315808017700A41F4DC08BFBDE8008112F0200F1CBF4F
S31580801780ACE80A41ACE80A4112F0100F18BFACE809
S315808017900A41BDE8004112F0080F18BFACE80A0084
S315808017A012F0040F18BF4CF8041B12F0020F1CBFF6
S315808017B00CF8011B0CF8011B12F0010F18BF0CF8F6
S315808017C0011B7047043AF0DB022BB8BF0CF8011B73
S315808017D0D8BF0CF8011B0CF8011B1A44B4E700BF74
S315808017E0884208BF70472DE91140043A4BDB10F0E0
S315808017F0030C91F800F05AD111F0030C71D11C3A88
S315808018002DE9E00114DB91F800F0603A91F81CF044
S3158080181005DB91F83CF091F85CF091F87CF0B1E8CA
S31580801820F851203AA0E8F851F7DA12F1600FF6DA2B
S3158080183012F01C0CCCF1200C18BFE74421E0AFF3EA
S31580801840008051F8043B51F8044B51F8045B51F801
S31580801850046B51F8047B51F8048B51F804EBE74410
S3158080186000BFAFF3008040F8043B40F8044B40F85B
S31580801870045B40F8046B40F8047B40F8048B40F8A6
S3158080188004EBBDE8E001D20718BF11F8013B24BF05
S3158080189011F8014B11F801CB18BF00F8013B24BF2A
S315808018A000F8014B00F801CBBDE811407047CCF1C0
S315808018B0040CBCF1020FC8BF11F8013BA8BF11F818
S315808018C0014B11F801EBC8BF00F8013BA8BF00F8B7
S315808018D0014BB2EB0C0200F801EBD4DB11F0030C68
S315808018E08DD021F00301BCF1020F51F804EB4ED06C
S315808018F000F39A801C3A39DB2DE9E00391F800F0F9
S31580801900603A91F81CF005DB91F83CF091F85CF038
S3158080191091F87CF0F0C94FEA1E23203AB1E8005353
S3158080192043EA04634FEA142444EA05644FEA1525A2
S3158080193045EA06654FEA162646EA07664FEA17277E
S3158080194047EA08674FEA182848EA09684FEA19295A
S3158080195049EA0C694FEA1C2C4CEA0E6CA0E8F81315
S31580801960D6DA12F1600FD5DABDE8E00312F01C0CEE
S315808019700AD04FEA1E2351F804EBBCF1040C43EAEB
S315808019800E6340F8043BF4DCA1F103017BE71C3A4B
S3158080199039DB2DE9E00391F800F0603A91F81CF08C
S315808019A005DB91F83CF091F85CF091F87CF0F0C919
S315808019B04FEA1E43203AB1E8005343EA04434FEA94
S315808019C0144444EA05444FEA154545EA06454FEAFC
S315808019D0164646EA07464FEA174747EA08474FEAD8
S315808019E0184848EA09484FEA194949EA0C494FEAB2
S315808019F01C4C4CEA0E4CA0E8F813D6DA12F1600F34
S31580801A00D5DABDE8E00312F01C0C0AD04FEA1E43FB
S31580801A1051F804EBBCF1040C43EA0E4340F8043BD6
S31580801A20F4DCA1F102012EE71C3A39DB2DE9E003D3
S31580801A3091F800F0603A91F81CF005DB91F83CF063
S31580801A4091F85CF091F87CF0F0C94FEA1E63203AF9
S31580801A50B1E8005343EA04234FEA146444EA052438
S31580801A604FEA156545EA06254FEA166646EA072651
S31580801A704FEA176747EA08274FEA186848EA09282D
S31580801A804FEA196949EA0C294FEA1C6C4CEA0E2CFC
S31580801A90A0E8F813D6DA12F1600FD5DABDE8E00354
S31580801AA012F01C0C0AD04FEA1E6351F804EBBCF18D
S31580801AB0040C43EA0E2340F8043BF4DCA1F10101D7
S31580801AC0E1E600BF40F60562D9F8003000205A630F
S31580801AD07047000008B5D9F800300E48596B08F079
S31580801AE06FFC0D48D9F8901008F06AFC0B48D9F83D
S31580801AF0341008F065FC0A48D9F8381008F060FC84
S31580801B00BDE808404FF40052D9F8D410054849F012
S31580801B10CBBD00BFB5328580C1328580CA32858093
S31580801B20D1328580DB328580D9F838200020C9F88B
S31580801B303420D9F83820103AC9F8382070473BF0DD
S31580801B40FDB90000D9F83430024A0833002013608A
S31580801B50704700BF4000808070470020704700003B
S31580801B6008B5014849F04CF8973385802DE9F045D2
S31580801B700446A3B080224D4902A8FFF731FEA26BAE
S31580801B80E16B4B48256C49F08FFDD9F8202005F014
S31580801B907046D2070AD5D9F83C10A06BD9F83C207C
S31580801BA0E36B821A591A434849F07EFDE36A226BB9
S31580801BB0616B414849F078FD236A626AA16A3F4831
S31580801BC049F072FD23693E4800936369A269E169A1
S31580801BD049F06AFD23683B480093E1686368A268A0
S31580801BE049F062FD002EB4BF4E216E2115F0804FE4
S31580801BF014BF5A227A2215F0005F14BF43236323D1
S31580801C0015F0805F14BF5620762000902E4849F0CC
S31580801C104BFD236C2D4A2E4813F0800F14BF01464E
S31580801C20114613F0400F18BF024622AD03F01F0005
S31580801C3005EB8000274D13F0200F274B08BF2B46DE
S31580801C40009350F8803C254849F02EFD276CE56B43
S31580801C5017F0200716D1082625F0030515E035F8FC
S31580801C601420002C0CBF40465046314649F01CFD5E
S31580801C70013413E0022CF2D1194823B0BDE8F04537
S31580801C8049F012BD042625F00105164849F00CFD61
S31580801C906FF00304DFF85080DFF850A0002FE9D181
S31580801CA0002CE9DC55F82420DBE700BFB8F6848079
S31580801CB078068680720686809A068680BE068680AC
S31580801CC0E206868012078680420786804C6A8680F6
S31580801CD02B7A858017F185805F068680520786807D
S31580801CE0D7F7858071078680640686806C068680B5
S31580801CF0044608B535F058FD064849F0D5FCE36BB7
S31580801D002046043BE363FFF731FFE06BFFF717FF65
S31580801D10FFF726FFC9998580044608B535F044FDCE
S31580801D20064849F0C1FCE36B2046043BE363FFF73A
S31580801D301DFFE06BFFF703FFFFF712FFBF978580DC
S31580801D40044608B535F030FD064849F0ADFCE36BB6
S31580801D502046083BE363FFF709FFE06BFFF7EFFE62
S31580801D60FFF7FEFEDF968580044608B535F01CFDBC
S31580801D70064849F099FCE36B2046083BE363FFF70E
S31580801D80F5FEE06BFFF7DBFEFFF7EAFE25808580B8
S31580801D90044608B535F008FD064849F085FCE36BB6
S31580801DA02046083BE363FFF7E1FEE06BFFF7C7FE63
S31580801DB0FFF7D6FE0C968580044608B535F0F4FC90
S31580801DC0064849F071FCE36B2046083BE363FFF7E6
S31580801DD0CDFEE06BFFF7B3FEFFF7C2FE18888580E5
S31580801DE0044608B535F0E0FC064849F05DFCE36BB7
S31580801DF02046083BE363FFF7B9FEE06BFFF79FFE63
S31580801E00FFF7AEFE1D8885807047000008B50648BE
S31580801E1016F0ADFB16F0C8FBFFF79FFEFFF7F4FFC9
S31580801E2000F034F9002008BD879785800144FFF74C
S31580801E30C5B9000008B540EA01039B060A4605D06D
S31580801E400146034849F030FC002008BD0120FCE7AC
S31580801E502B4C85804FF48042C9F89420D9F8941011
S31580801E60D9F830200020521AC9F83020D9F830208D
S31580801E70120C1204C9F83020D9F83020C9F8902085
S31580801E807047FFF7E7BFD9F8903041EA005141F4B7
S31580801E90406143F82010704711EE103F43F4805321
S31580801EA001EE103FBFF36F8F704711EE103F11EE3A
S31580801EB0103F23F4805301EE103FBFF36F8F70473E
S31580801EC011EE100FC0F30030704710B511EE104F31
S31580801ED014F001042ED1FFF75FF9204612210134D8
S31580801EE0FFF7D1FFB4F5805FF7D1002000F0EEF8E0
S31580801EF0012000F0EBF8022000F0E8F8032000F0E3
S31580801F00E5F8002302EE503FD9F8903023F47F53D2
S31580801F1023F03F0343F0590302EE103F4FF05533D1
S31580801F2003EE103F11EE103F43F0010301EE103FA8
S31580801F30BFF36F8F11EE103F43F0040301EE103F25
S31580801F40BFF36F8F10BD10B511EE103F5B0709D5BB
S31580801F5011EE104FFFF711F924F0050401EE104FB2
S31580801F60BFF36F8F10BD11EE100FC0F380007047E6
S31580801F70034BD3F80006BFF35F8F000F704700BF17
S31580801F800000E144034BD3F80006BFF35F8FC0F3B4
S31580801F900F3070470000E14438B5FFF7F3FF4BF60A
S31580801FA04413984223D04BF68C13984222D04BF61A
S31580801FB01E01144C144B154A884208BF1C46FFF7F5
S31580801FC0D7FF022819D8FFF7D3FF52F8205000F0A8
S31580801FD067F8032813D800F063F80D4B53F8202058
S31580801FE02B4621460B4849F05FFB002038BD074AC7
S31580801FF0094CE4E7094A0A4CE1E70A4DE7E7094AD2
S31580802000EEE700BF34FD858026FD85803878868022
S31580802010E8FD848045FD85801FFD858044788680A7
S315808020202DFD85809291858008B500F025F8002069
S3158080203008BD4FF0804108B54FF0004017F077FB20
S31580802040C9F81800002008BD4FF00041D9F800205B
S315808020500020D163D9F80020D9F8183013647047EE
S3158080206013B5482001A91CF06FFD044608B926F0F7
S315808020705BFC204602B010BD024B034A1B681A6087
S31580802080704700BF5078868040F98480BFF35F8F29
S315808020900122024BC3F8002F704700BF0000E04446
S315808020A0044B1B681B681B681868BFF35F8FC0F37F
S315808020B0022070475078868008B5FFF701FF08B9FF
S315808020C0FFF7EAFEBDE80840FFF7FFBE38B5D9F8CE
S315808020D0003003EBC000056CC46B2D0D05EB1455E9
S315808020E0240DA54200D838BD20460E21FFF7CBFEB1
S315808020F00134F6E754109FE5000081E57AF8FFEA1F
S31580802100F05F2DE900C0A0E10100A0E14FF07FF5EE
S315808021105FF07FF5700060E1F09FBDE8F05F2DE9AC
S31580802120FF60A0E300C0A0E34FF07FF55FF07FF50E
S31580802130700060E1040000EA00F020E3FEC0A0E3C6
S315808021404FF07FF55FF07FF5700060E1F09FBDE82E
S3158080215024B430402DE9F04D04460027DFF8DCA01A
S31580802160DFF8DC808AB03A46514606A849F07CFA88
S31580802170204606A93EF09FF98346B0B301462046A5
S315808021803EF08CF9061E30DB314620463EF047FA1B
S315808021900022014620463DF091FF4CF0C3FE20B3DD
S315808021A0394623F035FC0223054600934246314664
S315808021B0204604AB46F0B1F802281DD1059AAA4282
S315808021C013D02B4606A91F4849F06EFA049B082136
S315808021D01BBA049300232DBACDE900134246594693
S315808021E0204604AB059505F049FB1FB100200AB057
S315808021F0BDE8F08D0127B6E731462046124A46F083
S3158080220061F8061EF1DB114A6FF0010331462046E4
S315808022103FF030FD021EE8DB9542E6D02B4606A9CC
S315808022200B4849F041FA0423314600932046074AF9
S3158080223003AB03953EF067FDD7E700BF4ACF858025
S3158080224055CF85805CCF858087CF858092CF85806E
S3158080225096CF8580D9F80030014A00209A637047EE
S315808022600001008030B585B0FFF71AFF022803D1C0
S315808022703E493F482CF0C4F83E4BD3F83026BFF316
S315808022805F8FD3F83436BFF35F8F3B480293ADF8C8
S315808022900C202CF005F9D0B9384849F005FA9DF81C
S315808022A00830D90713D49DF8092013439DF80A2056
S315808022B013439DF80B2013439DF80C2013439DF800
S315808022C00D20134303D02C4802A92CF03BF9294BCF
S315808022D0D3F83826BFF35F8FD3F83C36BFF35F8F52
S315808022E027480293ADF80C202CF0DAF8B8B99DF81F
S315808022F00830DA0713D49DF8092013439DF80A2005
S3158080230013439DF80B2013439DF80C2013439DF8AF
S315808023100D20134303D01A4802A92CF013F91949CA
S3158080232019482CF06DF819482CF0BAF860B918481D
S315808023302CF0B6F8044610482CF0B2F805465CB905
S31580802340294612482CF05CF8002101AA1E201CF038
S315808023507FFB002005B030BD072220460D4948F01E
S315808023602FF90028ECD02146EBE700BF860A8680CD
S31580802370DD3685800000E144E6368580EE368580D0
S315808023801E378580DD5A8680273785802F378580E2
S31580802390373785804437858010B514461A46029B28
S315808023A08A42134408D88B420CD90146084849F0A2
S315808023B07BF96FF0110010BDA242F6D3A342F4D907
S315808023C00020F8E7A242FBD2A342F9D3EDE700BF13
S315808023D0604C85802DE9D04D2F4C8046E06F89B04A
S315808023E00E4692461F46DDF840B078B930462B4976
S315808023F0022200910B1F002E18BF30469C3902F0B6
S315808024002DF980B1264816F0B2F826E002F008F958
S315808024100328EBD1404649F071F9014603A848F07C
S315808024208DF803A8E3E7D4F89810D4F89C2061B996
S315808024301C4B51461A1F0193009240460222A43BB0
S3158080244005F03EFD68B11848DDE73B461748CDF874
S3158080245000B0FFF7A1FF0028EAD0012009B0BDE8CF
S31580802460D08DD4F8A010D4F8A42061B9D4F8A00077
S315808024700AF03EFD084802F055FA0028EED00C4856
S3158080248049F012F9E9E73B460A48CDF800B0FFF7F4
S3158080249083FF0028E1D1E9E7C4BD868060BE86805F
S315808024A0AD3F858068BE8680D53F8580D23F8580DA
S315808024B0F93F8580C9C98580FFF74FBB2DE9F04DEF
S315808024C00469CF07D4F8C030064643EA01030D4637
S315808024D08EB0C4F8C0300DD5AD4FC42200213846A9
S315808024E0FFF72EF9AB482CF061F80123C7F8BC00C2
S315808024F0C7F8C030280504D5306810B1002149F06E
S3158080250062F9A90740F193814FF0000B0DAA0CA9BF
S315808025103068CDE90CBBD6F814A002F057F89C4FF2
S315808025208046C7F888B0C7F884B002F079F8022868
S3158080253000F0A080032800F0B980012840F0CB808D
S315808025404146954849F0B0F8D8F80020934BD7F8A3
S31580802550BCB09A4205D0924816F009F86FF0150102
S31580802560C2E0404601F0EEFD08B98E48F4E7404669
S3158080257001F0F2FEBBF1000F0DD08B4815F0F7FF0E
S31580802580404601F0F4FD18B9884849F08DF8E5E7B2
S31580802590874815F0ECFF98F81D10022903D08548EE
S315808025A049F082F8DAE7B8F1000FD7D098F81E3074
S315808025B0042B11D00ED8012B02D0022B40F08B80B9
S315808025C008F14003C7F88430D8F80C301BBAC7F8B6
S315808025D0883007E00E2BF1E7774B002140461A1FA3
S315808025E001F0DFFD40224146744848F0AFF8012370
S315808025F0C7F800807B64404602F012F8022878D0C3
S31580802600032800F0A780012840F0C080002098F839
S315808026101E3087F8913098F81F3087F8903098F878
S315808026201C3087F89230D8F80C301ABA08F14003FB
S315808026301344C7F88030D8F810301BBAC7F88C306E
S3158080264098F81D3087F8933097F89330032B02D013
S31580802650182B40F0D5805A4A03210DABA2F1940005
S3158080266002F05EF9002880F2D380023000F0D080BC
S31580802670544845E007F18803059307F18403049362
S31580802680642301900293009041463846CDF80CB081
S315808026900CAB0DAA06F06EFD002823DB0D9BC7F8D8
S315808026A04C803B650C9B7865BB64A4E74146464875
S315808026B048F0FAFF07F18803009359464046D7F8D9
S315808026C0BC2007F1840302F029FE0146002892D0BF
S315808026D010F15B0F08D151463C4848F0E5FF6FF01A
S315808026E05A0101E06FF00101394848F0DDFF01278A
S315808026F016E1384A796DF86C05F0C6FE18B1364811
S3158080270015F035FFF3E7354A796DF86C05F0D0FE24
S3158080271008B13348F4E7334A796DF86C05F08CFE5E
S3158080272008B13148ECE7314A796DF86C05F098FE4E
S3158080273008B12F48E4E7F86C06F0DCFA2D4AC7F832
S315808027408000796DF86C05F0DBFE00283FF47CAF65
S315808027502948D5E702230021404687F8913002F048
S31580802760BBFD0523002187F89000404687F892308C
S3158080277002F0A0FD0021C7F88000404602F08CFE62
S31580802780C7F88C00C7F8940001205DE71B48B7E73F
S31580802790C4BD86801B458580224585802705195640
S315808027A02CDA858041DA85805445858059DA858022
S315808027B06F458580734585804CBE8680C8BD868002
S315808027C058BE8680A346858092458580BB45858018
S315808027D0DC45858055BE86800046858054BE868051
S315808027E01746858056BE86803546858057BE8680CC
S315808027F04A46858050BE86806146858080468580B3
S315808028007B6C002B00F09080BB691BBAC7F8943034
S3158080281097F891300E2B08D1D7F88420D7F894304A
S31580802820C7F88C201344C7F89430C7F87C806A0731
S3158080283024D53068002800F08880002148F0C3FFC6
S31580802840AB4F716897F891C0B268BCF10E0F15D8FE
S31580802850A84B43FA0CF3DB0710D497F89270052FB8
S3158080286005D01C2F0AD8A44BFB40DF0706D5002352
S315808028700093FFF7AFFD0746002851D115F0080871
S3158080288000F09E80FFF769F9E36F80460893D4F85D
S315808028908030D4F884B00993D4F88C30D4F88820EA
S315808028A0079394F8913094F890A00E2B50D1BAF17A
S315808028B0000F4DD0900000F57F2000F6FF70000D50
S315808028C04FF4001100050B930A9247F057F907469B
S315808028D0002800F006810A9A0B9BC4F894000DA903
S315808028E004914FF40001029203915A46394650462C
S315808028F0CDE9007B01F0C2FC0D9900283ED007907F
S315808029005046CF1B01F01EFD079A014612F1260F15
S3158080291020D1B8F1000F01D0FFF71EF96FF00207C2
S3158080292038460EB0BDE8F08D3B6D4BB1734A796DFC
S31580802930F86C05F0EBFD00283FF46AAF7048DFE65F
S3158080294000287FF465AF6F48DAE66F4B186877E7C3
S31580802950079FC4E7B7F5000F0CD36C4848F0A4FEF8
S315808029606B4848F0A1FEB8F1000F00F091804FF0DF
S31580802970FF3785E0674848F097FEF1E7079B23F0AD
S315808029803F00CB1B3F3121F03F01091AC4F88830C4
S31580802990FFF74CFA0D99BAF1000F01D1BB4548D0AB
S315808029A0099BBB4245D9089B8B4242D2636C002BE4
S315808029B03BD094F82230042B02D1574815F0D7FDAE
S315808029C0EB0617D5D4F89800D4F89C1004F1AC03A4
S315808029D004F1A802091A01F051FF074600289FD109
S315808029E0D4F8A8104D482BF039FDD4F8AC104C485B
S315808029F02BF034FDAF0622D494F8920000F09EFA34
S31580802A00824650BB15F4F86F27D0B8F1000F01D0FD
S31580802A10FFF7A2F894F8920001F012FC94F89220C5
S31580802A200146404848F040FE61E63F4815F09FFDEC
S31580802A3099E7D4F88C00091A47F08AF8C0E7D4F869
S31580802A40A00005F013F904F1A40104F1A00005F0BB
S31580802A5071F907460028CFD062E76C0620D4280615
S31580802A6029D4E9052ED415F4806733D05246314671
S31580802A704FF4806000F04AFA0746B8F1000F01D023
S31580802A80FFF76AF8FA1C3FF449AF7B1C7FF448AFA6
S31580802A90264848F009FEFFF7F9FA4FF0FF373FE7FF
S31580802AA031464020D04707460028D8D0394620482E
S31580802AB048F0FAFD34E731468020D0470746002823
S31580802AC0CFD0F3E731464FF48070D0470746002851
S31580802AD0C9D0EBE7B8F1000F3FF422AFFFF73CF89F
S31580802AE01EE7B8F1000F3FF402AEFFF735F8FEE53A
S31580802AF0C4BD8680EBBFFFFF0040001458BE868031
S31580802B00CD468580EE46858054788680124785803E
S31580802B105B4785804247858078478580F947858071
S31580802B200648858011488580B24785805B48858048
S31580802B303F488580024B41F61F714361FFF7BEBCDB
S31580802B4062988580024B41F210714361FFF7B6BC73
S31580802B50D44B858010B5202200210446FEF7F0FDF7
S31580802B6001232373014B236110BD00BFC4BD8680C2
S31580802B7070470000B0F5806F10B50DD10B695A6C27
S31580802B8042B1D3F894400548214648F08DFDD9F866
S31580802B900000A047012000E0002010BD8D7D85804B
S31580802BA0B0F5806F08B509D1002308691A460221DD
S31580802BB0D0F8940049F060F9012008BD0020FCE738
S31580802BC0B0F5806F38B515D101230C690A48D4F8E1
S31580802BD0945084F89130294648F066FDD4F8A42034
S31580802BE0D4F888100AB1D4F8A0202846BDE83840A9
S31580802BF034F0B0BB002038BDCA7C85802DE9F04199
S31580802C0004460F4698460026151FBE4201DBBDE866
S31580802C10F0810EB104F8018B55F8041F204647F0E9
S31580802C208DFC286847F0E9FC01360444EDE7000016
S31580802C30B0F5806F70B50C4623D10E69736CA3B1E5
S31580802C4011482BF02DFC48B1002148F0BCFDA169CC
S31580802C50054661B10A23E269FFF7D0FFD6F8944032
S31580802C600A48214648F020FDA04701200AE008480E
S31580802C702BF016FC01460028F0D0284647F05EFCF3
S31580802C80ECE7002070BD00BF4A7D8580537D8580BE
S31580802C907B7F858038B50C460D692BF09DFC30B9DD
S31580802CA0D5F8881005482BF0D9FB002038BDD5F89B
S31580802CB09430E169A0699847F7E700BFC67D858033
S31580802CC030B5B0F5806F0C4687B021D10B695A6CD0
S31580802CD012B9012007B030BD02ADD3F894200D49DA
S31580802CE0284648F0C1FCE3691B68CDE90035FFF7CB
S31580802CF03AF9044608B1FFF726F900216B4602228D
S31580802D00084609F049FE002CE3D0FFF7DEF8E0E7BD
S31580802D100020DFE7C2E18580B0F5806F2DE9F34141
S31580802D200C4641D10E69736C53B396F8223037685E
S31580802D30042B27D00027A369002B2DDD0025A846EC
S31580802D40E36953F8250047F058FCA36901350130C3
S31580802D50AB428044F4DC404615F0AEFE2023E26927
S31580802D60A1690546FFF74AFFD6F894401048214668
S31580802D7048F09AFC2B463946D9F800000D4AA04780
S31580802D80012012E001AB6A460121384601F009FA3A
S31580802D90019B002BCED0CEE707482BF081FB054DDB
S31580802DA0002818BF0546DFE7002002B0BDE8F08125
S31580802DB0017D858017F185807B7F85802DE9F04533
S31580802DC0044685B047480E462BF06AFB054660B3BD
S31580802DD007464FF0000A284647F00FFC7B1B984237
S31580802DE00ED8BAF1000F20D0E20502D53E4848F0D1
S31580802DF05BFC3146204605B0BDE8F045FEF718BC41
S31580802E00B84618F8012B3D2A0DD163B117F8013CDD
S31580802E10662B08D10021404648F0D5FC10F0010F82
S31580802E2018BF4FF0010A4746D5E7E30502D52F48FC
S31580802E3048F03AFCB4F5806F51D13469D4F8A43027
S31580802E40D4F8A0000393002836D004F00FFF03A99E
S31580802E5004F1A00004F06EFF054648BBD4F8A000BC
S31580802E6004F0A8FD2946224AD4F8A0003DF0C9FF87
S31580802E70031E01DA023314D11A482BF011FB054662
S31580802E80D0B1D4F8A06047F0B8FB012318440193F1
S31580802E9000902B463046134A164904F08FFB002853
S31580802EA00ADA3DF069FD14490246144848F0FCFB75
S31580802EB0012005B0BDE8F0852046FEF7D7FBD4F823
S31580802EC0A020D4F894100E4848F0EEFB15F06CFBE9
S31580802ED02046FEF7E5FB0B4815F049FBE8E7002026
S31580802EE0E7E700BF7B7F8580CF7D8580E67D858097
S31580802EF00C7E85800B7E8580A0288580137E85804C
S31580802F00267E8580627E85807047704770B50D4647
S31580802F1004461646FFF7F8FFFFF7F7FF2946204657
S31580802F20B0472B6993F89130012B05D0B4F50070AA
S31580802F3018BF4FF0FF3070BD0020FCE7014B53F87F
S31580802F402000704718FB848007B52B2001A91BF0D1
S31580802F50FBFD28B901981BF03AF803B05DF804FBB5
S31580802F600020FAE737B5FFF7EFFF01A904462B204B
S31580802F701BF0EAFD50B95CB1019B20461B68DD6B76
S31580802F8048F081FD21462B680198984703B030BD73
S31580802F906FF01200FAE7000073B504460E461248B9
S31580802FA000212BF0A5FA054638B9104848F07CFBFD
S31580802FB06FF01504204602B070BD3146204604F07D
S31580802FC07BFD01A8019504F0E5FD08B90848EDE789
S31580802FD02046019904F0B8FD04460028EAD00548C9
S31580802FE048F062FBE6E700BFABB68580C2B68580D7
S31580802FF0F1B685800DB7858003681A780AB10A2A6A
S3158080300000D1704701330360F6E70000826801468D
S3158080301002B94268014848F047BB00BF9FE385807C
S315808030202DE9F0411F460B7804462F2B0D4690469E
S31580803030ADF5087D1AD1037BC3B100238DF81C3092
S31580803040284647F0DAFA064607A847F0D6FA0644B5
S31580803050B6F5007F11D92A46154807A948F024FB82
S315808030606FF023000DF5087DBDE8F0814FF4007286
S31580803070216907A847F06AFAE2E7294607A847F058
S3158080308071FA07A90B4848F00FFB42460A4902A805
S3158080309048F0EAFA2046656801AB02AA07A9A847E4
S315808030A00028DFDB0FB1019B3B600120DAE700BFA0
S315808030B079D1858094D18580C2E1858073B5044637
S315808030C010460D461E462BF055FA68B1102101AA8E
S315808030D048F07FFB00280ADB334629462046019A42
S315808030E0FFF79EFF02B070BD6FF00100FAE76FF0C8
S315808030F01500F7E710B50446406815F02BFCE068AC
S3158080310015F028FC206915F025FC606915F022FCF5
S31580803110A06915F01FFCE06915F01CFC206A15F08B
S3158080312019FC606A15F016FCA06A15F013FC20461F
S31580803130BDE8104015F00EBC2DE9F84507680C46B1
S3158080314098463946054617488A4611F8013B33B179
S31580803150202A02D1C65CB60601D49A42F4D1AAEB63
S315808031600706701C15F0A8FC206050B100210D4820
S315808031708E42226807D1002393550123C5F800A08B
S315808031806360BDE8F88553187A5CB8F1000F06D085
S3158080319010F802C01CF0010F1CBF2032D2B21A7008
S315808031A00131E5E7E62B8580F7B50C461721036864
S315808031B005460020019361601E4613F8011B202975
S315808031C019D0092917D000B101962329019B06D1F0
S315808031D00021184613F8016B7EB901B10190019BDD
S315808031E019780A290DD10022013362600193019BEF
S315808031F02B6003B0F0BD0120DEE70A2EEDD00121E1
S31580803200E7E709B90222EFE7022A06D100230A22DC
S31580803210214601A8FFF790FFE9E701232022214676
S3158080322001A8FFF789FF0027074E56F83710002937
S31580803230DDD0206847F0B9F920B906EBC7067368F8
S315808032406360D4E70137F0E7FC04858073B502229A
S315808032500D46694604460668FFF7A6FF0198012851
S3158080326009D0216832460548891B48F01DFA6FF0DF
S31580803270150002B070BD009B2B60FAE7B2F785809F
S31580803280F7B50E460222694605460768FFF78CFF2A
S31580803290019C012C09D029683A460A48C91B48F006
S315808032A003FA6FF0150003B0F0BD009D0A2200215D
S315808032B0284648F0AFFA3060284615F04BFB20460A
S315808032C0F1E700BFD2F6858010B5044608482BF01A
S315808032D051F948B12246102148F07BFA0028ACBFCC
S315808032E000206FF0150010BD6FF00100FBE700BF76
S315808032F0C67D858010B51429044686B006D81448C4
S3158080330048F0D2F96FF01B0006B010BD4BF064FE1A
S3158080331004AA01460F484BF0E3FFA8B19DF815300B
S31580803320204603939DF814309DF8102002939DF8D3
S315808033301330094901939DF8123000939DF811301E
S3158080334048F092F90120DFE76FF00100DCE700BFEB
S31580803350E2CD85803867868002CE85802DE9F04DE6
S3158080336000250C46ADF6D80D874B2946192207468F
S315808033701EA8119312951395149515951D95FEF794
S31580803380DFF9294625950125402226A8FEF7D8F91A
S315808033902046FFF73BFE636B256323B3A36B002B2D
S315808033A005DA002528460DF6D80DBDE8F08D7748DC
S315808033B02BF0E0F805460028F3D0A06950B10DF5D2
S315808033C09B614FF4806210F07DFC71480DF59B61A6
S315808033D02BF016F8284647F010F900220146284639
S315808033E016F0ADFADDE7216921B96168694848F050
S315808033F05BF9D7E73846684AFFF760FE002802DA2D
S3158080340061686648F3E764482BF04AF863690890F8
S315808034100993CBB147F0F1F80646606947F0EDF83D
S3158080342006440136304615F047FB099018B95C484A
S3158080343048F03AF9B6E7636931460093594A089B62
S3158080344048F0FFF8099B0893E169002969D1E3690F
S315808034500793002B6DD1E36AD90717D552482BF095
S315808034601FF8054651482BF01BF8064650482BF02E
S3158080347017F880464F482BF013F8334601902A463A
S315808034804D49CDF8008025A848F0EEF8E36A9A0782
S315808034900CD54A491DA847F051F815211FA8FFF77A
S315808034A029FF0028BCBF00238DF87430E36AA569A4
S315808034B09B0702D1002D00F0AC800021404E4FF456
S315808034C07F7237A83691FEF73BF9002D14BF2846C8
S315808034D0304647F092F8054625A847F08EF8054491
S315808034E01DA847F08AF801350544B5F5806FA16936
S315808034F070D9002914BF0846304647F07EF80446C6
S3158080350025A847F07AF805461DA847F076F84FF447
S3158080351080620346009221462A462A4848F0C4F8AB
S315808035202CE0E06847F041F8002890D1089B07930B
S3158080353091E73846244A07990DF59B63FFF7BEFDD0
S31580803540002804DA6168214848F0AEF816E0DDF894
S31580803550D854284648F0D2F801460EA846F0EEFFA9
S3158080356019482AF09DFF1C2103460790184A00952A
S3158080357016A848F066F81B287FF66DAF099815F077
S31580803580E9F901250EE700BF629885800AE185808A
S315808035907B7F858013E1858031E185803FE18580F1
S315808035A06AE1858080D28580C6E18580CDE185800F
S315808035B0D6E18580E0E18580E8E18580F8E18580D7
S315808035C017F1858001E2858085E1858094E185801B
S315808035D0BFE1858021B14FF4806236A846F0B6FF80
S315808035E025A936A846F0BEFF1DA936A846F0BAFFA3
S315808035F04FF480620DF59B6136A810F063FB0DF564
S315808036009B6194482AF0FCFE93480DF59B6148F0B7
S315808036104BF892482AF044FF216A149011B3E068EF
S3158080362046F0C3FFF0B9089B1493089B1293079BBF
S31580803630002B00F0C181032416AB1393149B1BB916
S3158080364087482AF02DFF1490089800F0DDFF149BA0
S315808036500546002B00F0B281139B002B00F0C681BB
S315808036600424B7E1149B002BDFD0D4F820A0BAF1D4
S31580803670000F40F08380636A002BD5D079482AF08A
S315808036800FFF0546002855D177482AF009FF054661
S3158080369076482AF005FF8046002D48D1DFF8D0B1E4
S315808036A05D46744BB8F1000F02D1DFF8C481C34602
S315808036B0606A0A9346F0A1FF0A9B00283ED0626A20
S315808036C06B49024412F8010C6B4A2F2808BF0A46C0
S315808036D0606A0D930A9246F090FF0A9A06461046D3
S315808036E00C9246F08AFF0644284646F086FF0A906A
S315808036F0584646F082FF0A998246013640460E44F5
S3158080370046F07BFF0D9B0B9018460A9346F075FF1B
S315808037100B9956440E440644304615F0CDF90A9BE3
S3158080372082460C9A60B9554847F0BEFF26E7DFF897
S3158080373050B1B6E74E4B98469B46B9E7514AC7E7A4
S315808037408DE824080493CDF80C803146636A4E4A0E
S3158080375047F077FF554600235146404A3846FFF763
S31580803760ADFC0646284615F0F5F8002E0DDA0023C6
S315808037701493236A23B161684448E5E60025EAE725
S31580803780616A11B1424847F08FFFA56A95B1334887
S315808037902AF086FE002148F016F880463CF050FAE2
S315808037A0064638B93B482AF07BFE002878D13A48CD
S315808037B047F07AFFFFF7D6FB0028FFF636AFFFF794
S315808037C0C3FB064600283FF430AF002123482AF009
S315808037D08FFE83463CF034FA00287FF426AF606AF9
S315808037E0002800F0B28046F008FF0546002800F0E9
S315808037F0A980636A204A034413F8011C1C4B2F2935
S3158080380014BF92469A46504646F0F7FE01350544E7
S315808038102946012015F060FB804600283FF405AFDD
S31580803820636A134ACDF800A0002B08BF1346294649
S315808038301A4A47F006FFD6F800A0C021F28833687E
S3158080384001FB02339A45C0F08480404615F082F8A9
S31580803850EBE600BF7B7F858027E2858033E28580AB
S3158080386087E385803EE2858046E285802A61868000
S3158080387017F18580BFA28580C18385804AE2858055
S315808038805F74868007E1858066E2858073E28580C5
S315808038909BE28580CAE28580DCE2858080D28580D5
S315808038A0314647F090FF8246DFF850B12B78202B47
S315808038B02FD05946284646F06DFF0A9058B3421B52
S315808038C0501C0B9215F0F8F80B9A2946064646F05E
S315808038D03DFE00230B9AB354304646F08EFE58B197
S315808038E0002331463846464AFFF7E8FB002814DA3B
S315808038F03146444847F0D8FE0A9B13B1304615F0CE
S3158080390029F82846594646F045FF05460028CDD1F8
S3158080391050E70135CAE72E46DEE74FF40051404630
S3158080392004F0CAF850463CF08BF910B131463648DF
S31580803930E0E75146404604F007F90028DCD031465E
S315808039403248D7E7DFF8C8A05DE70225DFF8C4A054
S315808039505EE70AF1600318460B9346F04EFE2918FF
S3158080396001200A9115F0B8FA044600283FF46DAF1D
S315808039700B9B294A0A990093434647F062FE21466B
S315808039803846264A0DF59B63FFF798FB002809DAAF
S3158080399021461C4847F088FE204614F0DBFF0AF15A
S315808039A0C00A4AE75846DDF8D814FFF7F5FA0028AA
S315808039B0F2D021461A48EDE702243FE600F030FE39
S315808039C0022803D017482AF06BFD1490149B002B95
S315808039D07FF442AE284600F023FE2246014611AB94
S315808039E038B10021386806F0D9F9C7E50E4B1393B4
S315808039F036E6386806F09AFFC0E500BF12F085800B
S31580803A00CAE285800CE3858027E3858045E38580CF
S31580803A1007E18580C183858080D28580ABB68580AD
S31580803A206BE3858090E385805F74868013B501AB78
S31580803A301446FFF7F5FA0028A1BF00220120019BDA
S31580803A401A5502B010BD00002DE9F34D0D46D1F810
S31580803A5000B0064601A9284692461F46DDF8288092
S31580803A60FFF7F4FB041E09DA5A4629680F48891A3B
S31580803A7047F01AFE204602B0BDE8F08D019D524681
S31580803A8029463046FFF7D2FF041E04DA29460848C5
S31580803A9047F00AFEEEE73B46524651463046CDF821
S31580803AA0288002B0BDE8F04D00F004B81FD3858031
S31580803AB03CD385802DE9F04D8EB01E46169B804680
S31580803AC0102B0F460591039240F34D811021A0481B
S31580803AD047F0EAFD6FF01E0420460EB0BDE8F08DFB
S31580803AE04FF0010A3846C6F814A046F086FD524645
S31580803AF004460CA905A8059DFFF756FB0D9B0E2B4A
S31580803B0008D0142B1AD0042B1BD1314605A8FFF779
S31580803B109DFB0CE0169B0399221D013322F0030244
S31580803B2000930A443346404605A9FFF78DFF002857
S31580803B300446D1DB05A8FFF75FFA14E106F10C0194
S31580803B40E4E72A4605998348491B47F0ADFDF1E7AE
S31580803B5006F1100105A8FFF793FB04464AE1482049
S31580803B60059C14F0A9FF054610B96FF00B04B3E7E6
S31580803B7048220021FDF7E4FD291D05A8FFF766FB95
S31580803B8000280BDA05992246091B734847F08CFD7D
S31580803B902846FFF7AFFA6FF015049DE7F26905F1C5
S31580803BA0400306F11801F36129646A641360012277
S31580803BB00AA905A8059CFFF7F7FA0B9B152B00F23F
S31580803BC0D18001A252F823F0AF3B8080653D808012
S31580803BD0653D8080213C8080653D8080653D80809C
S31580803BE0653D8080693C8080693C8080A73C808000
S31580803BF0F53C8080353D8080653D8080653D8080D8
S31580803C00653D80800B3D8080193D8080273D80800A
S31580803C10653D8080453D8080653D80804B3D808050
S31580803C2001220CA905A8059CFFF7BEFA0D9B062BE1
S31580803C300DD00C2B11D173682BB9686846F027FD9F
S31580803C407060002891D005A8FFF7D6F9AFE705F117
S31580803C50080105A8FFF7FAFAF5E705992246091BB8
S31580803C603C4847F021FDEEE705F1100105A8FFF7F6
S31580803C70EDFA041EFFF630AF286946F008FDE8604D
S31580803C8000283FF472AF3549286946F083FD0446A3
S31580803C9000288CD046F0FBFC686100283FF465AF35
S31580803CA00023237083E705F1180105A8FFF7CEFA74
S31580803CB0EB6904460493CBB92949A86946F06AFD25
S31580803CC0A0B100F1070B2021584646F089FCA0EB75
S31580803CD00B0A0AF1010014F0EFFE52465946E8615C
S31580803CE046F034FCEB69049A03F80A20002CBFF670
S31580803CF05EAFF1E6EB69002B7FF459AF05F11C01CD
S31580803D0005A8FFF7A3FA0446F0E72B6A002B7FF419
S31580803D104EAF05F12001F3E76B6A002B7FF447AF46
S31580803D2005F12401ECE7AB6A002B7FF440AF05F107
S31580803D302801E5E7012305F138016B6305A8FFF7C4
S31580803D409FFAE0E705F12C01F8E70123EB632EE784
S31580803D5029F7858048F785806FF78580BF71858054
S31580803D608AF785800594012208A905A8059CFFF716
S31580803D701BFA099B162B6AD801A252F823F000BF42
S31580803D80673D80804F3E8080593E8080E13A80804A
S31580803D904F3E8080513B80805F3B80804F3E8080DD
S31580803DA04F3E80804F3E80804F3E80804F3E8080D9
S31580803DB0DD3D8080393E8080173E80804F3E80808A
S31580803DC04F3E80804F3E8080DD3D80804F3E80802C
S31580803DD04F3E80804F3E8080FB3D808007A905A82E
S31580803DE0FFF734FA079D044625B1706808B114F050
S31580803DF0B1FD7560002CB6DA6EE607A905A8FFF7D7
S31580803E0025FA079D0446002DF4D0B06808B114F0D9
S31580803E10A1FDB560EEE7384646F0EFFB169B039929
S31580803E20C21C013322F0030200930A443346404683
S31580803E3005A9FFF709FE90E606F1140105A8FFF7AC
S31580803E401FFA041E8FDA05A8FFF7D6F844E605998F
S31580803E5022460248091B78E601243DE692F7858052
S31580803E60F0B50546ADF5037D10480C46164646F0FE
S31580803E70C4FB0746204646F0C0FB3844B0F5007F39
S31580803E80224608D909490A4847F00EFC6FF023007C
S31580803E900DF5037DF0BD074901A847F0E5FB324665
S31580803EA0284601A9FFF7C2FDF2E700BF3BD1858096
S31580803EB049D1858069D1858070B50446254600685C
S31580803EC014F048FD606814F045FDA06814F042FD4A
S31580803ED055F8180F0668A84204D12046BDE8704080
S31580803EE014F038BD4038FFF705F930463668F2E77A
S31580803EF073B5054620200E4614F0DEFD0446F8B1E3
S31580803F0020220021FDF71CFC04F11803A361E361E4
S31580803F10012332463146009328462346FFF7CAFD61
S31580803F206B7E064633B1A3686BB1094847F0BCFB0C
S31580803F30A3686360002E03DA2046FFF7BDFF002466
S31580803F40204602B070BD034847F0AEFBF2E700BF63
S31580803F50E9F6858002F785802DE9F04D00240D46AF
S31580803F600B69444A8AB00933069083FB0220D917AD
S31580803F70414BC1EBA00100936A692346286803946C
S31580803F800294019414F04CFA064600286FD03B4880
S31580803F902AF086FA2B460746A246012253F8188FC6
S31580803FA00593059B984533D12FB1002C5BD139463B
S31580803FB0334847F079FBBAF1000F0BD05146304633
S31580803FC014F027F9012805D0023030D169682D4850
S31580803FD047F06AFB09A9304614F040F9044630461A
S31580803FE014F04CFA012C40D109990698FFF7B6F95E
S31580803FF000283CD0AC69059BA34238D054F8103C4D
S3158080400023B90698A4F14001FFF7A8F92468F2E75E
S31580804010A8F1400B531C1C495846079347F024FB54
S315808040205A465946304614F0B9F9012805D03046AB
S315808040300AB0BDE8F04D14F021BA696831B158F8FC
S315808040403C0C46F0B2FA002808BFDA463FB13946C2
S3158080405058F83C0C46F0A9FA002808BF5C46D8F888
S315808040600080079A9DE7A246A8E70234C2D00AB0AC
S31580804070BDE8F08D676666660D30808052D3858018
S3158080408065D3858085D38580E3FD85802DE9F04164
S3158080409004461E468846174600211C22079DFDF74A
S315808040A04FFB9DF81830C4F8008023739DF820302C
S315808040B0676023769DF82430A66063768DB1284626
S315808040C046F09BFAB0F5007F16D2284646F0DFFA96
S315808040D02061A0B13DB9002300202269D054BDE87B
S315808040E0F0810848F2E72F21284646F0A5FA002875
S315808040F0F1D0401B431CEFE76FF01B00EFE76FF0BA
S315808041000B00ECE717F18580006914F023BC000072
S3158080411070B505461646FFF7EBFE044620B908487B
S3158080412047F0C2FA012070BD0EB10123436121465A
S315808041302846FFF711FF2046FFF7BEFE0020F2E7F4
S315808041407500868010B590B0044601464022684648
S3158080415046F0FCFA0020402269460190FCF742FD39
S3158080416063681BBAC31A5842584110B010BD10B547
S315808041700446C26800F140014FF4803312BA0020B1
S3158080418045F033F9A3691BBAC31A5842584110BD0A
S3158080419000F13C03002053F8042F02B970470130A8
S315808041A0F9E7F8B5054616461F46FFF7F1FF8842C0
S315808041B019D9002205F1400454F821303C351BBAC8
S315808041C03B6017468F4205D1013004EB8000104456
S315808041D03060F8BD55F8043F01371BBA033323F0AE
S315808041E003031A44EEE700203860F1E7012938B5E9
S315808041F005460DD9084C0222284604F1080146F06E
S31580804200BAFA18B154F80C3F002BF4DC206838BD1C
S315808042106FF01500FBE700BFD80385800368002B0D
S3158080422001DA002070478B42FCD00C30F6E710B55F
S315808042300C461146FFF7F2FF00B18468204610BD18
S31580804240024602490248FFF7F2BF00BF11D085803F
S3158080425088138580024602490248FFF7E8BF00BF7F
S31580804260E8CF8580E4118580024602490248FFF7BF
S31580804270DEBF00BF1CD085806C1485802DE9F34D10
S315808042800E9FDDE90AA804463960D8B216460D46E7
S31580804290FFF7EAFFDDF834B0024604BB2349244B9E
S315808042A02448B54218BF194647F0FEF92946224868
S315808042B047F0FAF9012C17D0042C27D0ECB9B542F7
S315808042C008D00C9A93452CD34FF480334146504680
S315808042D000F076F90C9B20462B443B6013E0014628
S315808042E0164847F0E1F9E1E74246594650460CAB1D
S315808042F043F05CFC10F1260F16D12146104847F01A
S31580804300D3F96FF0250002B0BDE8F08D01AB52463F
S3158080431040460C99CDF804B043F077FE019B0C9310
S31580804320E8E76FF01B04D5E70446D3E7A5D98580F7
S31580804330A9D98580B1D985808A058680BAD9858034
S31580804340CED98580024602490248FFF770BF00BFFA
S31580804350FDCF8580281385802DE9FF41044600F1B5
S31580804360200320223C493D4847F09EF93A493C4803
S3158080437047F09AF9A068002100BA00F071FB3649AF
S31580804380384847F091F9207FFFF75AFF0646607FCD
S31580804390FFF760FF0546A07FFFF766FF0746E07F51
S315808043A0FFF7D0FF3B463246294600902E4847F09D
S315808043B07BF929492D4847F077F9E06800BA00F003
S315808043C03DFB2269244912BA294847F06DF9626912
S315808043D0214912BA274847F067F9A37F03F0FD0287
S315808043E0042A29D12046FFF7D3FE1B490646224858
S315808043F047F05AF90025184FDFF88080B54202D100
S3158080440004B0BDE8F08103AB2946204602AAFFF7B7
S31580804410C8FE2A463946404647F046F9039800F05A
S315808044200DFBA37F062B05D125B13946029A144808
S3158080443047F03AF90135E1E7202BE1D12169E2683D
S31580804440104809BA12BAA2F50052403904B0BDE8C4
S31580804450F04147F029B900BF7ECD85800FDC85800D
S3158080446025DC858036DC858047DC858056DC8580CA
S3158080447067DC85807DDC858093DC8580A0DC85809B
S31580804480B0DC8580C8DC858038B5044615462368CF
S31580804490002B02DA4FF0FF3006E0606828B12946AB
S315808044A046F048F808B9206838BD0C34EFE700003C
S315808044B0024602490248FFF7E7BF00BF8211868025
S315808044C088138580024602490248FFF7DDBF00BF18
S315808044D0B2148680E4118580024602490248FFF73D
S315808044E0D3BF00BF831086806C14858002460249C4
S315808044F00248FFF7C9BF00BF05D085802813858015
S31580804500024602490248FFF7BFBF00BFCC0B8680B8
S315808045103C148580084632F0020108B503D147F005
S3158080452052F9024B1860002008BD00BF54788680FF
S3158080453008B5064829F0B4FF20B11022002147F043
S315808045409DF908BD4FF00040FBE700BF23AD858015
S3158080455038B5114829F0A4FF20B11022002147F0F8
S315808045608DF938BDD9F82C40D9F81850D9F81C2047
S315808045706119914288BFD9F81C50084888BF2D1B85
S3158080458029F08EFF30B11022002147F077F92C4434
S31580804590201AE6E72046FAE73BAD858023AD858005
S315808045A008B5064829F07CFF18B9BDE80840FFF7B2
S315808045B0CFBF1022002147F061F908BD2DAD8580DF
S315808045C0814201D046F0C2B87047000073B50D4E67
S315808045D00B4615460446316880B101AA03F0B8FEC1
S315808045E058B931682B46204601AA03F0CDFE014694
S315808045F018B9204647F0E7F801900199084602B03D
S3158080460070BD00BF54788680002307B5694601AAAD
S31580804610CDE90033FFF7DAFF03B05DF804FB0000D5
S3158080462010B50A4B026804469A420AD03BF008FBD2
S3158080463048B1204600F090FB00280CBF0020032064
S3158080464010BD0120FCE70220FAE700BF2705195636
S31580804650806C003818BF0120704700002DE9F04536
S315808046601D4600238DB0DDF850802B600C461746A2
S315808046700646C8F80030002800F0CE80724945F0A2
S3158080468094FF18B90023089307935AE00023A26CFD
S315808046900B9309920A93002E00F09980236DCBB1FB
S315808046A0D4F84CA05146304609AB0BAA03F050FE95
S315808046B0002840F09680514630460AAB0BAA03F01C
S315808046C063FE0146002840F08C80304647F07BF8B8
S315808046D00B9086E05D4BD3F800A0E3E73046FFF78A
S315808046E031FD08B95A4892E03046FFF735FE5CB115
S315808046F0584813F03CFF3046FFF739FD08B95648D5
S3158080470085E0564813F033FF337FF8B2052B09D105
S31580804710737F984203D0022B04D1162802D1B37FAF
S31580804720032B06D0FFF796FD01464D4846F0BCFF29
S315808047306FE0002E6DD006F140030793F3681BBAB5
S315808047400893079A002A2BD0089B2A601344C8F8BE
S31580804750003025E008AB059307AB0493782302935A
S315808047600323FFB20390019320460B99009709ABF0
S315808047700AAA04F0FFFC00280FDB0B9B2066A3654A
S315808047800A9BE365DDE707AA0021E06F08AB00F0AE
S3158080479099FE821C04D00028D3D010F1410F13D10A
S315808047A0002011E05EB13A21304645F019FF30B1E4
S315808047B00021013047F007F80B9B089064E7294871
S315808047C013F0D5FE6FF015000DB0BDE8F085E26C74
S315808047D0204625490B9204F0B6FC831CE0D0002845
S315808047E0DBDB0B98FFF71CFF0228B3D00328CAD0E7
S315808047F00128D7D10B991D4846F056FF0B9E1C4B3E
S315808048003268D4F8BC409A423FF468AF194813F0B6
S31580804810AEFE6FF00100D7E78B6C002B7FF436AF4E
S31580804820636C002B3FF42EAF94F82230042B7FF4F8
S3158080483029AF2168104846F037FF0121206808ABF0
S3158080484007AAFFF7AEFC7CE75F7486805478868003
S3158080485041DA85805445858059DA85806F458580A3
S31580804860803A85809B3A8580C30D8680483A85804C
S31580804870270519562CDA8580B73A85802DE9F0414F
S31580804880044623480D4616461F4629F009FE50B138
S31580804890002146F098FF431C02460BD1DCB90020EC
S315808048A03060386015E0FFF77BFE8046FFF740FE7C
S315808048B008EB0002002CF2D04FF4805128469AB142
S315808048C045F04AF9306090B9124813F050FE4FF0A7
S315808048D0FF30BDE8F08163193460294620463B600D
S315808048E045F036F90020F4E745F048F9EAE72A18DA
S315808048F03A603168084846F0D7FE30684FF4803396
S315808049002A462146FFF75CFE044813F030FEE9E72D
S31580804910C13B8580CD3B8580E93B85806F458580A1
S3158080492004F024BE2DE9F04D836C04468EB01BB90D
S3158080493000200EB0BDE8F08DC56C2846FFF770FE6E
S31580804940022853D12846A16C04F07EFB4FF00008E4
S315808049508346294F0026434659462846274A00964D
S315808049603BF000FF0D900028E2D0A0220CAB05938F
S315808049700BAB049302920223162203930192009337
S315808049802946204604F148030DAA04F0F3FB00284B
S31580804990CFDB28460D9903F03DFD0028C9DB014613
S315808049A00DF12B02284603F06FFD0028C1DB144BE6
S315808049B09DF82B200B98DB1B0C99DB1007F1080ADE
S315808049C0B34202D108F10108C4E75AF808CC94456D
S315808049D008D109935AF8043C089207910690984723
S315808049E006A80FC801360AF1080AE9E7054846F0A5
S315808049F05BFE01209DE700BF9CB486800A3A858055
S31580804A009CB48680143A858037B50546D0F8A43024
S31580804A10044655F8A00F019303F028F9284601A98A
S31580804A2003F088F938B9019B2BB101222046D4F84E
S31580804A30A01003F0CDFB03B030BD000010B5044656
S31580804A400146054846F030FE2046BDE810400021EC
S31580804A50024A44F067BB00BF2AD08580D7F785801D
S31580804A6000B58FB005AA47F07BF8059B099A02931B
S31580804A70069B0A990193079B03480093089B46F0FF
S31580804A8013FE0FB05DF804FB36D085802DE9F341A7
S31580804A90044657481646984629F088FD074620469C
S31580804AA0FFF7BEFD0128054607D0022833D051483E
S31580804AB013F05DFD4FF0FF3506E022684E4B9A423B
S31580804AC006D04E4813F053FD284602B0BDE8F081EB
S31580804AD02046FFF737FB08B94948F3E72FB12046D0
S31580804AE0FFF745FB08B94748ECE7A37F062B01D043
S31580804AF04548E7E7216C04F140030ABA09B943487F
S31580804B00E0E753F8041B0029FBD1089900250B6048
S31580804B10099B1A60D8E74FF0FF31204604F058FA97
S31580804B2018B13B4813F023FD11E0002E5CD1B8F11B
S31580804B30000F0ED098F800305BB14146204604F0D5
S31580804B4083FA011E16DA4146324846F0ADFD0125CC
S31580804B50BAE70021204604F077FA011E0ADAB8F116
S31580804B60000FF0D12C4920463BF098FC011E0EDACE
S31580804B702A48D7E700232046294A04F0B1FA051E41
S31580804B8016DAB8F1000FEDD041462648DDE70023DE
S31580804B902046254A3BF0D0FB06460028E8D03146A1
S31580804BA0204603F037FC051E02DA31461F48CCE7E3
S31580804BB006222946204604F0EBF908B91C48B1E75D
S31580804BC037B12946204604F059F908B91948A9E72A
S31580804BD06A462946204601AB03F0E8FC08B11648B0
S31580804BE0A0E7DDE9003290E73378002BBAD0D6E7AC
S31580804BF01B458580E6DB858027051956D9DA858031
S31580804C00EBDA8580FBDA858009DB858019DB858018
S31580804C10324F858027DB85805EDB858066DB85807D
S31580804C20DE1E868041DB8580B40A868081DB858036
S31580804C309FDB8580B2DB8580C1DB858030B585B0A2
S31580804C400546019148B311B9002005B030BD0C18D6
S31580804C500C221349A4F10C0045F0B2FC0028F3D055
S31580804C60042220460DEB0201FCF7BAFD00231A468A
S31580804C70019999420DD10392042203A9A018FCF7C9
S31580804C80AFFD0C22064904F10800FCF7A9FD14202B
S31580804C90DBE7E85C01330244EBE74FF0FF30D4E793
S31580804CA0552D85800346084A406C904207D109B9C4
S31580804CB01868704700221021044829F069BC10B911
S31580804CC09B6C002BF6D070470080001031E1858088
S31580804CD02DE9F7450C4617469846824638B332B357
S31580804CE0F1B10025D61813490C22A6F10C00019546
S31580804CF045F066FCC0B90422143E31460DEB0200B5
S31580804D00FCF76EFD6FF01305224651462C443046E3
S31580804D10FCF766FD08EB04013846FFF78FFF0444F5
S31580804D20204603B0BDE8F085CDF80480ECE74FF0EF
S31580804D30FF34F5E7552D85804FF0FF3070470000B2
S31580804D400146082208B5034845F015FDB0FA80F083
S31580804D50400908BDFEE085800146082208B50348E3
S31580804D6045F009FDB0FA80F0400908BDF5E0858000
S31580804D70F8B50E461546044600B12AB94B4846F02A
S31580804D8093FC00273846F8BDFFF7E6FF074618B93B
S31580804D90474846F089FCF5E794F8292094F828302E
S31580804DA043EA022394F82A2043EA024394F82B208C
S31580804DB043EA0263022B40F283800EB93D48DEE7E8
S31580804DC03046FFF7BDFF074608B93B48E1E704F167
S31580804DD02C032B63A36A3949AB6504F580532B601A
S31580804DE0A2686A6002F6FF720A401A44EA64E06842
S31580804DF0A8606861E36803F6FF730B401344A26A78
S31580804E00032A81BFD4F82C2602F6FF720A409B18AB
S31580804E101B1BEB6506F11C036B63D6F81C386B6530
S31580804E2006F50263AB6333696B647369AB64D6F8EA
S31580804E3038382B65D6F84C182964F268B3693244C1
S31580804E405BB1EA60B3692B610344AB60F068B36998
S31580804E500344013B404203401A442A62D6F83438E0
S31580804E606B62D6F80CC0D6F8404863446444CCF173
S31580804E700000013C013B034004401C441444EC6325
S31580804E80D6F84C3843B12046FFF7D8FE2B6C1844B1
S31580804E90AB6828640344AB60F268296C531E0B446C
S31580804EA0524213409B1B23442B666BE7A42D85803F
S31580804EB0CB2D8580E82D8580222E858000F0FFFF92
S31580804EC004F13003AB6304F140032B63627B237B65
S31580804ED043EA0223A27B43EA0243E27B43EA0263FC
S31580804EE06B64627D237D43EA0223A27D43EA02438B
S31580804EF0E27D43EA0263AB6494F8292094F82830F3
S31580804F0043EA022394F82A2043EA024394F82B202A
S31580804F1043EA0263AB6594F8752694F8743643EA5F
S31580804F20022394F8762643EA024394F8772643EA66
S31580804F3002632B6594F8253094F8241041EA032186
S31580804F4094F8263041EA034194F8273041EA036198
S31580804F5021442960627A237A43EA0223A27A43EA49
S31580804F600243E27A43EA02636B6094F8242094F8E1
S31580804F702530607A42EA032294F8263042EA034258
S31580804F8094F8273042EA0362237A43EA0023A07AA0
S31580804F9043EA0043E07A43EA00631344013B52428A
S31580804FA013400B44EB64617C227C42EA0122A17C23
S31580804FB042EA0142E17C42EA0162AA6094F82520B5
S31580804FC094F82410607C41EA022194F8262041EAF4
S31580804FD0024194F8272041EA0261227C42EA00223B
S31580804FE0A07C42EA0042E07C42EA00620A44013ABE
S31580804FF049420A401A44AA61617E237E43EA01239C
S31580805000A17E43EA0143E17E43EA0163EB6194F842
S31580805010253094F8241041EA032194F8263041EA19
S31580805020034194F8273041EA0361237E607E43EA18
S315808050300023A07E43EA0043E07E43EA00630B447C
S31580805040013B49420B40134494F8291094F8282058
S3158080505042EA012294F82A1042EA014294F82B10FF
S3158080506052EA016271D0AB6294F8611694F8602638
S3158080507042EA012294F8621642EA014294F8631663
S3158080508042EA0162EA6294F8252094F8241094F822
S31580805090610641EA022194F8262041EA024194F889
S315808050A0272041EA026194F8602642EA002294F839
S315808050B0620642EA004294F8630642EA00620A4443
S315808050C0013A49420A40134494F8291094F82820DA
S315808050D042EA012294F82A1042EA014294F82B107F
S315808050E042EA0162012A30D92B6294F8711694F8CB
S315808050F0702642EA012294F8721642EA014294F8B6
S31580805100731642EA01626A6294F8252094F8241024
S3158080511094F8710641EA022194F8262041EA0241F8
S3158080512094F8272041EA026194F8702642EA0022A8
S3158080513094F8720642EA004294F8730642EA006264
S315808051400A44013A49420A4013441B1BEB6519E61F
S31580805150F8B504460E461746FFF7FEFD054620B98C
S31580805160514846F0A1FA2846F8BD94F8292094F84B
S31580805170283043EA022394F82A2043EA024394F8AB
S315808051802B2043EA0263012B04D8484846F08CFAE8
S315808051900025E8E7022B66D194F8712694F870365C
S315808051A043EA022394F8722643EA024394F87326EC
S315808051B053EA026301D13E48E8E794F8253094F8B3
S315808051C009C094F82400227A40EA032042EA0C221D
S315808051D094F8263094F80AC040EA034042EA0C42AA
S315808051E094F8273094F80BC040EA036042EA0C6258
S315808051F002444142013A03190A4094F811C01A4484
S31580805200237C43EA0C2394F812C043EA0C4394F837
S3158080521013C043EA0C630344013B0B4094F819C0E6
S315808052201344227E42EA0C2294F81AC042EA0C4247
S3158080523094F81BC042EA0C620244013A0A4094F810
S3158080524061C61A4494F8603643EA0C2394F862C6A1
S3158080525043EA0C4394F863C643EA0C630344013BF8
S315808052600B4013443B6094F8292094F8283043EA15
S31580805270022394F82A2043EA024394F82B2043EAB7
S315808052800263022B7FF66FAFD6F83438002B92D02C
S31580805290F268B369911923B11344013B524213409A
S315808052A0194439605FE700BF952E8580BC2E858046
S315808052B0EB2E858000B59BB001AAFFF759FD30B1F2
S315808052C0179B022B06D818981BB05DF804FB6FF0ED
S315808052D01500F9E70020F7E700B59BB001AAFFF734
S315808052E047FD88B101980B4A0368934203D1C07FFA
S315808052F01BB05DF804FB084A934208D004211BB09A
S315808053005DF804EBFEF772BF6FF01500F0E70520BD
S31580805310EEE700BF2705195604224D182DE9F04186
S3158080532004460E469AB06422002101A81F46209D1D
S31580805330FCF706FA3146204601AAFFF719FD0028B8
S3158080534000F0928031462046FFF7C6FF014601A8CD
S31580805350FFF7A8FC474C0646102220460F99DDF8B9
S31580805360048045F052F900232046237445F045F9A0
S3158080537018B12146404846F097F9029A314602F2A2
S31580805380FF32920A3D4846F08FF93D4829F088F8E9
S31580805390064648B345F031F904460D990B784BB1F2
S315808053A0384846F081F90D9845F027F9002C18BFCA
S315808053B0013404440E990B784BB1334846F074F926
S315808053C00E9845F01AF9002C18BF01340444601CED
S315808053D013F072FB044648B92C4813F0C8F86FF076
S315808053E00B001AB0BDE8F0810446D6E7002303702F
S315808053F016B1314645F0A2F80D9B1B784BB12378C8
S315808054001BB12046224945F0ADF820460D9945F0DE
S31580805410A9F80E9B1B784BB123781BB120461C497B
S3158080542045F0A0F820460E9945F09CF82146144810
S3158080543028F0E6FF204613F08DFA47B1154BD8F851
S3158080544000209A4214BF019B08F140033B6075B1EE
S31580805450104BD8F8002000209A420ABFD8F80C302A
S31580805460029B1BBA2B60BCE76FF01500B9E7284614
S31580805470B7E700BF88BE8680012F85801B2F8580F9
S315808054807B7F8580412F85805A2F8580792F858067
S3158080549012F085802705195630B59BB001AA04463F
S315808054A00D46FFF765FC48B129462046FFF714FF75
S315808054B0014601A8FFF7F6FB1BB030BD6FF01500E3
S315808054C0FAE700002DE9F04D04460D469CB0002198
S315808054D0164603A864220193FCF732F929462046B2
S315808054E003AAFFF745FC20B96FF015001CB0BDE814
S315808054F0F08D059A002A76D0199B159C022B66D949
S31580805500B4F1885F0AD100221021384829F040F80A
S31580805510044618B9364846F0C7F8E5E7079D204621
S315808055202A4606993460FCF75BF92C44089D204610
S315808055302A461699FCF754F9DDF84C80B8F1000FAD
S3158080554039D005EB040A424612995046FCF748F951
S31580805550284828F0A5FF83465846274945F01AF9FA
S31580805560044620B3202145F03BF80023074603708C
S31580805570204645F042F80A2305463B70411C434647
S3158080558052462046FFF7A4FB0028ADD0059B2544D4
S31580805590034405934FF0200380443B70284645F0B2
S315808055A02CF82946421C204645F0D0F8D4E7594647
S315808055B0104828F025FF059C316804F2FF320F4899
S315808055C0920A46F071F8019B00201C608EE716993E
S315808055D014B1B4F1885F01D13160ECE72046346044
S315808055E0FCF7FEF8E7E76FF001007FE785E18580CD
S315808055F0AC2F85807B7F8580D92F8580E62F85809F
S3158080560070B59AB00E461446002101AAFFF7B0FB0A
S31580805610C0B1179B022B06D90C4846F045F86FF02F
S315808056205E001AB070BD089D25B925604FF0FF30A9
S315808056303560F6E707990648316046F035F80020F0
S315808056402560EEE76FF01500EBE700BF0E308580B2
S31580805650553085802DE9F04D9AB00C461746B1F1CC
S31580805660FF3F08BF002101AA05469846DDF888A03D
S31580805670FFF77EFB0646B0B321466A462846FFF78B
S3158080568067FD009C204600F0D9F9054640B1534617
S315808056904246394620461AB0BDE8F04D00F0D6B96C
S315808056A00A9B04EB030BA34505D82A463946114845
S315808056B045F0FAFF07E020463AF0C2FA28B129463B
S315808056C00D4845F0F1FF00260DE06368BD421BBAA8
S315808056D00DD1BAF1000F01D0CAF80030B8F1000FB1
S315808056E001D0C8F8004030461AB0BDE8F08D1C4421
S315808056F00135D8E76E2E8580462E858030B590F828
S31580805700292090F82830044643EA022390F82A20FC
S3158080571085B043EA024390F82B2043EA0263022B4A
S3158080572005D9B34805B0BDE8304045F0BDBF90F897
S315808057302D3090F82C50427A45EA032590F82E3009
S31580805740AC4945EA034590F82F3045EA0365037AEC
S3158080575043EA0223827A43EA0243C27AA64843EA2C
S31580805760026245F0A1FF627B237BA24943EA022342
S31580805770A27BA24843EA0243E27B43EA026245F087
S3158080578093FF627C237C9B4943EA0223A27C9C48CC
S3158080579043EA0243E27C43EA026245F085FF627D0A
S315808057A0237D944943EA0223A27D964843EA0243B5
S315808057B0E27D43EA026245F077FF627E237E8D49F1
S315808057C043EA0223A27E904843EA0243E27E43EA8A
S315808057D0026245F069FF627F237F864943EA02231E
S315808057E0A27F8A4843EA0243E27F43EA026245F027
S315808057F05BFF94F8212094F820307E4943EA022387
S3158080580094F82220824843EA024394F8232043EA8C
S31580805810026245F049FF94F8252094F82430754932
S3158080582043EA022394F826207A4843EA024394F88E
S31580805830272043EA026245F037FF94F82D3094F8AA
S315808058402C2094F82F1042EA032294F82E30724846
S3158080585042EA034205F00F030393C5F3061303F56B
S31580805860FA630293C5F3C62301936B0E42EA016203
S3158080587000936049C5F3864345F016FF5D4904F180
S315808058803002664845F010FF5A4904F14002644868
S3158080589045F00AFF94F8292094F82830554943EA40
S315808058A0022394F82A205F4843EA024394F82B2007
S315808058B043EA026245F0F8FE94F8292094F828306D
