S00E0000752D626F6F742E73726563C0
S31580800000B80000EA14F09FE514F09FE514F09FE5B0
S3158080001014F09FE514F09FE514F09FE514F09FE5BA
S3158080002060008080C0008080200180808001808008
S31580800030E001808040028080A0028080EFBEADDEBD
S31580800040DEC0AD0B00F020E300F020E300F020E37B
S3158080005000F020E300F020E300F020E300F020E3CE
S3158080006028D01FE500E08DE500E04FE104E08DE5D6
S3158080007013D0A0E30DF069E10FE0A0E10EF0B0E1CE
S3158080008048D04DE2FF1F8DE850201FE50C0092E896
S3158080009048008DE234508DE20E10A0E10F0085E895
S315808000A00D00A0E10E0700FA00F020E300F020E3C7
S315808000B000F020E300F020E300F020E300F020E36E
S315808000C004D04DE200008DE590001FE500E080E5DC
S315808000D000E04FE104E080E500E090E500009DE5EA
S315808000E004D08DE248D04DE2FF1F8DE8B4201FE515
S315808000F00C0092E848008DE234508DE20E10A0E12B
S315808001000F0085E80D00A0E1FF0600FA00F020E3ED
S3158080011000F020E300F020E300F020E300F020E30D
S31580800120E8D01FE500E08DE500E04FE104E08DE555
S3158080013013D0A0E30DF069E10FE0A0E10EF0B0E10D
S3158080014048D04DE2FF1F8DE810211FE50C0092E814
S3158080015048008DE234508DE20E10A0E10F0085E8D4
S315808001600D00A0E1F20600FA00F020E300F020E323
S3158080017000F020E300F020E300F020E300F020E3AD
S3158080018048D11FE500E08DE500E04FE104E08DE594
S3158080019013D0A0E30DF069E10FE0A0E10EF0B0E1AD
S315808001A048D04DE2FF1F8DE870211FE50C0092E854
S315808001B048008DE234508DE20E10A0E10F0085E874
S315808001C00D00A0E1E40600FA00F020E300F020E3D1
S315808001D000F020E300F020E300F020E300F020E34D
S315808001E0A8D11FE500E08DE500E04FE104E08DE5D4
S315808001F013D0A0E30DF069E10FE0A0E10EF0B0E14D
S3158080020048D04DE2FF1F8DE8D0211FE50C0092E893
S3158080021048008DE234508DE20E10A0E10F0085E813
S315808002200D00A0E1D60600FA00F020E300F020E37E
S3158080023000F020E300F020E300F020E300F020E3EC
S3158080024008D21FE500E08DE500E04FE104E08DE512
S3158080025013D0A0E30DF069E10FE0A0E10EF0B0E1EC
S3158080026048D04DE2FF1F8DE830221FE50C0092E8D2
S3158080027048008DE234508DE20E10A0E10F0085E8B3
S315808002800D00A0E1D20600FA00F020E300F020E322
S3158080029000F020E300F020E300F020E300F020E38C
S315808002A068D21FE500E08DE500E04FE104E08DE552
S315808002B013D0A0E30DF069E10FE0A0E10EF0B0E18C
S315808002C048D04DE2FF1F8DE890221FE50C0092E812
S315808002D048008DE234508DE20E10A0E10F0085E853
S315808002E00D00A0E1B00600FA7E0700EA00000FE16B
S315808002F01F1000E21A0031E31F00C0131300801321
S31580800300C00080E300F029E1100F11EE020AC0E3FD
S31580800310100F01EE8C009FE5100F0CEE330400EB7E
S31580800320150F07EE4FF07FF56FF07FF51EFF2FE1FB
S31580800330EDFFFFEA0000A0E3170F08EE150F07EE2A
S31580800340D50F07EE4FF07FF56FF07FF5100F11EE2A
S31580800350020AC0E30700C0E3020080E3020B80E369
S31580800360010A80E3100F01EE0E50A0E1101F10EEFF
S31580800370213AA0E10F3003E20F4001E20322A0E19F
S31580800380022084E120009FE50700C0E300D0A0E141
S31580800390300F11EE400080E33E002DE90D0400FB16
S315808003A03E00BDE805F0A0E10000808000FF30407F
S315808003B070470148704700BF03000080004870473F
S315808003C00300008000487047030000800048704723
S315808003D00300008000487047030000800048704713
S315808003E00300008000487047030000802DE9F041BB
S315808003F01B4A136883B389B30D6835B910F0010F32
S31580800400184818BF0020BDE8F0814FF0000C674681
S31580800410D2F804E0D2F80880BE4501D11248F2E7CE
S31580800420D3E90260B5427CEB000212D3D3E906247D
S31580800430240344EA12541203921940EB0400954235
S315808004407CEB000005D21B6900202B449B1B0B6034
S31580800450D9E701374344DFE70448D4E70148D2E748
S31580800460C00C8080020000800E0000800300008027
S3158080047010B5044600202146E268206100F0B2FB78
S31580800480206110BD01380A44914200D1704711F82D
S31580800490013B00F8013FF7E70448054B10300364C1
S315808004A0044B8361044BC361FFF7E2BFC00C80803D
S315808004B0B1038080B3038080BD0380802DE9F04DB9
S315808004C006460C462B4DDFF8B0802C4F454505D32C
S315808004D02B4B1E60BDE8F04D00F042BED9F830301F
S315808004E0D5F800A003F1FF4C0AEB0C005CB1254BDC
S315808004F0984202D3343398421FD9234B98421CD0DA
S31580800500043B984219D02A79172A11D11C4B5AF864
S315808005100C201B68F31A13448CB900F143014AF806
S315808005200C3021F03F0120F03F0000F047FE04E0D0
S3158080053000233946154856F063FA0835C6E7002207
S31580800540D4E904BE5B4572EB0E020DD3D4E9061264
S31580800550120342EA1152090311EB0B014EEB020E94
S3158080056099427EF1000ED8D202463946084856F026
S3158080057047FAE2E724E5878014E6878050E785801E
S3158080058030B48780E80C80805C0C8080F00B808023
S31580800590120C808030B5042585B0029500251446DE
S315808005A00195089D009500F049F90CB12378236068
S315808005B005B030BD042300F0F1B80000F0B50446E4
S315808005C0154600F11F0600F10F0201200139B24263
S315808005D000D078B904F120010A4631F8026B18B14F
S315808005E02888871B784278417EB12A88002AF3D072
S315808005F00235F1E712F8010F11F8017FA0EB070CA5
S31580800600DCF1000040EB0C00E1E72BB121680A4465
S31580800610093222F007021A6008B1014B1C60F0BDD6
S31580800620280D808010B5044C0020211DFFF7DEFE4A
S315808006300023236010BD00BF280D808010B504463E
S3158080064050B14FF0FF31203000F04FFA246804EB30
S315808006504004293424F0070010BD18232DE9F34D7A
S31580800660264D9346AB616B680F461A69044603F143
S31580800670180603EB020808B100F1180A46450BD329
S31580800680AA693B6834BB1E481E499A4288BF084681
S315808006903A6002B0BDE8F08D3046FFF7CFFF7368D1
S315808006A002463BEA030306EB000301D01E46E5E7DC
S315808006B0A8691044A861002CF8D039688842F5D89A
S315808006C050463146CDE90023FFF7DCFE009A019B38
S315808006D09244EBE79A420ED8183A04F1180100202A
S315808006E000F080FA1822E86107492046FFF7CAFEA3
S315808006F00020AA69CCE70348CAE700BF280D80801E
S315808007000200008005000080300D80802DE9F7454D
S31580800710214C154663680A881E6980460F461E44AA
S3158080072062B925B90024204603B0BDE8F085183328
S31580800730B3422B60F6D300242C60F4E7206868B13E
S315808007400A462B464146FFF739FF38B125B12B68DB
S31580800750B34224BF00232B602468E4E7646818349E
S31580800760A64215D94FF0000A01AB3A46414620464B
S31580800770FFF724FF019BB34228BFCDF804A020B1A8
S31580800780002DD0D0019B2B60CDE7019C002CEBD136
S31580800790002DD0D1C6E700BF280D80802DE9F34D8E
S315808007A00E4617461C460546B8B3B1B3AAB3296828
S315808007B030464FEA5108414600F097F940452CD0A3
S315808007C03146384601AAFFF7A1FF08B9338823BB93
S315808007D0DDF80480B8F1000F24D008F120010A46A4
S315808007E032F802ABBAF1000FFAD1D5F800B0521ABE
S315808007F05A452A6018D83046FFF744FE102238467C
S3158080080008EB0201FFF73EFE44B1D8F8043034EAA3
S3158080081003030BD0C5F800B0C9E7054C204602B06B
S31580800820BDE8F08D034CF9E7034CF7E75446F5E7CE
S31580800830020000800E000080050000802DE9F04DCA
S315808008400646DDE9088A084617461D46DDF828B043
S3158080085016B92248BDE8F08D0029FAD0002BF8D051
S3158080086000223146FFF752FF0446002831D0BBF183
S31580800870000F03D043683BEA03032AD10FB1636834
S315808008803B60BAF1000F03D0D4E90223CAE9002382
S315808008904FF0FF323046124900F016F930B92946BA
S315808008A04046BDE8F04D0122FFF7D7BE2B6822680F
S315808008B09A422A600FD8B8F1000FCAD004F120017D
S315808008C031F8024B002CFBD14046FFF7DBFD2046FA
S315808008D0C0E70448BEE70448BCE700BF020000804A
S315808008E03E0C80800E00008005000080F8B518B32D
S315808008F0124C21686668814228BF0021336928BFEF
S315808009002160F21800F1200131F8025B002DFBD1C5
S31580800910076803440737394421F007015B1A521A66
S315808009203361FFF7AFFD64682846226904F11801B8
S31580800930183A00F057F96061F8BD00BF280D8080B5
S315808009402DE9FF4DDFF8A8A08B46DAF804604FF0DA
S31580800950FF311D46D6F810800392019000F0C5F8CD
S3158080096006EB080707F12003441C6200DAF80410BE
S3158080097003EB440402930D9B0092591A2944214427
S31580800980B1F5003F32D8DDE91001039A7A60EA1822
S3158080099046F808201022C7E90201B8185946FFF7A1
S315808009A071FD029B009A18460199FFF76BFD2A46D6
S315808009B020460C99FFF766FD60190D9A0E99FFF710
S315808009C061FD56F80820DAF804500732224422F076
S315808009D00702521B2A610020183A05F1180100F09F
S315808009E001F96861002004B0BDE8F08D0148FAE71E
S315808009F0280D808009000080074B00215B6818697C
S31580800A0000F12003B3F5003F36BFC0F5FF300020EC
S31580800A1000F5F070704700BF280D808000487047D1
S31580800A20030000801FB500240294079C0194069CD5
S31580800A300094FFF703FF04B010BD0023FFF7AEBE1E
S31580800A4070B516461D4601B3FAB1F3B1E8B1C30657
S31580800A5019D410F0FF0316D0012B16D000F00603B0
S31580800A60042B12D030F0FF040FD10023084AC1E94D
S31580800A700023FFF7C1FF0023064AC6E90001C5E9C6
S31580800A800023204670BD044CFBE7044CF9E700BF89
S31580800A90E8FF0100C8FF010003000080020000809B
S31580800AA010F0040F10B405D010F0B00F05D110BC33
S31580800AB0FFF7C6BF024810BC70470248FBE700BFFD
S31580800AC0020000800300008070B505460024A242A3
S31580800AD001D1002008E035F8146031F81430F01A1E
S31580800AE002D10134002EF2D170BD034600208842A7
S31580800AF002D033F8102002B970470130F7E7000042
S31580800B00F0B5364B1C6814B300274FF0004C3C463A
S31580800B101E1D16F8015B01342CFA05F50E2C47EA6A
S31580800B200507F6D10026DFF8B8C03446082504F0DC
S31580800B30010E6408BEF1000F00D07C40013DF6D1E5
S31580800B400136B6F5807F4CF8044BEED11D608D075B
S31580800B500ED06AB111F8014B013A84EA0004E4B2FE
S31580800B6003EB8404646984EA102001D08C07F1D178
S31580800B700E4602F0030422F003025718B74211D1C1
S31580800B80043A11446CB1E21CCD1C114415F8012F36
S31580800B904240D2B203EB820252698D4282EA1020B1
S31580800BA0F4D1F0BD56F8045B6840C5B203EB850589
S31580800BB06D6985EA1025E8B203EB8000406980EA9A
S31580800BC01520C5B203EB85056D6985EA1025E8B2E7
S31580800BD003EB8000406980EA1520CFE7480D80804E
S31580800BE05C0D808008B5C043FFF78AFFC04308BD8F
S31580800BF025733A20556E6B6E6F776E2072656C6F3B
S31580800C00636174696F6E207479706520256C6C78E9
S31580800C100A0025733A2052656C6F636174696F6EC2
S31580800C20206174202570206973206F7574206F66AB
S31580800C302072616E67652028256C78290A005600A7
S31580800C406100720054006F00460069006C00650088
S31580800C500000000000000000580C8080580C8080C6
S31580800C604942492053595354640002004800000089
S31580800C700000000000000000A80C80800001252074
S31580800C80000000000000000000000000000000005E
S31580800C900000000000000000D00C80800000000072
S31580800CA00000000000000000440061007300200006
S31580800CB055002D0042006F006F0074000000000018
S31580800CC0000000000000000000000000000000001E
S31580800CD052554E54534552566400020050000000CF
S31580800CE00000000000000000F18F8480DD8F84800A
S31580800CF0C5038080C50380803D908480ED0380809D
S31580800D003F958480B195848075958480C5038080E5
S31580800D10958F8480CD038080D5038080D195848093
S31580800D20200D8080200D8080000000000000000063
S31580800D30000000000000000055624566695661012A
S31580800D400000000000000000010000000001020495
S31580800D500507080A0B0C1016171A00000000000001
S31580800D60000000000000000000000000000000007D
S31580800D70000000000000000000000000000000006D
S31580800D80000000000000000000000000000000005D
S31580800D90000000000000000000000000000000004D
S3098080115CFFFFFFFF8D
S31580801160002307EE153F07EED53FBFF34F8FBFF3C2
S315808011706F8F704770477047704708B500F0AAE850
S31580801180BDE80840FFF7F8BF704708B500F0F8E87B
S31580801190BDE80840FFF7F8BF08B5FFF7EBFFFFF71C
S315808011A0F4FF002308EE173F08EE163F08EE153F42
S315808011B0BFF34F8FBFF36F8F08BD704738B5044636
S315808011C00D4600F031FE30EE103F012203F007031A
S315808011D004339A40534223409D4207D8BFF34F8FB2
S315808011E029462046BDE83840FFF7E7BF07EE3E3FF9
S315808011F01344F1E7704770B504460D4600F014FE3F
S3158080120030EE106F2946204600F00EFE38B101225E
S31580801210234606F007060436B2409D4207D8BFF3C0
S315808012204F8F29462046BDE87040FFF7E3BF07EE23
S31580801230363F1344F1E700005FF07FF5300F30EEE4
S31580801240A03BA0E10E3013E21C00000A00A0A0E3C0
S31580801250AA208AE03012A0E1071001E2020051E361
S31580801260130000BA10AF40EE6FF07FF5101F30EE9E
S31580801270072001E2042082E2FF4300E3A14114E0DB
S31580801280145F6FE1FF7F07E3A17617E00790A0E107
S315808012901465A0E106B08AE11962A0E106B08BE10F
S315808012A05EBF07EE019059E2F8FFFFAA014054E243
S315808012B0F5FFFFAA02A08AE20A0053E1E3FFFFCA94
S315808012C000A0A0E310AF40EE4EF07FF56FF07FF583
S315808012D01EFF2FE1F04E2DE9D6FFFFEBF04EBDE8E5
S315808012E01EFF2FE15FF07FF5300F30EEA03BA0E14F
S315808012F00E3013E21C00000A00A0A0E3AA208AE038
S315808013003012A0E1071001E2020051E3130000BA17
S3158080131010AF40EE6FF07FF5101F30EE072001E2B0
S31580801320042082E2FF4300E3A14114E0145F6FE171
S31580801330FF7F07E3A17617E00790A0E11465A0E11F
S3158080134006B08AE11962A0E106B08BE156BF07EE4E
S31580801350019059E2F8FFFFAA014054E2F5FFFFAA07
S3158080136002A08AE20A0053E1E3FFFFCA00A0A0E35D
S3158080137010AF40EE4EF07FF56FF07FF51EFF2FE1C8
S31580801380F04E2DE9D6FFFFEBF04EBDE81EFF2FE134
S31580801390704710B5044600F0DAFBE3070DD500F000
S315808013A0CCFDFFF7E8FEFFF7F0FE00F078FDFFF753
S315808013B0D7FEFFF7EDFF002010BD00F070FDFFF730
S315808013C0CFFEFFF7DAFEFFF7CBFE00F05FFDF0E79A
S315808013D00320FFF7DEBF59F017BB01EE300F704751
S315808013E0100F11EE0200C0E3100F01EE1EFF2FE1F9
S315808013F078009FE50700C0E300D0A0E1E25400FAC0
S3158080140000D0A0E10090A0E1E25400FA0000A0E3C1
S31580801410E85D00FA380099E50700C0E300D0A0E1D6
S31580801420049099E50CE08FE23C0099E500E08EE03F
S31580801430300099E51F0000EA1B0000EBB7FBFFEB4D
S315808014402C009FE52C309FE50010A0E3002053E020
S31580801450BA0000FA685D00FA675D00FB0900A0E1CA
S31580801460301099E510E09FE51EFF2FE110ECFFFF1D
S3158080147000FF304014E6878078A08880898D8180BF
S315808014800DC0A0E1F05F80E80000A0E31EFF2FE1A1
S31580801490F05F90E80CD0A0E10100A0E1000050E36D
S315808014A00000001A0100A0E31EFF2FE1300099E5BD
S315808014B0100F0CEE1EFF2FE108304FE264109FE57F
S315808014C0031081E0014050E01500000A54109FE52A
S315808014D0031081E050209FE5032082E0000CB1E874
S315808014E0000CA0E8020051E1FBFFFF3A3C109FE52B
S315808014F0032081E038109FE5033081E00300B2E865
S31580801500FF1001E2170051E30300001A040080E017
S31580801510001090E5041081E0001080E5030052E120
S31580801520F5FFFF3A1EFF2FE148EBFFFF5CD10700F6
S315808015305CD107000CD90800F0B591B06D4608AC37
S31580801540294622460026D9F8003003F1200CDF6B2D
S315808015500833C5E900769F6B6345C4E9007605F15B
S31580801560080504F10804F2D1042306F0F3F811B0DB
S31580801570F0BD704773B5D9F8003005465B6BD0F8FF
S31580801580946017480C46019338F050F948B1102181
S3158080159001AA55F0ECFA00281CDB0199114855F018
S315808015A02FFAFFF7E6FF104B104904F40074002CE5
S315808015B008BF19460E4855F023FA1FF08BFFFFF7B8
S315808015C007FFD5F8A4303BB1D5F8A02014B92046C2
S315808015D00199B04702B070BDD9F800309A6BF5E7B3
S315808015E022FA858029FA858026C686800BFA8580B0
S315808015F04EFA85807047000010B50446094838F059
S3158080160015F9D4F8A43033B1204603F065F920B1BA
S31580801610054854F0A1FC0548FBE72046BDE810400C
S31580801620FFF7E8BF1E37868067FA85807CFA8580DB
S31580801630F8B510F0C00704460D6914D110F4807691
S3158080164005D02846FFF7D8FF3E463046F8BD10F4D1
S31580801650C06F04D021462846FFF78CFFF5E72846E1
S31580801660FFF7CAFFF6E74FF0FF36EEE710B5044680
S31580801670D0F8A00060B108494AF0D8F8002807DD84
S31580801680D4F8A000FFF758FF10B1044819F0D5FEB2
S31580801690BDE81040FFF79CBEA3FA8580ABFA8580B3
S315808016A0D0F89430D0F8A0001847000010B590F894
S315808016B0254090F8243043EA042390F8264043EA74
S315808016C0044390F8274043EA0463184CA34207D02A
S315808016D0174CA34204D0174819F0AFFE012010BDE5
S315808016E090F8294090F8283043EA042390F82A40DD
S315808016F043EA044390F82B4043EA04630B6090F8F6
S315808017002D4090F82C3043EA042390F82E4043EA0B
S31580801710044390F82F4043EA046313600A680146C5
S31580801720054855F06DF90020D9E700BF18286F016C
S31580801730626F7800DF0A8680F30A86800000000068
S3158080174010F0030384463DD141EA012141EA0141FB
S315808017500B46102A1FDB2DE9004188468E46403A8B
S31580801760A1BFACE80A41ACE80A41ACE80A41ACE8E2
S315808017700A41F4DC08BFBDE8008112F0200F1CBF4F
S31580801780ACE80A41ACE80A4112F0100F18BFACE809
S315808017900A41BDE8004112F0080F18BFACE80A0084
S315808017A012F0040F18BF4CF8041B12F0020F1CBFF6
S315808017B00CF8011B0CF8011B12F0010F18BF0CF8F6
S315808017C0011B7047043AF0DB022BB8BF0CF8011B73
S315808017D0D8BF0CF8011B0CF8011B1A44B4E700BF74
S315808017E0884208BF70472DE91140043A4BDB10F0E0
S315808017F0030C91F800F05AD111F0030C71D11C3A88
S315808018002DE9E00114DB91F800F0603A91F81CF044
S3158080181005DB91F83CF091F85CF091F87CF0B1E8CA
S31580801820F851203AA0E8F851F7DA12F1600FF6DA2B
S3158080183012F01C0CCCF1200C18BFE74421E0AFF3EA
S31580801840008051F8043B51F8044B51F8045B51F801
S31580801850046B51F8047B51F8048B51F804EBE74410
S3158080186000BFAFF3008040F8043B40F8044B40F85B
S31580801870045B40F8046B40F8047B40F8048B40F8A6
S3158080188004EBBDE8E001D20718BF11F8013B24BF05
S3158080189011F8014B11F801CB18BF00F8013B24BF2A
S315808018A000F8014B00F801CBBDE811407047CCF1C0
S315808018B0040CBCF1020FC8BF11F8013BA8BF11F818
S315808018C0014B11F801EBC8BF00F8013BA8BF00F8B7
S315808018D0014BB2EB0C0200F801EBD4DB11F0030C68
S315808018E08DD021F00301BCF1020F51F804EB4ED06C
S315808018F000F39A801C3A39DB2DE9E00391F800F0F9
S31580801900603A91F81CF005DB91F83CF091F85CF038
S3158080191091F87CF0F0C94FEA1E23203AB1E8005353
S3158080192043EA04634FEA142444EA05644FEA1525A2
S3158080193045EA06654FEA162646EA07664FEA17277E
S3158080194047EA08674FEA182848EA09684FEA19295A
S3158080195049EA0C694FEA1C2C4CEA0E6CA0E8F81315
S31580801960D6DA12F1600FD5DABDE8E00312F01C0CEE
S315808019700AD04FEA1E2351F804EBBCF1040C43EAEB
S315808019800E6340F8043BF4DCA1F103017BE71C3A4B
S3158080199039DB2DE9E00391F800F0603A91F81CF08C
S315808019A005DB91F83CF091F85CF091F87CF0F0C919
S315808019B04FEA1E43203AB1E8005343EA04434FEA94
S315808019C0144444EA05444FEA154545EA06454FEAFC
S315808019D0164646EA07464FEA174747EA08474FEAD8
S315808019E0184848EA09484FEA194949EA0C494FEAB2
S315808019F01C4C4CEA0E4CA0E8F813D6DA12F1600F34
S31580801A00D5DABDE8E00312F01C0C0AD04FEA1E43FB
S31580801A1051F804EBBCF1040C43EA0E4340F8043BD6
S31580801A20F4DCA1F102012EE71C3A39DB2DE9E003D3
S31580801A3091F800F0603A91F81CF005DB91F83CF063
S31580801A4091F85CF091F87CF0F0C94FEA1E63203AF9
S31580801A50B1E8005343EA04234FEA146444EA052438
S31580801A604FEA156545EA06254FEA166646EA072651
S31580801A704FEA176747EA08274FEA186848EA09282D
S31580801A804FEA196949EA0C294FEA1C6C4CEA0E2CFC
S31580801A90A0E8F813D6DA12F1600FD5DABDE8E00354
S31580801AA012F01C0C0AD04FEA1E6351F804EBBCF18D
S31580801AB0040C43EA0E2340F8043BF4DCA1F10101D7
S31580801AC0E1E600BF0020704708B5D9F800300E489F
S31580801AD0596B08F05BFB0D48D9F8901008F056FBDF
S31580801AE00B48D9F8341008F051FB0A48D9F83810D9
S31580801AF008F04CFBBDE808404FF40052D9F8D4106A
S31580801B00054854F07DBF00BFD9F18580E5F1858099
S31580801B10EEF18580F5F18580FFF18580D9F83820D2
S31580801B200020C9F83420D9F83820103AC9F83820EE
S31580801B30704746F0C9BB0000D9F83430024A083372
S31580801B4000201360704700BF40008080704700206F
S31580801B507047000008B5014854F0FEF9BBF28580D5
S31580801B602DE9F0450446A3B080224D4902A8FFF7AF
S31580801B7037FEA26BE16B4B48256C54F041FFD9F858
S31580801B80202005F07046D2070AD5D9F83C10A06B84
S31580801B90D9F83C20E36B821A591A434854F030FFB7
S31580801BA0E36A226B616B414854F02AFF236A626A3A
S31580801BB0A16A3F4854F024FF23693E4800936369B5
S31580801BC0A269E16954F01CFF23683B480093E16871
S31580801BD06368A26854F014FF002EB4BF4E216E2134
S31580801BE015F0804F14BF5A227A2215F0005F14BFF9
S31580801BF04323632315F0805F14BF562076200090A0
S31580801C002E4854F0FDFE236C2D4A2E4813F0800F0B
S31580801C1014BF0146114613F0400F18BF024622AD0D
S31580801C2003F01F0005EB8000274D13F0200F274B14
S31580801C3008BF2B46009350F8803C254854F0E0FE40
S31580801C40276CE56B17F0200716D1082625F003054B
S31580801C5015E035F81420002C0CBF4046504631469E
S31580801C6054F0CEFE013413E0022CF2D1194823B011
S31580801C70BDE8F04554F0C4BE042625F0010516481B
S31580801C8054F0BEFE6FF00304DFF85080DFF850A07A
S31580801C90002FE9D1002CE9DC55F82420DBE700BF52
S31580801CA0A8AE8580B8E08680B2E08680DAE08680DD
S31580801CB0FEE0868022E1868052E1868082E186808F
S31580801CC0413D8780CE31868026C686809FE086800D
S31580801CD092E186800ECD8680B1E18680A4E0868082
S31580801CE0ACE08680044608B540F024FF064854F070
S31580801CF087FEE36B2046043BE363FFF731FFE06BAF
S31580801D00FFF717FFFFF726FF165A8680044608B529
S31580801D1040F010FF064854F073FEE36B2046043B88
S31580801D20E363FFF71DFFE06BFFF703FFFFF712FF0B
S31580801D30F6558680044608B540F0FCFE064854F089
S31580801D405FFEE36B2046083BE363FFF709FFE06BAA
S31580801D50FFF7EFFEFFF7FEFEEE548680044608B559
S31580801D6040F0E8FE064854F04BFEE36B2046083B85
S31580801D70E363FFF7F5FEE06BFFF7DBFEFFF7EAFE36
S31580801D8001388680044608B540F0D4FE064854F073
S31580801D9037FEE36B2046083BE363FFF7E1FEE06BAB
S31580801DA0FFF7C7FEFFF7D6FE1B548680044608B52C
S31580801DB040F0C0FE064854F023FEE36B2046083B85
S31580801DC0E363FFF7CDFEE06BFFF7B3FEFFF7C2FE5E
S31580801DD0F43F8680044608B540F0ACFE064854F051
S31580801DE00FFEE36B2046083BE363FFF7B9FEE06BAB
S31580801DF0FFF79FFEFFF7AEFEF93F868070470000B3
S31580801E0008B5064819F019FB19F034FBFFF79FFED9
S31580801E10FFF7F4FF00F034F9002008BD96558680E0
S31580801E200144FFF7CBB9000008B540EA01039B0661
S31580801E300A4605D00146034854F0E2FD002008BDDD
S31580801E400120FCE7300B86804FF48042C9F89420CD
S31580801E50D9F89410D9F830200020521AC9F8302049
S31580801E60D9F83020120C1204C9F83020D9F83020E5
S31580801E70C9F890207047FFF7E7BFD9F8903041EADC
S31580801E80005141F4406143F82010704711EE103FB5
S31580801E9043F4805301EE103FBFF36F8F704711EE8E
S31580801EA0103F11EE103F23F4805301EE103FBFF3B5
S31580801EB06F8F704711EE100FC0F30030704710B5EA
S31580801EC011EE104F14F001042ED1FFF765F92046EC
S31580801ED012210134FFF7D1FFB4F5805FF7D100205E
S31580801EE000F0EEF8012000F0EBF8022000F0E8F830
S31580801EF0032000F0E5F8002302EE503FD9F89030B9
S31580801F0023F47F5323F03F0343F0590302EE103FBF
S31580801F104FF0553303EE103F11EE103F43F001032F
S31580801F2001EE103FBFF36F8F11EE103F43F0040335
S31580801F3001EE103FBFF36F8F10BD10B511EE103FCD
S31580801F405B0709D511EE104FFFF717F924F00504CA
S31580801F5001EE104FBFF36F8F10BD11EE100FC0F3DF
S31580801F6080007047034BD3F80006BFF35F8F000F66
S31580801F70704700BF0000E144034BD3F80006BFF3EF
S31580801F805F8FC0F30F3070470000E14438B5FFF7AC
S31580801F90F3FF4BF64413984223D04BF68C1398422A
S31580801FA022D04BF61E01144C144B154A884208BF2A
S31580801FB01C46FFF7D7FF022819D8FFF7D3FF52F8C0
S31580801FC0205000F067F8032813D800F063F80D4B93
S31580801FD053F820202B4621460B4854F011FD0020D3
S31580801FE038BD074A094CE4E7094A0A4CE1E70A4DBD
S31580801FF0E7E7094AEEE700BFACD386809ED386802A
S31580802000F05F878098B58580BDD3868097D386801C
S31580802010FC5F8780A5D386805849868008B500F086
S3158080202025F8002008BD4FF0804108B54FF000406C
S315808020301AF025FBC9F81800002008BD4FF0004132
S31580802040D9F800200020D163D9F80020D9F818303B
S315808020501364704713B5482001A91FF02FFD0446ED
S3158080206008B931F027FE204602B010BD024B034AE4
S315808020701B681A60704700BF08608780E8B08580DB
S31580802080BFF35F8F0122024BC3F8002F704700BFDA
S315808020900000E044044B1B681B681B681868BFF30C
S315808020A05F8FC0F3022070470860878008B5FFF78E
S315808020B001FF08B9FFF7EAFEBDE80840FFF7FFBEDB
S315808020C038B5D9F8003003EBC000056CC46B2D0D94
S315808020D005EB1455240DA54200D838BD20460E2127
S315808020E0FFF7CBFE0134F6E754109FE5000081E5CB
S315808020F07DF8FFEAF05F2DE900C0A0E10100A0E154
S315808021004FF07FF55FF07FF5700060E1F09FBDE86E
S31580802110F05F2DE9FF60A0E300C0A0E34FF07FF57C
S315808021205FF07FF5700060E1040000EA00F020E354
S31580802130FEC0A0E34FF07FF55FF07FF5700060E131
S31580802140F09FBDE824B4304000207047D9F8003035
S31580802150014A00209A6370470001008030B585B0BF
S31580802160FFF798FF022803D13C493D4837F00EFBA4
S315808021703C4BD3F83026BFF35F8FD3F83436BFF32A
S315808021805F8F39480293ADF80C2037F04FFBD0B97A
S31580802190364854F035FC9DF80830D90713D49DF81D
S315808021A0092013439DF80A2013439DF80B2013437F
S315808021B09DF80C2013439DF80D20134303D02A48A5
S315808021C002A937F085FB274BD3F83826BFF35F8F7C
S315808021D0D3F83C36BFF35F8F25480293ADF80C2049
S315808021E037F024FBB8B99DF80830DA0713D49DF808
S315808021F0092013439DF80A2013439DF80B2013432F
S315808022009DF80C2013439DF80D20134303D0184866
S3158080221002A937F05DFB174837F008FB60B916488E
S3158080222037F004FB0446104837F000FB05465CB95E
S315808022302946104837F0AAFA002101AA1E201FF0ED
S31580802240C1FB002005B030BD072220460B4953F0E4
S3158080225063FB0028ECD02146EBE700BF32E5868021
S31580802260F1F585800000E144FAF5858002F6858067
S3158080227032F685803BF6858043F6858050F685806C
S3158080228010B514461A46029B8A42134408D88B425C
S315808022900CD90146084854F0B3FB6FF0110010BD8D
S315808022A0A242F6D3A342F4D90020F8E7A242FBD219
S315808022B0A342F9D3EDE700BF650B86802DE9D04D2B
S315808022C02F4C8046E06F89B00E4692461F46DDF8D9
S315808022D040B078B930462B49022200910B1F002EE0
S315808022E018BF30469C3902F021F980B1264819F012
S315808022F0A4F826E002F0FCF80328EBD1404654F09F
S31580802300A9FB014603A853F0C5FA03A8E3E7D4F8EE
S315808023109810D4F89C2061B91C4B51461A1F0193A2
S31580802320009240460222A43B05F01CFD68B1184805
S31580802330DDE73B461748CDF800B0FFF7A1FF0028C0
S31580802340EAD0012009B0BDE8D08DD4F8A010D4F8A9
S31580802350A42061B9D4F8A0000AF0B0FC084802F045
S3158080236049FA0028EED00C4854F04AFBE9E73B4610
S315808023700A48CDF800B0FFF783FF0028E1D1E9E76E
S3158080238014E68780B0E68780B9FE8580B8E6878048
S31580802390E1FE8580DEFE858005FF85808D8B86804B
S315808023A0FFF7D5BB2DE9F04D0469CF07D4F8C0304F
S315808023B0064643EA01030D468EB0C4F8C0300DD57B
S315808023C0AD4FC42200213846FFF7BAF9AB4837F0C3
S315808023D0B3FA0123C7F8BC00C7F8C030280504D5F6
S315808023E0306810B1002154F0BCFBA90740F193817D
S315808023F04FF0000B0DAA0CA93068CDE90CBBD6F83E
S3158080240014A002F04BF89C4F8046C7F888B0C7F876
S3158080241084B002F06DF8022800F0A080032800F0D6
S31580802420B980012840F0CB804146954854F0E8FA3F
S31580802430D8F80020934BD7F8BCB09A4205D0924802
S3158080244018F0FBFF6FF01501C2E0404601F0EEFD0B
S3158080245008B98E48F4E7404601F0F2FEBBF1000FE2
S315808024600DD08B4818F0E9FF404601F0F4FD18B98D
S31580802470884854F0C5FAE5E7874818F0DEFF98F873
S315808024801D10022903D0854854F0BAFADAE7B8F1EC
S31580802490000FD7D098F81E30042B11D00ED8012B80
S315808024A002D0022B40F08B8008F14003C7F884303D
S315808024B0D8F80C301BBAC7F8883007E00E2BF1E7C6
S315808024C0774B002140461A1F01F0DFFD40224146AE
S315808024D0744853F0E7FA0123C7F800807B6440464E
S315808024E002F006F8022878D0032800F0A780012819
S315808024F040F0C080002098F81E3087F8913098F898
S315808025001F3087F8903098F81C3087F89230D8F84A
S315808025100C301ABA08F140031344C7F88030D8F8D3
S3158080252010301BBAC7F88C3098F81D3087F89330F6
S3158080253097F89330032B02D0182B40F0D5805A4AD7
S3158080254003210DABA2F1940002F052F9002880F2AB
S31580802550D380023000F0D080544845E007F188036C
S31580802560059307F18403049364230190029300907A
S3158080257041463846CDF80CB00CAB0DAA06F0E0FC8F
S31580802580002823DB0D9BC7F84C803B650C9B7865C8
S31580802590BB64A4E74146464854F032FA07F1880383
S315808025A0009359464046D7F8BC2007F1840302F051
S315808025B007FE0146002892D010F15B0F08D1514664
S315808025C03C4854F01DFA6FF05A0101E06FF001012A
S315808025D0394854F015FA012716E1384A796DF86C36
S315808025E005F08AFE18B1364818F027FFF3E7354A9A
S315808025F0796DF86C05F094FE08B13348F4E7334A78
S31580802600796DF86C05F050FE08B13148ECE7314AB7
S31580802610796DF86C05F05CFE08B12F48E4E7F86CBC
S3158080262006F05AFA2D4AC7F88000796DF86C05F065
S315808026309FFE00283FF47CAF2948D5E702230021FE
S31580802640404687F8913002F099FD0523002187F86E
S315808026509000404687F8923002F07EFD0021C7F8D0
S315808026608000404602F06AFEC7F88C00C7F8940066
S3158080267001205DE71B48B7E714E68780B8518680DE
S315808026802704868027051956AD9B8680C29B8680C7
S3158080269059048680DA9B8680740486807804868056
S315808026A09CE6878018E68780A8E68780A80586804E
S315808026B097048680C0048680E1048680A5E687802C
S315808026C005058680A4E687801C058680A6E68780A9
S315808026D03A058680A7E687804F058680A0E6878034
S315808026E066058680850586807B6C002B00F09080D1
S315808026F0BB691BBAC7F8943097F891300E2B08D1F6
S31580802700D7F88420D7F89430C7F88C201344C7F83C
S315808027109430C7F87C806A0724D53068002800F01A
S315808027208880002154F01DFAAB4F716897F891C06C
S31580802730B268BCF10E0F15D8A84B43FA0CF3DB07B1
S3158080274010D497F89270052F05D01C2F0AD8A44BE9
S31580802750FB40DF0706D500230093FFF7AFFD0746D2
S31580802760002851D115F0080800F09E80FFF7EFF918
S31580802770E36F80460893D4F88030D4F884B0099388
S31580802780D4F88C30D4F88820079394F8913094F8D4
S3158080279090A00E2B50D1BAF1000F4DD0900000F54D
S315808027A07F2000F6FF70000D4FF4001100050B931B
S315808027B00A9252F08FFB0746002800F006810A9A1B
S315808027C00B9BC4F894000DA904914FF400010292EA
S315808027D003915A4639465046CDE9007B01F0C2FCCA
S315808027E00D9900283ED007905046CF1B01F01EFDE4
S315808027F0079A014612F1260F20D1B8F1000F01D039
S31580802800FFF7A4F96FF0020738460EB0BDE8F08D69
S315808028103B6D4BB1734A796DF86C05F0AFFD00283E
S315808028203FF46AAF7048DFE600287FF465AF6F4873
S31580802830DAE66F4B186877E7079FC4E7B7F5000F2E
S315808028400CD36C4854F0DCF86B4854F0D9F8B8F166
S31580802850000F00F091804FF0FF3785E0674854F095
S31580802860CFF8F1E7079B23F03F00CB1B3F3121F068
S315808028703F01091AC4F88830FFF7D2FA0D99BAF168
S31580802880000F01D1BB4548D0099BBB4245D9089BE7
S315808028908B4242D2636C002B3BD094F82230042B3F
S315808028A002D1574818F0C9FDEB0617D5D4F89800A1
S315808028B0D4F89C1004F1AC0304F1A802091A01F043
S315808028C045FF074600289FD1D4F8A8104D4836F09A
S315808028D08BFFD4F8AC104C4836F086FFAF0622D4F6
S315808028E094F8920000F09EFA824650BB15F4F86FF9
S315808028F027D0B8F1000F01D0FFF728F994F892001D
S3158080290001F012FC94F892200146404854F078F801
S3158080291061E63F4818F091FD99E7D4F88C00091A52
S3158080292052F0C2FAC0E7D4F8A00005F0F1F804F1BD
S31580802930A40104F1A00005F04FF907460028CFD006
S3158080294062E76C0620D4280629D4E9052ED415F4AE
S31580802950806733D0524631464FF4806000F04AFA21
S315808029600746B8F1000F01D0FFF7F0F8FA1C3FF464
S3158080297049AF7B1C7FF448AF264854F041F8FFF777
S315808029807FFB4FF0FF373FE731464020D0470746F1
S315808029900028D8D03946204854F032F834E731467A
S315808029A08020D04707460028CFD0F3E731464FF4C2
S315808029B08070D04707460028C9D0EBE7B8F1000F72
S315808029C03FF422AFFFF7C2F81EE7B8F1000F3FF45D
S315808029D002AEFFF7BBF8FEE514E68780EBBFFFFF0C
S315808029E000400014A8E68780D2058680F30586801D
S315808029F01060878017068680600686804706868078
S31580802A007D068680FE0686800B07868016078680F2
S31580802A10B70686806007868044078680024B41F6AB
S31580802A201F714361FFF7BEBCAF588680024B41F26F
S31580802A3010714361FFF7B6BCD90A868010B5202213
S31580802A4000210446FEF77CFE01232373014B23611C
S31580802A5010BD00BF14E6878070470000B0F5806F98
S31580802A6010B50DD10B695A6C42B1D3F894400548A4
S31580802A70214653F0C5FFD9F80000A047012000E029
S31580802A80002010BD30358680B0F5806F08B509D1BD
S31580802A90002308691A460221D0F8940054F0BAFBC4
S31580802AA0012008BD0020FCE7B0F5806F38B515D1D0
S31580802AB001230C690A48D4F8945084F891302946C9
S31580802AC053F09EFFD4F8A420D4F888100AB1D4F8A5
S31580802AD0A0202846BDE838403FF002BE002038BDA1
S31580802AE06D3486802DE9F04104460F46984600264F
S31580802AF0151FBE4201DBBDE8F0810EB104F8018B63
S31580802B0055F8041F204652F0C5FE286852F021FFF2
S31580802B1001360444EDE70000B0F5806F70B50C4651
S31580802B2023D10E69736CA3B1114836F07FFE48B10C
S31580802B30002154F016F8A169054661B10A23E2693D
S31580802B40FFF7D0FFD6F894400A48214653F058FFC5
S31580802B50A04701200AE0084836F068FE0146002832
S31580802B60F0D0284652F096FEECE7002070BD00BF7C
S31580802B70ED348680F63486801E37868038B50C465E
S31580802B800D6936F0EFFE30B9D5F88810054836F0F5
S31580802B902BFE002038BDD5F89430E169A06998472E
S31580802BA0F7E700BF6935868030B5B0F5806F0C4613
S31580802BB087B021D10B695A6C12B9012007B030BD1C
S31580802BC002ADD3F894200D49284653F0F9FEE36987
S31580802BD01B68CDE90035FFF7C0F9044608B1FFF7D9
S31580802BE0ACF900216B460222084609F0BBFD002C19
S31580802BF0E3D0FFF764F9E0E70020DFE758A386801B
S31580802C00B0F5806F2DE9F3410C4641D10E69736C26
S31580802C1053B396F822303768042B27D00027A369D0
S31580802C20002B2DDD0025A846E36953F8250052F058
S31580802C3090FEA36901350130AB428044F4DC404686
S31580802C4018F0E2FE2023E269A1690546FFF74AFF74
S31580802C50D6F894401048214653F0D2FE2B4639460A
S31580802C60D9F800000D4AA047012012E001AB6A46E0
S31580802C700121384601F009FA019B002BCED0CEE7A0
S31580802C80074836F0D3FD054D002818BF0546DFE797
S31580802C90002002B0BDE8F081A434868026C6868076
S31580802CA01E3786802DE9F045044685B047480E4616
S31580802CB036F0BCFD054660B307464FF0000A2846CD
S31580802CC052F047FE7B1B98420ED8BAF1000F20D077
S31580802CD0E20502D53E4853F093FE3146204605B044
S31580802CE0BDE8F045FEF7A4BCB84618F8012B3D2A0E
S31580802CF00DD163B117F8013C662B08D1002140467F
S31580802D0053F02FFF10F0010F18BF4FF0010A47468E
S31580802D10D5E7E30502D52F4853F072FEB4F5806F70
S31580802D2051D13469D4F8A430D4F8A0000393002814
S31580802D3036D004F0EDFE03A904F1A00004F04CFF28
S31580802D40054648BBD4F8A00004F086FD2946224A71
S31580802D50D4F8A00049F01DFA031E01DA023314D19B
S31580802D601A4836F063FD0546D0B1D4F8A06052F09B
S31580802D70F0FD01231844019300902B463046134A78
S31580802D80164904F06DFB00280ADA48F0BDFF144925
S31580802D900246144853F034FE012005B0BDE8F08524
S31580802DA02046FEF763FCD4F8A020D4F894100E4811
S31580802DB053F026FE18F05EFB2046FEF771FC0B482A
S31580802DC018F03BFBE8E70020E7E700BF1E378680E8
S31580802DD07235868089358680AF358680AE358680A9
S31580802DE0ECE58580B6358680C935868005368680D1
S31580802DF07047704770B50D4604461646FFF7F8FF54
S31580802E00FFF7F7FF29462046B0472B6993F8913024
S31580802E10012B05D0B4F5007018BF4FF0FF3070BD20
S31580802E200020FCE7014B53F820007047C8B28580AC
S31580802E3007B52B2001A91EF041FE28B901981EF006
S31580802E406EF803B05DF804FB0020FAE737B5FFF72C
S31580802E50EFFF01A904462B201EF030FE50B95CB1ED
S31580802E60019B20461B68DD6B53F0DBFF21462B6878
S31580802E700198984703B030BD6FF01200FAE70000E2
S31580802E8073B504460E461248002136F0F7FC054697
S31580802E9038B9104853F0B4FD6FF01504204602B05F
S31580802EA070BD3146204604F059FD01A8019504F095
S31580802EB0C3FD08B90848EDE72046019904F096FDE0
S31580802EC004460028EAD0054853F09AFDE6E700BF1D
S31580802ED00A78868021788680507886806C7886800D
S31580802EE003681A780AB10A2A00D1704701330360D1
S31580802EF0F6E700008268014602B94268014853F0CD
S31580802F007FBD00BF35A586802DE9F0411F460B78B1
S31580802F1004462F2B0D469046ADF5087D1AD1037B4E
S31580802F20C3B100238DF81C30284652F012FD064628
S31580802F3007A852F00EFD0644B6F5007F11D92A46C1
S31580802F40154807A953F05CFD6FF023000DF5087DC9
S31580802F50BDE8F0814FF40072216907A852F0A2FC87
S31580802F60E2E7294607A852F0A9FC07A90B4853F047
S31580802F7047FD42460A4902A853F022FD20466568ED
S31580802F8001AB02AA07A9A8470028DFDB0FB1019B06
S31580802F903B600120DAE700BFAE928680C992868048
S31580802FA058A3868073B5044610460D461E4636F075
S31580802FB0A7FC68B1102101AA53F0D9FD00280ADB4D
S31580802FC0334629462046019AFFF79EFF02B070BDA0
S31580802FD06FF00100FAE76FF01500F7E710B5044649
S31580802FE0406818F05FFCE06818F05CFC206918F097
S31580802FF059FC606918F056FCA06918F053FCE069AA
S3158080300018F050FC206A18F04DFC606A18F04AFC73
S31580803010A06A18F047FC2046BDE8104018F042BCF4
S315808030202DE9F84507680C4698463946054617487F
S315808030308A4611F8013B33B1202A02D1C65CB60696
S3158080304001D49A42F4D1AAEB0706701C18F0DCFCF6
S31580803050206050B100210D488E42226807D100231E
S3158080306093550123C5F800A06360BDE8F8855318A1
S315808030707A5CB8F1000F06D010F802C01CF0010F00
S315808030801CBF2032D2B21A700131E5E762EA8580B0
S31580803090F7B50C46172103680546002001936160C9
S315808030A01E4613F8011B202919D0092917D000B193
S315808030B001962329019B06D10021184613F8016BBE
S315808030C07EB901B10190019B19780A290DD1002220
S315808030D0013362600193019B2B6003B0F0BD0120B8
S315808030E0DEE70A2EEDD00121E7E709B90222EFE774
S315808030F0022A06D100230A22214601A8FFF790FFE3
S31580803100E9E701232022214601A8FFF789FF0027CE
S31580803110074E56F837100029DDD0206852F0F1FB33
S3158080312020B906EBC70673686360D4E70137F0E79A
S3158080313074BD858073B502220D466946044606684D
S31580803140FFF7A6FF0198012809D0216832460548F5
S31580803150891B53F055FC6FF0150002B070BD009B43
S315808031602B60FAE7E9CC8680F7B50E46022269465F
S3158080317005460768FFF78CFF019C012C09D02968DA
S315808031803A460A48C91B53F03BFC6FF0150003B0E2
S31580803190F0BD009D0A220021284653F009FD30604B
S315808031A0284618F07FFB2046F1E700BF09CC868051
S315808031B010B50446084836F0A3FB48B12246102154
S315808031C053F0D5FC0028ACBF00206FF0150010BDF1
S315808031D06FF00100FBE700BF6935868010B5142942
S315808031E0044686B006D8144853F00AFC6FF01B005C
S315808031F006B010BD57F0BEF804AA01460F4857F0B6
S315808032003DFAA8B19DF81530204603939DF8143079
S315808032109DF8102002939DF81330094901939DF8FB
S31580803220123000939DF8113053F0CAFB0120DFE7FE
S315808032306FF00100DCE700BF6C8F8680C04E878090
S315808032408C8F86802DE9F04D00250C46ADF6D80D05
S31580803250874B2946192207461EA8119312951395E6
S31580803260149515951D95FEF76BFA294625950125AA
S31580803270402226A8FEF764FA2046FFF73BFE636B62
S31580803280256323B3A36B002B05DA002528460DF62C
S31580803290D80DBDE8F08D774836F032FB054600289C
S315808032A0F3D0A06950B10DF59B614FF4806213F025
S315808032B001FC71480DF59B6136F068FA284652F01C
S315808032C048FB00220146284619F0E1FADDE72169AC
S315808032D021B96168694853F093FBD7E73846684AD5
S315808032E0FFF760FE002802DA61686648F3E7644883
S315808032F036F09CFA636908900993CBB152F029FB2A
S315808033000646606952F025FB06440136304618F041
S315808033107BFB099018B95C4853F072FBB6E763690A
S3158080332031460093594A089B53F037FB099B089393
S31580803330E169002969D1E3690793002B6DD1E36A3E
S31580803340D90717D5524836F071FA0546514836F076
S315808033506DFA0646504836F069FA80464F4836F010
S3158080336065FA334601902A464D49CDF8008025A8D6
S3158080337053F026FBE36A9A070CD54A491DA852F07A
S3158080338089FA15211FA8FFF729FF0028BCBF0023D3
S315808033908DF87430E36AA5699B0702D1002D00F011
S315808033A0AC800021404E4FF47F7237A83691FEF76D
S315808033B0C7F9002D14BF2846304652F0CAFA054612
S315808033C025A852F0C6FA05441DA852F0C2FA0135E6
S315808033D00544B5F5806FA16970D9002914BF084668
S315808033E0304652F0B6FA044625A852F0B2FA05461F
S315808033F01DA852F0AEFA4FF48062034600922146B1
S315808034002A462A4853F0FCFA2CE0E06852F079FA92
S31580803410002890D1089B079391E73846244A0799DC
S315808034200DF59B63FFF7BEFD002804DA61682148AD
S3158080343053F0E6FA16E0DDF8D854284653F00AFBB6
S3158080344001460EA852F026FA194836F0EFF91C216B
S3158080345003460790184A009516A853F09EFA1B28B3
S315808034607FF66DAF099818F01DFA01250EE700BF2B
S31580803470AF588680A0A286801E378680A9A2868045
S31580803480C7A28680D5A2868000A38680B593868053
S315808034905CA3868063A386806CA3868076A38680E1
S315808034A07EA386808EA3868026C6868097A3868086
S315808034B01BA386802AA3868055A3868021B14FF45C
S315808034C0806236A852F0EEF925A936A852F0F6F930
S315808034D01DA936A852F0F2F94FF480620DF59B61F2
S315808034E036A813F0E7FA0DF59B61944836F04EF9CD
S315808034F093480DF59B6153F083FA924836F096F99E
S31580803500216A149011B3E06852F0FBF9F0B9089BF8
S315808035101493089B1293079B002B00F0C181032490
S3158080352016AB1393149B1BB9874836F07FF914909A
S31580803530089800F0D1FF149B0546002B00F0B281DD
S31580803540139B002B00F0C6810424B7E1149B002BCB
S31580803550DFD0D4F820A0BAF1000F40F08380636A70
S31580803560002BD5D0794836F061F90546002855D1AB
S31580803570774836F05BF90546764836F057F98046C7
S31580803580002D48D1DFF8D0B15D46744BB8F1000F7D
S3158080359002D1DFF8C481C346606A0A9352F0D9F9B2
S315808035A00A9B00283ED0626A6B49024412F8010C5D
S315808035B06B4A2F2808BF0A46606A0D930A9252F09A
S315808035C0C8F90A9A064610460C9252F0C2F9064409
S315808035D0284652F0BEF90A90584652F0BAF90A99AE
S315808035E08246013640460E4452F0B3F90D9B0B90CD
S315808035F018460A9352F0ADF90B9956440E44064408
S31580803600304618F001FA0A9B82460C9A60B9554872
S3158080361053F0F6F926E7DFF850B1B6E74E4B984679
S315808036209B46B9E7514AC7E78DE824080493CDF8CD
S315808036300C803146636A4E4A53F0AFF95546002373
S315808036405146404A3846FFF7ADFC0646284618F074
S3158080365029F9002E0DDA00231493236A23B1616839
S315808036604448E5E60025EAE7616A11B1424853F0AD
S31580803670C7F9A56A95B1334836F0D8F8002153F05A
S3158080368070FA804647F0A4FC064638B93B4836F047
S31580803690CDF8002878D13A4853F0B2F9FFF7D6FBB7
S315808036A00028FFF636AFFFF7C3FB064600283FF4B7
S315808036B030AF0021234836F0E1F8834647F088FC16
S315808036C000287FF426AF606A002800F0B28052F02E
S315808036D040F90546002800F0A980636A204A0344A1
S315808036E013F8011C1C4B2F2914BF92469A465046CC
S315808036F052F02FF9013505442946012018F094FBB4
S31580803700804600283FF405AF636A134ACDF800A04F
S31580803710002B08BF134629461A4A53F03EF9D6F83D
S3158080372000A0C021F288336801FB02339A45C0F03D
S315808037308480404618F0B6F8EBE600BF1E37868058
S31580803740BDA38680C9A386801DA58680D4A3868056
S31580803750DCA38680B248878026C68680EE63868094
S315808037609D3B8680E0A38680F55B87809DA2868050
S31580803770FCA3868009A4868031A4868060A4868006
S3158080378072A48680B5938680314653F0EAF9824664
S31580803790DFF850B12B78202B2FD05946284652F00F
S315808037A0A5F90A9058B3421B501C0B9218F02CF93D
S315808037B00B9A2946064652F075F800230B9AB35425
S315808037C0304652F0C6F858B1002331463846464ACC
S315808037D0FFF7E8FB002814DA3146444853F010F9A5
S315808037E00A9B13B1304618F05DF82846594652F048
S315808037F07DF905460028CDD150E70135CAE72E46AA
S31580803800DEE74FF40051404604F0A8F8504647F072
S31580803810DFFB10B131463648E0E75146404604F03A
S31580803820E5F80028DCD031463248D7E7DFF8C8A0F3
S315808038305DE70225DFF8C4A05EE70AF160031846DB
S315808038400B9352F086F8291801200A9118F0ECFA29
S31580803850044600283FF46DAF0B9B294A0A99009352
S31580803860434653F09AF821463846264A0DF59B639F
S31580803870FFF798FB002809DA21461C4853F0C0F8E8
S31580803880204618F00FF80AF1C00A4AE75846DDF854
S31580803890D814FFF7F5FA0028F2D021461A48EDE7CA
S315808038A002243FE600F024FE022803D0174835F034
S315808038B0BDFF1490149B002B7FF442AE284600F007
S315808038C017FE2246014611AB38B10021386806F0D2
S315808038D04BF9C7E50E4B139336E6386806F00CFF36
S315808038E0C0E500BF21C5868060A48680A2A486802C
S315808038F0BDA48680DBA486809DA286809D3B8680B3
S31580803900B59386800A78868001A5868026A586805E
S31580803910F55B878013B501AB1446FFF7F5FA00286F
S31580803920A1BF00220120019B1A5502B010BD000064
S315808039302DE9F34D0D46D1F800B0064601A92846FB
S3158080394092461F46DDF82880FFF7F4FB041E09DACD
S315808039505A4629680F48891A53F052F8204602B091
S31580803960BDE8F08D019D524629463046FFF7D2FF4D
S31580803970041E04DA2946084853F042F8EEE73B46AF
S31580803980524651463046CDF8288002B0BDE8F04D8B
S3158080399000F004B8A0948680BD9486802DE9F04D91
S315808039A08EB01E46169B8046102B0F46059103923D
S315808039B040F34D811021A04853F022F86FF01E0409
S315808039C020460EB0BDE8F08D4FF0010A3846C6F825
S315808039D014A051F0BEFF524604460CA905A8059D49
S315808039E0FFF756FB0D9B0E2B08D0142B1AD0042B79
S315808039F01BD1314605A8FFF79DFB0CE0169B0399EA
S31580803A00221D013322F0030200930A443346404646
S31580803A1005A9FFF78DFF00280446D1DB05A8FFF7AF
S31580803A205FFA14E106F10C01E4E72A46059983489A
S31580803A30491B52F0E5FFF1E706F1100105A8FFF773
S31580803A4093FB04464AE14820059C17F0DDFF054636
S31580803A5010B96FF00B04B3E748220021FDF770FEA2
S31580803A60291D05A8FFF766FB00280BDA05992246F3
S31580803A70091B734852F0C4FF2846FFF7AFFA6FF0F0
S31580803A8015049DE7F26905F1400306F11801F3619B
S31580803A9029646A64136001220AA905A8059CFFF738
S31580803AA0F7FA0B9B152B00F2D18001A252F823F0F6
S31580803AB0973A80804D3C80804D3C8080093B8080D9
S31580803AC04D3C80804D3C80804D3C8080513B8080C9
S31580803AD0513B80808F3B8080DD3B80801D3C808019
S31580803AE04D3C80804D3C80804D3C8080F33B808007
S31580803AF0013C80800F3C80804D3C80802D3C808046
S31580803B004D3C8080333C808001220CA905A8059C91
S31580803B10FFF7BEFA0D9B062B0DD00C2B11D1736847
S31580803B202BB9686851F05FFF7060002891D005A836
S31580803B30FFF7D6F9AFE705F1080105A8FFF7FAFA8E
S31580803B40F5E705992246091B3C4852F059FFEEE776
S31580803B5005F1100105A8FFF7EDFA041EFFF630AFD8
S31580803B60286951F040FFE86000283FF472AF3549FC
S31580803B70286951F0BBFF044600288CD051F033FF72
S31580803B80686100283FF465AF0023237083E705F1E1
S31580803B90180105A8FFF7CEFAEB6904460493CBB9E2
S31580803BA02949A86951F0A2FFA0B100F1070B202115
S31580803BB0584651F0C1FEA0EB0B0A0AF1010017F0BE
S31580803BC023FF52465946E86151F06CFEEB69049AB0
S31580803BD003F80A20002CBFF65EAFF1E6EB69002B76
S31580803BE07FF459AF05F11C0105A8FFF7A3FA0446B7
S31580803BF0F0E72B6A002B7FF44EAF05F12001F3E7C7
S31580803C006B6A002B7FF447AF05F12401ECE7AB6A42
S31580803C10002B7FF440AF05F12801E5E7012305F10C
S31580803C2038016B6305A8FFF79FFAE0E705F12C0161
S31580803C30F8E70123EB632EE760CC86807FCC868095
S31580803C40A6CC868026288680C1CC86800594012253
S31580803C5008A905A8059CFFF71BFA099B162B6AD82D
S31580803C6001A252F823F000BF4F3C8080373D808090
S31580803C70413D8080C9398080373D8080393A8080D7
S31580803C80473A8080373D8080373D8080373D808051
S31580803C90373D8080373D8080C53C8080213D8080D7
S31580803CA0FF3C8080373D8080373D8080373D808077
S31580803CB0C53C8080373D8080373D8080373D8080A1
S31580803CC0E33C808007A905A8FFF734FA079D044660
S31580803CD025B1706808B117F0E5FD7560002CB6DAFD
S31580803CE06EE607A905A8FFF725FA079D0446002DED
S31580803CF0F4D0B06808B117F0D5FDB560EEE73846E8
S31580803D0051F027FE169B0399C21C013322F00302D1
S31580803D1000930A443346404605A9FFF709FE90E69C
S31580803D2006F1140105A8FFF71FFA041E8FDA05A88D
S31580803D30FFF7D6F844E6059922460248091B78E6BD
S31580803D4001243DE6C9CC8680F0B50546ADF5037D78
S31580803D5010480C46164651F0FCFD0746204651F029
S31580803D60F8FD3844B0F5007F224608D909490A48CB
S31580803D7052F046FE6FF023000DF5037DF0BD0749B6
S31580803D8001A852F01DFE3246284601A9FFF7C2FDE2
S31580803D90F2E700BF709286807E9286809E92868031
S31580803DA070B504462546006817F07CFD606817F07C
S31580803DB079FDA06817F076FD55F8180F0668A84239
S31580803DC004D12046BDE8704017F06CBD4038FFF7BF
S31580803DD005F930463668F2E773B5054620200E46EB
S31580803DE017F012FE0446F8B120220021FDF7A8FCC8
S31580803DF004F11803A361E3610123324631460093BF
S31580803E0028462346FFF7CAFD6B7E064633B1A368F4
S31580803E106BB1094852F0F4FDA3686360002E03DA23
S31580803E202046FFF7BDFF0024204602B070BD0348C0
S31580803E3052F0E6FDF2E700BF20CC868039CC8680C2
S31580803E402DE9F04D00240D460B69444A8AB009332A
S31580803E50069083FB0220D917414BC1EBA0010093CA
S31580803E606A692346286803940294019417F03EFA7F
S31580803E70064600286FD03B4835F0D8FC2B4607464F
S31580803E80A246012253F8188F0593059B984533D116
S31580803E902FB1002C5BD13946334852F0B1FDBAF14F
S31580803EA0000F0BD05146304617F019F9012805D0FE
S31580803EB0023030D169682D4852F0A2FD09A930467A
S31580803EC017F032F90446304617F03EFA012C40D17D
S31580803ED009990698FFF7B6F900283CD0AC69059B0E
S31580803EE0A34238D054F8103C23B90698A4F14001F7
S31580803EF0FFF7A8F92468F2E7A8F1400B531C1C4908
S31580803F005846079352F05CFD5A465946304617F01C
S31580803F10ABF9012805D030460AB0BDE8F04D17F0E0
S31580803F2013BA696831B158F83C0C51F0EAFC002824
S31580803F3008BFDA463FB1394658F83C0C51F0E1FC6F
S31580803F40002808BF5C46D8F80080079A9DE7A2467D
S31580803F50A8E70234C2D00AB0BDE8F08D676666668F
S31580803F60F52E8080D3948680E6948680069586809A
S31580803F705BD486802DE9F04104461E4688461746E6
S31580803F8000211C22079DFDF7DBFB9DF81830C4F8C5
S31580803F90008023739DF82030676023769DF82430D7
S31580803FA0A66063768DB1284651F0D3FCB0F5007F4C
S31580803FB016D2284651F017FD2061A0B13DB9002365
S31580803FC000202269D054BDE8F0810848F2E72F218D
S31580803FD0284651F0DDFC0028F1D0401B431CEFE7DA
S31580803FE06FF01B00EFE76FF00B00ECE726C686804C
S31580803FF0006917F057BC000070B505461646FFF776
S31580804000EBFE044620B9084852F0FAFC012070BDC8
S315808040100EB10123436121462846FFF711FF2046D2
S31580804020FFF7BEFE0020F2E7EDD6868010B590B011
S31580804030044601464022684651F034FD00204022E5
S3158080404069460190FCF7CEFD63681BBAC31A584255
S31580804050584110B010BD10B50446C26800F14001C9
S315808040604FF4803312BA002050F06BFBA3691BBAE1
S31580804070C31A5842584110BD00F13C03002053F8C2
S31580804080042F02B970470130F9E7F8B50546164620
S315808040901F46FFF7F1FF884219D9002205F14004B7
S315808040A054F821303C351BBA3B6017468F4205D188
S315808040B0013004EB800010443060F8BD55F8043F31
S315808040C001371BBA033323F003031A44EEE700203B
S315808040D03860F1E7012938B505460DD9084C0222AA
S315808040E0284604F1080151F0F2FC18B154F80C3FCF
S315808040F0002BF4DC206838BD6FF01500FBE700BF2D
S3158080410050BC85800368002B01DA002070478B4283
S31580804110FCD00C30F6E710B50C461146FFF7F2FF5F
S3158080412000B18468204610BD024602490248FFF7E6
S31580804130F2BF00BF20918680D4D085800246024916
S315808041400248FFF7E8BF00BFF790868030CF858032
S31580804150024602490248FFF7DEBF00BF2B91868068
S31580804160B8D185802DE9F34D0E9FDDE90AA80446F6
S315808041703960D8B216460D46FFF7EAFFDDF834B0CF
S31580804180024604BB2349244B2448B54218BF1946AE
S3158080419052F036FC2946224852F032FC012C17D048
S315808041A0042C27D0ECB9B54208D00C9A93452CD3F1
S315808041B04FF480334146504600F06AF90C9B204686
S315808041C02B443B6013E00146164852F019FCE1E728
S315808041D04246594650460CAB4EF0B0FE10F1260F43
S315808041E016D12146104852F00BFC6FF0250002B0A4
S315808041F0BDE8F08D01AB524640460C99CDF804B0AF
S315808042004FF0CBF8019B0C93E8E76FF01B04D5E762
S315808042100446D3E7269B86802A9B8680329B86802F
S3158080422064DC86803B9B86804F9B868002460249E3
S315808042300248FFF770BF00BF0C91868074D085805E
S315808042402DE9FF41044600F1200320223749384872
S3158080425052F0D6FB3549374852F0D2FB207FFFF7A4
S3158080426063FF0646607FFFF769FF0546A07FFFF7FD
S315808042706FFF0746E07FFFF7D9FF3B4632462946E8
S3158080428000902D4852F0BCFB28492C4852F0B8FB50
S31580804290E06800BA00F03AFB2269244912BA2848BD
S315808042A052F0AEFB6269214912BA264852F0A8FBC9
S315808042B0A37F03F0FD02042A29D12046FFF7DCFE86
S315808042C01A490646204852F09BFB0025174FDFF897
S315808042D07C80B54202D104B0BDE8F08103AB29462B
S315808042E0204602AAFFF7D1FE2A463946404652F03A
S315808042F087FB039800F00AFBA37F062B05D125B1A7
S315808043003946029A124852F07BFB0135E1E7202B31
S31580804310E1D12169E2680F4809BA12BAA2F5005242
S31580804320403904B0BDE8F04152F06ABB088F868080
S31580804330909D8680A69D8680B79D8680C69D868038
S31580804340D79D8680ED9D8680039E8680109E868002
S31580804350209E8680389E868038B50446154623689A
S31580804360002B02DA4FF0FF3006E0606828B12946DC
S3158080437051F08CFA08B9206838BD0C34EFE700001C
S31580804380024602490248FFF7E7BF00BF23EC8680DA
S31580804390D4D08580024602490248FFF7DDBF00BF40
S315808043A053EF868030CF8580024602490248FFF7E8
S315808043B0D3BF00BF24EB8680B8D185800246024970
S315808043C00248FFF7C9BF00BF1491868074D085806C
S315808043D0024602490248FFF7BFBF00BF6DE686806E
S315808043E088D18580084632F0020108B503D152F023
S315808043F0B8FB024B1860002008BD00BF1060878024
S3158080440008B5064835F012FA20B11022002152F004
S3158080441003FC08BD4FF00040FBE700BF796E8680C5
S3158080442038B5114835F002FA20B11022002152F0B9
S31580804430F3FB38BDD9F82C40D9F81850D9F81C2010
S315808044406119914288BFD9F81C50084888BF2D1BB6
S3158080445035F0ECF930B11022002152F0DDFB2C448E
S31580804460201AE6E72046FAE7916E8680796E868006
S3158080447008B5064835F0DAF918B9BDE80840FFF77F
S31580804480CFBF1022002152F0C7FB08BD836E868085
S31580804490814201D051F006BB7047000073B50D4E46
S315808044A00B4615460446316880B101AA03F0A2FE08
S315808044B058B931682B46204601AA03F0B7FE0146DB
S315808044C018B9204652F04DFB01900199084602B0FA
S315808044D070BD00BF10608780002307B5694601AA3A
S315808044E0CDE90033FFF7DAFF03B05DF804FB000007
S315808044F010B50A4B026804469A420AD046F068FD97
S3158080450048B1204600F07AFB00280CBF00200320AB
S3158080451010BD0120FCE70220FAE700BF2705195667
S31580804520806C003818BF0120704700002DE9F04567
S315808045301D4600238DB0DDF850802B600C461746D3
S315808045400646C8F80030002800F0CE80724951F0C7
S31580804550D8F918B90023089307935AE00023A26CF0
S315808045600B9309920A93002E00F09980236DCBB12C
S31580804570D4F84CA05146304609AB0BAA03F03AFEDC
S31580804580002840F09680514630460AAB0BAA03F04D
S315808045904DFE0146002840F08C80304652F0E1FA8C
S315808045A00B9086E05D4BD3F800A0E3E73046FFF7BB
S315808045B03DFD08B95A4892E03046FFF741FE5CB12E
S315808045C0584816F03AFF3046FFF745FD08B95648F9
S315808045D085E0564816F031FF337FF8B2052B09D136
S315808045E0737F984203D0022B04D1162802D1B37FE1
S315808045F0032B06D0FFF7A2FD01464D4852F000FA04
S315808046006FE0002E6DD006F140030793F3681BBAE6
S315808046100893079A002A2BD0089B2A601344C8F8EF
S31580804620003025E008AB059307AB0493782302938B
S315808046300323FFB20390019320460B99009709AB21
S315808046400AAA04F07DFC00280FDB0B9B2066A365FD
S315808046500A9BE365DDE707AA0021E06F08AB00F0DF
S3158080466083FE821C04D00028D3D010F1410F13D151
S31580804670002011E05EB13A21304651F05DF930B1CB
S315808046800021013052F06DFA0B9B089064E729482F
S3158080469016F0D3FE6FF015000DB0BDE8F085E26CA4
S315808046A0204625490B9204F034FC831CE0D00028F8
S315808046B0DBDB0B98FFF71CFF0228B3D00328CAD018
S315808046C00128D7D10B991D4852F09AF90B9E1C4B25
S315808046D03268D4F8BC409A423FF468AF194816F0E5
S315808046E0ACFE6FF00100D7E78B6C002B7FF436AF82
S315808046F0636C002B3FF42EAF94F82230042B7FF42A
S3158080470029AF2168104852F07BF90121206808ABD7
S3158080471007AAFFF7BAFC7CE7F55B87801060878005
S31580804720C29B868059048680DA9B868074048680C4
S315808047308CF98580A7F9858064E8868054F98580A0
S3158080474027051956AD9B8680C3F985802DE9F04172
S31580804750044623480D4616461F4635F067F850B105
S31580804760002152F0FEF9431C02460BD1DCB90020B1
S315808047703060386015E0FFF77BFE8046FFF740FEAD
S3158080478008EB0002002CF2D04FF4805128469AB173
S3158080479050F08EFB306090B9124816F04EFE4FF086
S315808047A0FF30BDE8F08163193460294620463B603E
S315808047B050F07AFB0020F4E750F08CFBEAE72A1869
S315808047C03A603168084852F01BF930684FF480337C
S315808047D02A462146FFF75CFE044816F02EFEE9E75E
S315808047E0CDFA8580D9FA8580F5FA858074048680AD
S315808047F004F0A2BD2DE9F04D836C04468EB01BB9C2
S3158080480000200EB0BDE8F08DC56C2846FFF770FE9F
S31580804810022853D12846A16C04F0FCFA4FF0000898
S315808048208346294F0026434659462846274A00967E
S3158080483047F060F90D900028E2D0A0220CAB05935A
S315808048400BAB049302920223162203930192009368
S315808048502946204604F148030DAA04F071FB0028FE
S31580804860CFDB28460D9903F00DFD0028C9DB014674
S315808048700DF12B02284603F03FFD0028C1DB144B47
S315808048809DF82B200B98DB1B0C99DB1007F1080A0F
S31580804890B34202D108F10108C4E75AF808CC94459E
S315808048A008D109935AF8043C089207910690984754
S315808048B006A80FC801360AF1080AE9E7054852F0CA
S315808048C09FF801209DE700BFA4DA878016F985804E
S315808048D0A4DA878020F9858037B50546D0F8A4305C
S315808048E0044655F8A00F019303F012F9284601A9D2
S315808048F003F072F938B9019B2BB101222046D4F896
S31580804900A01003F0B7FB03B030BD000010B504469D
S315808049100146054852F074F82046BDE810400021D3
S31580804920024A4FF0ABBD00BF399186800ECD86801E
S315808049302DE9F341044657481646984634F0FCFFE5
S3158080494007462046FFF7D4FD0128054607D0022872
S3158080495033D0514816F071FD4FF0FF3506E022685E
S315808049604E4B9A4206D04E4816F067FD284602B0D6
S31580804970BDE8F0812046FFF759FB08B94948F3E73F
S315808049802FB12046FFF767FB08B94748ECE7A37F3E
S31580804990062B01D04548E7E7216C04F140030ABA2B
S315808049A009B94348E0E753F8041B0029FBD10899ED
S315808049B000250B60099B1A60D8E74FF0FF312046AF
S315808049C004F0F8F918B13B4816F037FD11E0002E57
S315808049D05CD1B8F1000F0ED098F800305BB14146BB
S315808049E0204604F017FA011E16DA4146324852F004
S315808049F007F80125BAE70021204604F00BFA011E4C
S31580804A000ADAB8F1000FF0D12C49204646F00EFF25
S31580804A10011E0EDA2A48D7E700232046294A04F069
S31580804A2045FA051E16DAB8F1000FEDD041462648C4
S31580804A30DDE700232046254A46F046FE06460028C6
S31580804A40E8D03146204603F01DFC051E02DA314649
S31580804A501F48CCE706222946204604F08BF908B900
S31580804A601C48B1E737B12946204604F0F9F808B9E1
S31580804A701948A9E76A462946204601AB03F0CEFC51
S31580804A8008B11648A0E7DDE9003290E73378002B3D
S31580804A90BAD0D6E7B8518680679D86802705195615
S31580804AA05A9C86806C9C86807C9C86808A9C8680AC
S31580804AB09A9C8680E5BF8680A89C8680DF9C86803F
S31580804AC0E79C86807FF98680C29C868055E5868035
S31580804AD0029D8680209D8680339D8680429D8680AD
S31580804AE030B585B00546019148B311B9002005B02F
S31580804AF030BD0C180C221349A4F10C0050F00CFF29
S31580804B000028F3D0042220460DEB0201FCF768FED4
S31580804B1000231A46019999420DD10392042203A952
S31580804B20A018FCF75DFE0C22064904F10800FCF70C
S31580804B3057FE1420DBE7E85C01330244EBE74FF055
S31580804B40FF30D4E7F9EB85800346084A406C904273
S31580804B5007D109B91868704700221021044834F0BB
S31580804B60DDBE10B99B6C002BF6D07047008000109C
S31580804B70C7A286802DE9F7450C4617469846824619
S31580804B8038B332B3F1B10025D61813490C22A6F179
S31580804B900C00019550F0C0FEC0B90422143E314607
S31580804BA00DEB0200FCF71CFE6FF013052246514682
S31580804BB02C443046FCF714FE08EB04013846FFF798
S31580804BC08FFF0444204603B0BDE8F085CDF804808D
S31580804BD0ECE74FF0FF34F5E7F9EB85804FF0FF3057
S31580804BE0704700000146082208B5034850F06FFFE1
S31580804BF0B0FA80F0400908BD94A2868001460822DA
S31580804C0008B5034850F063FFB0FA80F0400908BDCC
S31580804C108BA28680F8B50E461546044600B12AB921
S31580804C204B4851F0EDFE00273846F8BDFFF7E6FF8A
S31580804C30074618B9474851F0E3FEF5E794F82920EE
S31580804C4094F8283043EA022394F82A2043EA0243E0
S31580804C5094F82B2043EA0263022B40F283800EB9BC
S31580804C603D48DEE73046FFF7BDFF074608B93B483B
S31580804C70E1E704F12C032B63A36A3949AB6504F51C
S31580804C8080532B60A2686A6002F6FF720A401A44DB
S31580804C90EA64E068A8606861E36803F6FF730B40A6
S31580804CA01344A26A032A81BFD4F82C2602F6FF72A7
S31580804CB00A409B181B1BEB6506F11C036B63D6F8B9
S31580804CC01C386B6506F50263AB6333696B64736905
S31580804CD0AB64D6F838382B65D6F84C182964F268D8
S31580804CE0B36932445BB1EA60B3692B610344AB60DC
S31580804CF0F068B3690344013B404203401A442A6208
S31580804D00D6F834386B62D6F80CC0D6F840486344FF
S31580804D106444CCF10000013C013B034004401C44C8
S31580804D201444EC63D6F84C3843B12046FFF7D8FE5E
S31580804D302B6C1844AB6828640344AB60F268296C9A
S31580804D40531E0B44524213409B1B23442B666BE7B6
S31580804D5048EC85806FEC85808CEC8580C6EC858080
S31580804D6000F0FFFF04F13003AB6304F140032B6353
S31580804D70627B237B43EA0223A27B43EA0243E27B74
S31580804D8043EA02636B64627D237D43EA0223A27DCC
S31580804D9043EA0243E27D43EA0263AB6494F82920C6
S31580804DA094F8283043EA022394F82A2043EA02437F
S31580804DB094F82B2043EA0263AB6594F8752694F8C1
S31580804DC0743643EA022394F8762643EA024394F8BB
S31580804DD0772643EA02632B6594F8253094F824106D
S31580804DE041EA032194F8263041EA034194F827303A
S31580804DF041EA036121442960627A237A43EA022365
S31580804E00A27A43EA0243E27A43EA02636B6094F8C9
S31580804E10242094F82530607A42EA032294F826305A
S31580804E2042EA034294F8273042EA0362237A43EACD
S31580804E300023A07A43EA0043E07A43EA006313447E
S31580804E40013B524213400B44EB64617C227C42EAF4
S31580804E500122A17C42EA0142E17C42EA0162AA60A7
S31580804E6094F8252094F82410607C41EA022194F8F5
S31580804E70262041EA024194F8272041EA0261227C79
S31580804E8042EA0022A07C42EA0042E07C42EA00625A
S31580804E900A44013A49420A401A44AA61617E237EC5
S31580804EA043EA0123A17E43EA0143E17E43EA01632B
S31580804EB0EB6194F8253094F8241041EA032194F824
S31580804EC0263041EA034194F8273041EA0361237E04
S31580804ED0607E43EA0023A07E43EA0043E07E43EA85
S31580804EE000630B44013B49420B40134494F82910DC
S31580804EF094F8282042EA012294F82A1042EA014254
S31580804F0094F82B1052EA016271D0AB6294F86116E4
S31580804F1094F8602642EA012294F8621642EA0142B7
S31580804F2094F8631642EA0162EA6294F8252094F83E
S31580804F30241094F8610641EA022194F8262041EAF9
S31580804F40024194F8272041EA026194F8602642EA79
S31580804F50002294F8620642EA004294F8630642EAA6
S31580804F6000620A44013A49420A40134494F829105F
S31580804F7094F8282042EA012294F82A1042EA0142D3
S31580804F8094F82B1042EA0162012A30D92B6294F878
S31580804F90711694F8702642EA012294F8721642EAD3
S31580804FA0014294F8731642EA01626A6294F8252077
S31580804FB094F8241094F8710641EA022194F8262008
S31580804FC041EA024194F8272041EA026194F87026EA
S31580804FD042EA002294F8720642EA004294F8730606
S31580804FE042EA00620A44013A49420A4013441B1B42
S31580804FF0EB6519E6F8B504460E461746FFF7FEFDC3
S31580805000054620B9514851F0FBFC2846F8BD94F8F6
S31580805010292094F8283043EA022394F82A2043EA08
S31580805020024394F82B2043EA0263012B04D8484834
S3158080503051F0E6FC0025E8E7022B66D194F87126CC
S3158080504094F8703643EA022394F8722643EA024340
S3158080505094F8732653EA026301D13E48E8E794F8D0
S31580805060253094F809C094F82400227A40EA0320F7
S3158080507042EA0C2294F8263094F80AC040EA03402B
S3158080508042EA0C4294F8273094F80BC040EA0360D9
S3158080509042EA0C6202444142013A03190A4094F87A
S315808050A011C01A44237C43EA0C2394F812C043EA45
S315808050B00C4394F813C043EA0C630344013B0B40D2
S315808050C094F819C01344227E42EA0C2294F81AC0BE
S315808050D042EA0C4294F81BC042EA0C620244013ACE
S315808050E00A4094F861C61A4494F8603643EA0C23E1
S315808050F094F862C643EA0C4394F863C643EA0C6329
S315808051000344013B0B4013443B6094F8292094F878
S31580805110283043EA022394F82A2043EA024394F80B
S315808051202B2043EA0263022B7FF66FAFD6F83438A2
S31580805130002B92D0F268B369911923B11344013B55
S3158080514052421340194439605FE700BF39ED85804C
S3158080515060ED85808FED858000B59BB001AAFFF7D5
S3158080516059FD30B1179B022B06D818981BB05DF875
S3158080517004FB6FF01500F9E70020F7E700B59BB0D8
S3158080518001AAFFF747FD88B101980B4A03689342CD
S3158080519003D1C07F1BB05DF804FB084A934208D0D8
S315808051A004211BB05DF804EBFEF794BF6FF0150009
S315808051B0F0E70520EEE700BF2705195604224D1833
S315808051C02DE9F04104460E469AB06422002101A85A
S315808051D01F46209DFCF7B4FA3146204601AAFFF788
S315808051E019FD002800F0928031462046FFF7C6FFE1
S315808051F0014601A8FFF7A8FC474C064610222046A8
S315808052000F99DDF8048050F0ACFB00232046237490
S3158080521050F09FFB18B12146404851F0F1FB029A2D
S31580805220314602F2FF32920A3D4851F0E9FB3D4811
S3158080523034F0FCFA064648B350F08BFB04460D9951
S315808052400B784BB1384851F0DBFB0D9850F081FBE1
S31580805250002C18BF013404440E990B784BB1334827
S3158080526051F0CEFB0E9850F074FB002C18BF0134A1
S315808052700444601C16F0C8FB044648B92C4816F0D6
S31580805280DCF86FF00B001AB0BDE8F0810446D6E7F3
S315808052900023037016B1314650F0FCFA0D9B1B78C3
S315808052A04BB123781BB12046224950F007FB20461C
S315808052B00D9950F003FB0E9B1B784BB123781BB165
S315808052C020461C4950F0FAFA20460E9950F0F6FA9C
S315808052D02146144834F05AFA204616F0E3FA47B14C
S315808052E0154BD8F800209A4214BF019B08F14003E1
S315808052F03B6075B1104BD8F8002000209A420ABFD7
S31580805300D8F80C30029B1BBA2B60BCE76FF0150077
S31580805310B9E72846B7E700BFD8E68780A5ED8580C0
S31580805320BFED85801E378680E5ED8580FEED8580A4
S315808053301DEE858021C586802705195630B59BB0A0
S3158080534001AA04460D46FFF765FC48B129462046EA
S31580805350FFF714FF014601A8FFF7F6FB1BB030BDAF
S315808053606FF01500FAE700002DE9F04D04460D46F2
S315808053709CB00021164603A864220193FCF7E0F9CD
S315808053802946204603AAFFF745FC20B96FF0150011
S315808053901CB0BDE8F08D059A002A76D0199B159CA5
S315808053A0022B66D9B4F1885F0AD100221021384851
S315808053B034F0B4FA044618B9364851F021FBE5E753
S315808053C0079D20462A4606993460FCF709FA2C44C4
S315808053D0089D20462A461699FCF702FADDF84C800D
S315808053E0B8F1000F39D005EB040A4246129950462F
S315808053F0FCF7F6F9284834F019FA83465846274947
S3158080540050F074FB044620B3202150F095FA002397
S3158080541007460370204650F09CFA0A2305463B7067
S31580805420411C434652462046FFF7A4FB0028ADD058
S31580805430059B2544034405934FF0200380443B70AD
S31580805440284650F086FA2946421C204650F02AFB90
S31580805450D4E75946104834F099F9059C316804F2AE
S31580805460FF320F48920A51F0CBFA019B00201C60D4
S315808054708EE7169914B1B4F1885F01D13160ECE77B
S3158080548020463460FCF7ACF9E7E76FF001007FE7F0
S315808054901BA3868050EE85801E3786807DEE858034
S315808054A08AEE858070B59AB00E461446002101AA90
S315808054B0FFF7B0FBC0B1179B022B06D90C4851F081
S315808054C09FFA6FF05E001AB070BD089D25B9256081
S315808054D04FF0FF303560F6E707990648316051F026
S315808054E08FFA00202560EEE76FF01500EBE700BFAE
S315808054F0B2EE8580F9EE85802DE9F04D9AB00C4626
S315808055001746B1F1FF3F08BF002101AA054698469C
S31580805510DDF888A0FFF77EFB0646B0B321466A4653
S315808055202846FFF767FD009C204600F0D9F905469E
S3158080553040B153464246394620461AB0BDE8F04DC2
S3158080554000F0D6B90A9B04EB030BA34505D82A46FF
S315808055503946114851F054FA07E0204645F038FD27
S3158080556028B129460D4851F04BFA00260DE0636834
S31580805570BD421BBA0DD1BAF1000F01D0CAF80030F6
S31580805580B8F1000F01D0C8F8004030461AB0BDE8A7
S31580805590F08D1C440135D8E712ED8580EAEC858054
S315808055A030B590F8292090F82830044643EA0223C3
S315808055B090F82A2085B043EA024390F82B2043EA6C
S315808055C00263022B05D9B34805B0BDE8304051F05F
S315808055D017BA90F82D3090F82C50427A45EA0325F8
S315808055E090F82E30AC4945EA034590F82F3045EA4D
S315808055F00365037A43EA0223827A43EA0243C27AC4
S31580805600A64843EA026251F0FBF9627B237BA2497A
S3158080561043EA0223A27BA24843EA0243E27B43EA2F
S31580805620026251F0EDF9627C237C9B4943EA022336
S31580805630A27C9C4843EA0243E27C43EA026251F0C0
S31580805640DFF9627D237D944943EA0223A27D9648D1
S3158080565043EA0243E27D43EA026251F0D1F9627EF7
S31580805660237E8D4943EA0223A27E904843EA024301
S31580805670E27E43EA026251F0C3F9627F237F8649E4
S3158080568043EA0223A27F8A4843EA0243E27F43EACF
S31580805690026251F0B5F994F8212094F820307E4941
S315808056A043EA022394F82220824843EA024394F80C
S315808056B0232043EA026251F0A3F994F8252094F8D6
S315808056C02430754943EA022394F826207A4843EAAF
S315808056D0024394F8272043EA026251F091F994F8C4
S315808056E02D3094F82C2094F82F1042EA032294F8D7
S315808056F02E30724842EA034205F00F030393C5F3C6
S31580805700061303F5FA630293C5F3C62301936B0EE2
S3158080571042EA016200936049C5F3864351F070F98D
S315808057205D4904F13002664851F06AF95A4904F1BC
S315808057304002644851F064F994F8292094F828301E
S31580805740554943EA022394F82A205F4843EA024374
S3158080575094F82B2043EA026251F052F994F829207A
S3158080576094F8283043EA022394F82A2043EA0243B5
S3158080577094F82B2053EA026300F0898094F861269E
S3158080578094F86036444943EA022394F862264F4867
S3158080579043EA024394F8632643EA026251F030F981
S315808057A094F8653694F8642694F8691642EA03225A
S315808057B094F8663694F8670642EA034294F8683627
S315808057C042EA006243EA012394F86A16404843EA33
S315808057D0014394F86B1643EA01632F4951F010F91F
S315808057E094F86D2694F86C362B4943EA022394F814
S315808057F06E26384843EA024394F86F2643EA02626B
S3158080580051F0FEF894F8292094F8283043EA022350
S3158080581094F82A2043EA024394F82B2043EA0263D1
S31580805820022B34D194F8712694F870361A4943EA5B
S31580805830022394F87226284843EA024394F8732612
S3158080584043EA026251F0DCF894F8753694F874264F
S3158080585094F8791642EA032294F8763694F8770695
S3158080586042EA034294F8783642EA006243EA0123A8
S3158080587094F87A16194843EA014394F87B1643EAEA
S315808058800163054905B0BDE8304051F0B9B805B02F
S3158080589030BD00BF12EF8580088F868053EF85806C
S315808058A06FEF85808BEF8580A7EF8580C3EF8580BE
S315808058B0DFEF8580FBEF858017F0858033F08580EC
